{
  "_format": "hh-sol-artifact-1",
  "contractName": "ArcaveToken",
  "sourceName": "src/token/ArcaveToken.sol",
  "abi": [
    {
      "inputs": [
        {
          "internalType": "address",
          "name": "coreContorller_",
          "type": "address"
        },
        {
          "internalType": "string",
          "name": "name_",
          "type": "string"
        },
        {
          "internalType": "string",
          "name": "symbol_",
          "type": "string"
        }
      ],
      "stateMutability": "nonpayable",
      "type": "constructor"
    },
    {
      "anonymous": false,
      "inputs": [
        {
          "indexed": true,
          "internalType": "address",
          "name": "owner",
          "type": "address"
        },
        {
          "indexed": true,
          "internalType": "address",
          "name": "spender",
          "type": "address"
        },
        {
          "indexed": false,
          "internalType": "uint256",
          "name": "value",
          "type": "uint256"
        }
      ],
      "name": "Approval",
      "type": "event"
    },
    {
      "anonymous": false,
      "inputs": [
        {
          "indexed": true,
          "internalType": "address",
          "name": "from",
          "type": "address"
        },
        {
          "indexed": true,
          "internalType": "address",
          "name": "to",
          "type": "address"
        },
        {
          "indexed": false,
          "internalType": "uint256",
          "name": "value",
          "type": "uint256"
        }
      ],
      "name": "Transfer",
      "type": "event"
    },
    {
      "inputs": [
        {
          "internalType": "address",
          "name": "owner",
          "type": "address"
        },
        {
          "internalType": "address",
          "name": "spender",
          "type": "address"
        }
      ],
      "name": "allowance",
      "outputs": [
        {
          "internalType": "uint256",
          "name": "",
          "type": "uint256"
        }
      ],
      "stateMutability": "view",
      "type": "function"
    },
    {
      "inputs": [
        {
          "internalType": "address",
          "name": "spender",
          "type": "address"
        },
        {
          "internalType": "uint256",
          "name": "amount",
          "type": "uint256"
        }
      ],
      "name": "approve",
      "outputs": [
        {
          "internalType": "bool",
          "name": "",
          "type": "bool"
        }
      ],
      "stateMutability": "nonpayable",
      "type": "function"
    },
    {
      "inputs": [
        {
          "internalType": "address",
          "name": "account",
          "type": "address"
        }
      ],
      "name": "balanceOf",
      "outputs": [
        {
          "internalType": "uint256",
          "name": "",
          "type": "uint256"
        }
      ],
      "stateMutability": "view",
      "type": "function"
    },
    {
      "inputs": [
        {
          "internalType": "uint256",
          "name": "amount",
          "type": "uint256"
        }
      ],
      "name": "burn",
      "outputs": [],
      "stateMutability": "nonpayable",
      "type": "function"
    },
    {
      "inputs": [
        {
          "internalType": "address",
          "name": "from_",
          "type": "address"
        },
        {
          "internalType": "uint256",
          "name": "amount_",
          "type": "uint256"
        }
      ],
      "name": "burn",
      "outputs": [],
      "stateMutability": "nonpayable",
      "type": "function"
    },
    {
      "inputs": [
        {
          "internalType": "address",
          "name": "account",
          "type": "address"
        },
        {
          "internalType": "uint256",
          "name": "amount",
          "type": "uint256"
        }
      ],
      "name": "burnFrom",
      "outputs": [],
      "stateMutability": "nonpayable",
      "type": "function"
    },
    {
      "inputs": [],
      "name": "decimals",
      "outputs": [
        {
          "internalType": "uint8",
          "name": "",
          "type": "uint8"
        }
      ],
      "stateMutability": "view",
      "type": "function"
    },
    {
      "inputs": [
        {
          "internalType": "address",
          "name": "spender",
          "type": "address"
        },
        {
          "internalType": "uint256",
          "name": "subtractedValue",
          "type": "uint256"
        }
      ],
      "name": "decreaseAllowance",
      "outputs": [
        {
          "internalType": "bool",
          "name": "",
          "type": "bool"
        }
      ],
      "stateMutability": "nonpayable",
      "type": "function"
    },
    {
      "inputs": [
        {
          "internalType": "address",
          "name": "spender",
          "type": "address"
        },
        {
          "internalType": "uint256",
          "name": "addedValue",
          "type": "uint256"
        }
      ],
      "name": "increaseAllowance",
      "outputs": [
        {
          "internalType": "bool",
          "name": "",
          "type": "bool"
        }
      ],
      "stateMutability": "nonpayable",
      "type": "function"
    },
    {
      "inputs": [
        {
          "internalType": "address",
          "name": "to_",
          "type": "address"
        },
        {
          "internalType": "uint256",
          "name": "amount_",
          "type": "uint256"
        }
      ],
      "name": "mint",
      "outputs": [],
      "stateMutability": "nonpayable",
      "type": "function"
    },
    {
      "inputs": [],
      "name": "name",
      "outputs": [
        {
          "internalType": "string",
          "name": "",
          "type": "string"
        }
      ],
      "stateMutability": "view",
      "type": "function"
    },
    {
      "inputs": [],
      "name": "symbol",
      "outputs": [
        {
          "internalType": "string",
          "name": "",
          "type": "string"
        }
      ],
      "stateMutability": "view",
      "type": "function"
    },
    {
      "inputs": [],
      "name": "totalSupply",
      "outputs": [
        {
          "internalType": "uint256",
          "name": "",
          "type": "uint256"
        }
      ],
      "stateMutability": "view",
      "type": "function"
    },
    {
      "inputs": [
        {
          "internalType": "address",
          "name": "to",
          "type": "address"
        },
        {
          "internalType": "uint256",
          "name": "amount",
          "type": "uint256"
        }
      ],
      "name": "transfer",
      "outputs": [
        {
          "internalType": "bool",
          "name": "",
          "type": "bool"
        }
      ],
      "stateMutability": "nonpayable",
      "type": "function"
    },
    {
      "inputs": [
        {
          "internalType": "address",
          "name": "from",
          "type": "address"
        },
        {
          "internalType": "address",
          "name": "to",
          "type": "address"
        },
        {
          "internalType": "uint256",
          "name": "amount",
          "type": "uint256"
        }
      ],
      "name": "transferFrom",
      "outputs": [
        {
          "internalType": "bool",
          "name": "",
          "type": "bool"
        }
      ],
      "stateMutability": "nonpayable",
      "type": "function"
    }
  ],
  "bytecode": "0x60a06040523480156200001157600080fd5b5060405162000f3038038062000f30833981016040819052620000349162000132565b818160036200004483826200024b565b5060046200005382826200024b565b5050506001600160a01b0390921660805250620003179050565b634e487b7160e01b600052604160045260246000fd5b600082601f8301126200009557600080fd5b81516001600160401b0380821115620000b257620000b26200006d565b604051601f8301601f19908116603f01168101908282118183101715620000dd57620000dd6200006d565b81604052838152602092508683858801011115620000fa57600080fd5b600091505b838210156200011e5785820183015181830184015290820190620000ff565b600093810190920192909252949350505050565b6000806000606084860312156200014857600080fd5b83516001600160a01b03811681146200016057600080fd5b60208501519093506001600160401b03808211156200017e57600080fd5b6200018c8783880162000083565b93506040860151915080821115620001a357600080fd5b50620001b28682870162000083565b9150509250925092565b600181811c90821680620001d157607f821691505b602082108103620001f257634e487b7160e01b600052602260045260246000fd5b50919050565b601f8211156200024657600081815260208120601f850160051c81016020861015620002215750805b601f850160051c820191505b8181101562000242578281556001016200022d565b5050505b505050565b81516001600160401b038111156200026757620002676200006d565b6200027f81620002788454620001bc565b84620001f8565b602080601f831160018114620002b757600084156200029e5750858301515b600019600386901b1c1916600185901b17855562000242565b600085815260208120601f198616915b82811015620002e857888601518255948401946001909101908401620002c7565b5085821015620003075787850151600019600388901b60f8161c191681555b5050505050600190811b01905550565b608051610bf66200033a6000396000818161033701526103c70152610bf66000f3fe608060405234801561001057600080fd5b50600436106100f55760003560e01c806342966c68116100975780639dc29fac116100665780639dc29fac146101ee578063a457c2d714610201578063a9059cbb14610214578063dd62ed3e1461022757600080fd5b806342966c681461019757806370a08231146101aa57806379cc6790146101d357806395d89b41146101e657600080fd5b806323b872dd116100d357806323b872dd1461014d578063313ce56714610160578063395093511461016f57806340c10f191461018257600080fd5b806306fdde03146100fa578063095ea7b31461011857806318160ddd1461013b575b600080fd5b61010261023a565b60405161010f91906109e4565b60405180910390f35b61012b610126366004610a4e565b6102cc565b604051901515815260200161010f565b6002545b60405190815260200161010f565b61012b61015b366004610a78565b6102e6565b6040516012815260200161010f565b61012b61017d366004610a4e565b61030a565b610195610190366004610a4e565b61032c565b005b6101956101a5366004610ab4565b61038b565b61013f6101b8366004610acd565b6001600160a01b031660009081526020819052604090205490565b6101956101e1366004610a4e565b610398565b6101026103ad565b6101956101fc366004610a4e565b6103bc565b61012b61020f366004610a4e565b610404565b61012b610222366004610a4e565b61047f565b61013f610235366004610aef565b61048d565b60606003805461024990610b22565b80601f016020809104026020016040519081016040528092919081815260200182805461027590610b22565b80156102c25780601f10610297576101008083540402835291602001916102c2565b820191906000526020600020905b8154815290600101906020018083116102a557829003601f168201915b5050505050905090565b6000336102da8185856104b8565b60019150505b92915050565b6000336102f48582856105dd565b6102ff858585610657565b506001949350505050565b6000336102da81858561031d838361048d565b6103279190610b5c565b6104b8565b336001600160a01b037f0000000000000000000000000000000000000000000000000000000000000000161461037d5760405162461bcd60e51b815260040161037490610b7d565b60405180910390fd5b61038782826107fb565b5050565b61039533826108ba565b50565b6103a38233836105dd565b61038782826108ba565b60606004805461024990610b22565b336001600160a01b037f000000000000000000000000000000000000000000000000000000000000000016146103a35760405162461bcd60e51b815260040161037490610b7d565b60003381610412828661048d565b9050838110156104725760405162461bcd60e51b815260206004820152602560248201527f45524332303a2064656372656173656420616c6c6f77616e63652062656c6f77604482015264207a65726f60d81b6064820152608401610374565b6102ff82868684036104b8565b6000336102da818585610657565b6001600160a01b03918216600090815260016020908152604080832093909416825291909152205490565b6001600160a01b03831661051a5760405162461bcd60e51b8152602060048201526024808201527f45524332303a20617070726f76652066726f6d20746865207a65726f206164646044820152637265737360e01b6064820152608401610374565b6001600160a01b03821661057b5760405162461bcd60e51b815260206004820152602260248201527f45524332303a20617070726f766520746f20746865207a65726f206164647265604482015261737360f01b6064820152608401610374565b6001600160a01b0383811660008181526001602090815260408083209487168084529482529182902085905590518481527f8c5be1e5ebec7d5bd14f71427d1e84f3dd0314c0f7b2291e5b200ac8c7c3b92591015b60405180910390a3505050565b60006105e9848461048d565b9050600019811461065157818110156106445760405162461bcd60e51b815260206004820152601d60248201527f45524332303a20696e73756666696369656e7420616c6c6f77616e63650000006044820152606401610374565b61065184848484036104b8565b50505050565b6001600160a01b0383166106bb5760405162461bcd60e51b815260206004820152602560248201527f45524332303a207472616e736665722066726f6d20746865207a65726f206164604482015264647265737360d81b6064820152608401610374565b6001600160a01b03821661071d5760405162461bcd60e51b815260206004820152602360248201527f45524332303a207472616e7366657220746f20746865207a65726f206164647260448201526265737360e81b6064820152608401610374565b6001600160a01b038316600090815260208190526040902054818110156107955760405162461bcd60e51b815260206004820152602660248201527f45524332303a207472616e7366657220616d6f756e7420657863656564732062604482015265616c616e636560d01b6064820152608401610374565b6001600160a01b03848116600081815260208181526040808320878703905593871680835291849020805487019055925185815290927fddf252ad1be2c89b69c2b068fc378daa952ba7f163c4a11628f55a4df523b3ef910160405180910390a3610651565b6001600160a01b0382166108515760405162461bcd60e51b815260206004820152601f60248201527f45524332303a206d696e7420746f20746865207a65726f2061646472657373006044820152606401610374565b80600260008282546108639190610b5c565b90915550506001600160a01b038216600081815260208181526040808320805486019055518481527fddf252ad1be2c89b69c2b068fc378daa952ba7f163c4a11628f55a4df523b3ef910160405180910390a35050565b6001600160a01b03821661091a5760405162461bcd60e51b815260206004820152602160248201527f45524332303a206275726e2066726f6d20746865207a65726f206164647265736044820152607360f81b6064820152608401610374565b6001600160a01b0382166000908152602081905260409020548181101561098e5760405162461bcd60e51b815260206004820152602260248201527f45524332303a206275726e20616d6f756e7420657863656564732062616c616e604482015261636560f01b6064820152608401610374565b6001600160a01b0383166000818152602081815260408083208686039055600280548790039055518581529192917fddf252ad1be2c89b69c2b068fc378daa952ba7f163c4a11628f55a4df523b3ef91016105d0565b600060208083528351808285015260005b81811015610a11578581018301518582016040015282016109f5565b506000604082860101526040601f19601f8301168501019250505092915050565b80356001600160a01b0381168114610a4957600080fd5b919050565b60008060408385031215610a6157600080fd5b610a6a83610a32565b946020939093013593505050565b600080600060608486031215610a8d57600080fd5b610a9684610a32565b9250610aa460208501610a32565b9150604084013590509250925092565b600060208284031215610ac657600080fd5b5035919050565b600060208284031215610adf57600080fd5b610ae882610a32565b9392505050565b60008060408385031215610b0257600080fd5b610b0b83610a32565b9150610b1960208401610a32565b90509250929050565b600181811c90821680610b3657607f821691505b602082108103610b5657634e487b7160e01b600052602260045260246000fd5b50919050565b808201808211156102e057634e487b7160e01b600052601160045260246000fd5b60208082526023908201527f4f6e6c7920666163746f72792063616e2063616c6c20746869732066756e637460408201526234b7b760e91b60608201526080019056fea2646970667358221220f9fd15b9c317b6f5d9e4063bbff2259108b8c0cb09da93b54d725cec5a3a563e64736f6c63430008140033",
  "linkReferences": {},
  "deployedLinkReferences": {}
}