{
  "_format": "hh-sol-artifact-1",
  "contractName": "Avatar",
  "sourceName": "src/avatar/Avatar.sol",
  "abi": [
    {
      "inputs": [
        {
          "internalType": "address",
          "name": "coreController_",
          "type": "address"
        },
        {
          "internalType": "string",
          "name": "name_",
          "type": "string"
        },
        {
          "internalType": "string",
          "name": "symbol_",
          "type": "string"
        }
      ],
      "stateMutability": "nonpayable",
      "type": "constructor"
    },
    {
      "anonymous": false,
      "inputs": [
        {
          "indexed": true,
          "internalType": "address",
          "name": "owner",
          "type": "address"
        },
        {
          "indexed": true,
          "internalType": "address",
          "name": "approved",
          "type": "address"
        },
        {
          "indexed": true,
          "internalType": "uint256",
          "name": "tokenId",
          "type": "uint256"
        }
      ],
      "name": "Approval",
      "type": "event"
    },
    {
      "anonymous": false,
      "inputs": [
        {
          "indexed": true,
          "internalType": "address",
          "name": "owner",
          "type": "address"
        },
        {
          "indexed": true,
          "internalType": "address",
          "name": "operator",
          "type": "address"
        },
        {
          "indexed": false,
          "internalType": "bool",
          "name": "approved",
          "type": "bool"
        }
      ],
      "name": "ApprovalForAll",
      "type": "event"
    },
    {
      "anonymous": false,
      "inputs": [
        {
          "indexed": false,
          "internalType": "uint256",
          "name": "_fromTokenId",
          "type": "uint256"
        },
        {
          "indexed": false,
          "internalType": "uint256",
          "name": "_toTokenId",
          "type": "uint256"
        }
      ],
      "name": "BatchMetadataUpdate",
      "type": "event"
    },
    {
      "anonymous": false,
      "inputs": [
        {
          "indexed": false,
          "internalType": "uint256",
          "name": "_tokenId",
          "type": "uint256"
        }
      ],
      "name": "MetadataUpdate",
      "type": "event"
    },
    {
      "anonymous": false,
      "inputs": [
        {
          "indexed": true,
          "internalType": "address",
          "name": "from",
          "type": "address"
        },
        {
          "indexed": true,
          "internalType": "address",
          "name": "to",
          "type": "address"
        },
        {
          "indexed": true,
          "internalType": "uint256",
          "name": "tokenId",
          "type": "uint256"
        }
      ],
      "name": "Transfer",
      "type": "event"
    },
    {
      "inputs": [
        {
          "internalType": "address",
          "name": "to",
          "type": "address"
        },
        {
          "internalType": "uint256",
          "name": "tokenId",
          "type": "uint256"
        }
      ],
      "name": "approve",
      "outputs": [],
      "stateMutability": "nonpayable",
      "type": "function"
    },
    {
      "inputs": [
        {
          "internalType": "address",
          "name": "",
          "type": "address"
        }
      ],
      "name": "avatarAttributes",
      "outputs": [
        {
          "internalType": "string",
          "name": "",
          "type": "string"
        }
      ],
      "stateMutability": "view",
      "type": "function"
    },
    {
      "inputs": [
        {
          "internalType": "address",
          "name": "owner",
          "type": "address"
        }
      ],
      "name": "balanceOf",
      "outputs": [
        {
          "internalType": "uint256",
          "name": "",
          "type": "uint256"
        }
      ],
      "stateMutability": "view",
      "type": "function"
    },
    {
      "inputs": [
        {
          "internalType": "address",
          "name": "owner_",
          "type": "address"
        },
        {
          "internalType": "string",
          "name": "tokenURI_",
          "type": "string"
        },
        {
          "internalType": "string",
          "name": "description_",
          "type": "string"
        },
        {
          "internalType": "string",
          "name": "userAttributes_",
          "type": "string"
        }
      ],
      "name": "createAvatar",
      "outputs": [],
      "stateMutability": "nonpayable",
      "type": "function"
    },
    {
      "inputs": [],
      "name": "description",
      "outputs": [
        {
          "internalType": "string",
          "name": "",
          "type": "string"
        }
      ],
      "stateMutability": "view",
      "type": "function"
    },
    {
      "inputs": [
        {
          "internalType": "address",
          "name": "user_",
          "type": "address"
        }
      ],
      "name": "fetchUserAvatar",
      "outputs": [
        {
          "internalType": "string",
          "name": "itemMetadata",
          "type": "string"
        }
      ],
      "stateMutability": "view",
      "type": "function"
    },
    {
      "inputs": [
        {
          "internalType": "uint256",
          "name": "tokenId",
          "type": "uint256"
        }
      ],
      "name": "getApproved",
      "outputs": [
        {
          "internalType": "address",
          "name": "",
          "type": "address"
        }
      ],
      "stateMutability": "view",
      "type": "function"
    },
    {
      "inputs": [
        {
          "internalType": "address",
          "name": "owner",
          "type": "address"
        },
        {
          "internalType": "address",
          "name": "operator",
          "type": "address"
        }
      ],
      "name": "isApprovedForAll",
      "outputs": [
        {
          "internalType": "bool",
          "name": "",
          "type": "bool"
        }
      ],
      "stateMutability": "view",
      "type": "function"
    },
    {
      "inputs": [],
      "name": "name",
      "outputs": [
        {
          "internalType": "string",
          "name": "",
          "type": "string"
        }
      ],
      "stateMutability": "view",
      "type": "function"
    },
    {
      "inputs": [
        {
          "internalType": "uint256",
          "name": "tokenId",
          "type": "uint256"
        }
      ],
      "name": "ownerOf",
      "outputs": [
        {
          "internalType": "address",
          "name": "",
          "type": "address"
        }
      ],
      "stateMutability": "view",
      "type": "function"
    },
    {
      "inputs": [
        {
          "internalType": "address",
          "name": "from",
          "type": "address"
        },
        {
          "internalType": "address",
          "name": "to",
          "type": "address"
        },
        {
          "internalType": "uint256",
          "name": "tokenId",
          "type": "uint256"
        }
      ],
      "name": "safeTransferFrom",
      "outputs": [],
      "stateMutability": "nonpayable",
      "type": "function"
    },
    {
      "inputs": [
        {
          "internalType": "address",
          "name": "from",
          "type": "address"
        },
        {
          "internalType": "address",
          "name": "to",
          "type": "address"
        },
        {
          "internalType": "uint256",
          "name": "tokenId",
          "type": "uint256"
        },
        {
          "internalType": "bytes",
          "name": "data",
          "type": "bytes"
        }
      ],
      "name": "safeTransferFrom",
      "outputs": [],
      "stateMutability": "nonpayable",
      "type": "function"
    },
    {
      "inputs": [
        {
          "internalType": "address",
          "name": "operator",
          "type": "address"
        },
        {
          "internalType": "bool",
          "name": "approved",
          "type": "bool"
        }
      ],
      "name": "setApprovalForAll",
      "outputs": [],
      "stateMutability": "nonpayable",
      "type": "function"
    },
    {
      "inputs": [
        {
          "internalType": "bytes4",
          "name": "interfaceId",
          "type": "bytes4"
        }
      ],
      "name": "supportsInterface",
      "outputs": [
        {
          "internalType": "bool",
          "name": "",
          "type": "bool"
        }
      ],
      "stateMutability": "view",
      "type": "function"
    },
    {
      "inputs": [],
      "name": "symbol",
      "outputs": [
        {
          "internalType": "string",
          "name": "",
          "type": "string"
        }
      ],
      "stateMutability": "view",
      "type": "function"
    },
    {
      "inputs": [],
      "name": "tokenId",
      "outputs": [
        {
          "internalType": "uint256",
          "name": "",
          "type": "uint256"
        }
      ],
      "stateMutability": "view",
      "type": "function"
    },
    {
      "inputs": [
        {
          "internalType": "uint256",
          "name": "tokenId",
          "type": "uint256"
        }
      ],
      "name": "tokenURI",
      "outputs": [
        {
          "internalType": "string",
          "name": "",
          "type": "string"
        }
      ],
      "stateMutability": "view",
      "type": "function"
    },
    {
      "inputs": [
        {
          "internalType": "address",
          "name": "from",
          "type": "address"
        },
        {
          "internalType": "address",
          "name": "to",
          "type": "address"
        },
        {
          "internalType": "uint256",
          "name": "tokenId",
          "type": "uint256"
        }
      ],
      "name": "transferFrom",
      "outputs": [],
      "stateMutability": "nonpayable",
      "type": "function"
    },
    {
      "inputs": [
        {
          "internalType": "address",
          "name": "user_",
          "type": "address"
        },
        {
          "internalType": "string",
          "name": "tokenURI_",
          "type": "string"
        },
        {
          "internalType": "string",
          "name": "avatarAttribute_",
          "type": "string"
        }
      ],
      "name": "updateUserAvatarImage",
      "outputs": [],
      "stateMutability": "nonpayable",
      "type": "function"
    },
    {
      "inputs": [
        {
          "internalType": "address",
          "name": "",
          "type": "address"
        }
      ],
      "name": "userMintedToekn",
      "outputs": [
        {
          "internalType": "uint256",
          "name": "",
          "type": "uint256"
        }
      ],
      "stateMutability": "view",
      "type": "function"
    }
  ],
  "bytecode": "0x60a06040523480156200001157600080fd5b50604051620021ae380380620021ae833981016040819052620000349162000132565b818160006200004483826200024b565b5060016200005382826200024b565b5050506001600160a01b0390921660805250620003179050565b634e487b7160e01b600052604160045260246000fd5b600082601f8301126200009557600080fd5b81516001600160401b0380821115620000b257620000b26200006d565b604051601f8301601f19908116603f01168101908282118183101715620000dd57620000dd6200006d565b81604052838152602092508683858801011115620000fa57600080fd5b600091505b838210156200011e5785820183015181830184015290820190620000ff565b600093810190920192909252949350505050565b6000806000606084860312156200014857600080fd5b83516001600160a01b03811681146200016057600080fd5b60208501519093506001600160401b03808211156200017e57600080fd5b6200018c8783880162000083565b93506040860151915080821115620001a357600080fd5b50620001b28682870162000083565b9150509250925092565b600181811c90821680620001d157607f821691505b602082108103620001f257634e487b7160e01b600052602260045260246000fd5b50919050565b601f8211156200024657600081815260208120601f850160051c81016020861015620002215750805b601f850160051c820191505b8181101562000242578281556001016200022d565b5050505b505050565b81516001600160401b038111156200026757620002676200006d565b6200027f81620002788454620001bc565b84620001f8565b602080601f831160018114620002b757600084156200029e5750858301515b600019600386901b1c1916600185901b17855562000242565b600085815260208120601f198616915b82811015620002e857888601518255948401946001909101908401620002c7565b5085821015620003075787850151600019600388901b60f8161c191681555b5050505050600190811b01905550565b608051611e746200033a6000396000818161057c015261077f0152611e746000f3fe608060405234801561001057600080fd5b506004361061012c5760003560e01c80636352211e116100ad5780639c6f3ead116100715780639c6f3ead1461027a578063a22cb4651461028d578063b88d4fde146102a0578063c87b56dd146102b3578063e985e9c5146102c657600080fd5b80636352211e1461023157806370a08231146102445780637284e416146102575780638f9a61781461025f57806395d89b411461027257600080fd5b80630f397c46116100f45780630f397c46146101c157806317d70f7c146101d457806323b872dd146101eb5780633d3d3c33146101fe57806342842e0e1461021e57600080fd5b806301ffc9a71461013157806306fdde0314610159578063081812fc1461016e578063095ea7b3146101995780630d620078146101ae575b600080fd5b61014461013f36600461154f565b6102d9565b60405190151581526020015b60405180910390f35b610161610304565b60405161015091906115bc565b61018161017c3660046115cf565b610396565b6040516001600160a01b039091168152602001610150565b6101ac6101a7366004611604565b6103bd565b005b6101616101bc36600461162e565b6104d7565b6101ac6101cf3660046116f5565b610571565b6101dd60075481565b604051908152602001610150565b6101ac6101f936600461178e565b610635565b6101dd61020c36600461162e565b600a6020526000908152604090205481565b6101ac61022c36600461178e565b610666565b61018161023f3660046115cf565b610681565b6101dd61025236600461162e565b6106e1565b610161610767565b6101ac61026d3660046117ca565b610774565b610161610801565b61016161028836600461162e565b610810565b6101ac61029b36600461183e565b610948565b6101ac6102ae36600461187a565b610957565b6101616102c13660046115cf565b61098f565b6101446102d43660046118ea565b610a9f565b60006001600160e01b03198216632483248360e11b14806102fe57506102fe82610acd565b92915050565b6060600080546103139061191d565b80601f016020809104026020016040519081016040528092919081815260200182805461033f9061191d565b801561038c5780601f106103615761010080835404028352916020019161038c565b820191906000526020600020905b81548152906001019060200180831161036f57829003601f168201915b5050505050905090565b60006103a182610b1d565b506000908152600460205260409020546001600160a01b031690565b60006103c882610681565b9050806001600160a01b0316836001600160a01b03160361043a5760405162461bcd60e51b815260206004820152602160248201527f4552433732313a20617070726f76616c20746f2063757272656e74206f776e656044820152603960f91b60648201526084015b60405180910390fd5b336001600160a01b038216148061045657506104568133610a9f565b6104c85760405162461bcd60e51b815260206004820152603d60248201527f4552433732313a20617070726f76652063616c6c6572206973206e6f7420746f60448201527f6b656e206f776e6572206f7220617070726f76656420666f7220616c6c0000006064820152608401610431565b6104d28383610b7f565b505050565b600960205260009081526040902080546104f09061191d565b80601f016020809104026020016040519081016040528092919081815260200182805461051c9061191d565b80156105695780601f1061053e57610100808354040283529160200191610569565b820191906000526020600020905b81548152906001019060200180831161054c57829003601f168201915b505050505081565b336001600160a01b037f000000000000000000000000000000000000000000000000000000000000000016146105b95760405162461bcd60e51b815260040161043190611957565b6007546105c79060016119b0565b6007556001600160a01b03841660009081526009602052604090206105ec8282611a11565b506007546001600160a01b0385166000908152600a60205260409020819055610616908590610bed565b61062260075484610d78565b600861062e8382611a11565b5050505050565b61063f3382610e43565b61065b5760405162461bcd60e51b815260040161043190611ad1565b6104d2838383610ea1565b6104d283838360405180602001604052806000815250610957565b6000818152600260205260408120546001600160a01b0316806102fe5760405162461bcd60e51b8152602060048201526018602482015277115490cdcc8c4e881a5b9d985b1a59081d1bdad95b88125160421b6044820152606401610431565b60006001600160a01b03821661074b5760405162461bcd60e51b815260206004820152602960248201527f4552433732313a2061646472657373207a65726f206973206e6f7420612076616044820152683634b21037bbb732b960b91b6064820152608401610431565b506001600160a01b031660009081526003602052604090205490565b600880546104f09061191d565b336001600160a01b037f000000000000000000000000000000000000000000000000000000000000000016146107bc5760405162461bcd60e51b815260040161043190611957565b6001600160a01b0383166000908152600a60205260409020546107df8184610d78565b6001600160a01b038416600090815260096020526040902061062e8382611a11565b6060600180546103139061191d565b6001600160a01b0381166000908152600a60205260408120546060916108358261098f565b6001600160a01b03851660009081526009602052604081208054929350909161085d9061191d565b80601f01602080910402602001604051908101604052809291908181526020018280546108899061191d565b80156108d65780601f106108ab576101008083540402835291602001916108d6565b820191906000526020600020905b8154815290600101906020018083116108b957829003601f168201915b5050505050905060006108e7610304565b9050600061091a82600886866040516020016109069493929190611b3a565b604051602081830303815290604052611005565b90508060405160200161092d9190611c89565b60405160208183030381529060405295505050505050919050565b610953338383611158565b5050565b6109613383610e43565b61097d5760405162461bcd60e51b815260040161043190611ad1565b61098984848484611226565b50505050565b606061099a82610b1d565b600082815260066020526040812080546109b39061191d565b80601f01602080910402602001604051908101604052809291908181526020018280546109df9061191d565b8015610a2c5780601f10610a0157610100808354040283529160200191610a2c565b820191906000526020600020905b815481529060010190602001808311610a0f57829003601f168201915b505050505090506000610a4a60408051602081019091526000815290565b90508051600003610a5c575092915050565b815115610a8e578082604051602001610a76929190611ca5565b60405160208183030381529060405292505050919050565b610a9784611259565b949350505050565b6001600160a01b03918216600090815260056020908152604080832093909416825291909152205460ff1690565b60006001600160e01b031982166380ac58cd60e01b1480610afe57506001600160e01b03198216635b5e139f60e01b145b806102fe57506301ffc9a760e01b6001600160e01b03198316146102fe565b6000818152600260205260409020546001600160a01b0316610b7c5760405162461bcd60e51b8152602060048201526018602482015277115490cdcc8c4e881a5b9d985b1a59081d1bdad95b88125160421b6044820152606401610431565b50565b600081815260046020526040902080546001600160a01b0319166001600160a01b0384169081179091558190610bb482610681565b6001600160a01b03167f8c5be1e5ebec7d5bd14f71427d1e84f3dd0314c0f7b2291e5b200ac8c7c3b92560405160405180910390a45050565b6001600160a01b038216610c435760405162461bcd60e51b815260206004820181905260248201527f4552433732313a206d696e7420746f20746865207a65726f20616464726573736044820152606401610431565b6000818152600260205260409020546001600160a01b031615610ca85760405162461bcd60e51b815260206004820152601c60248201527f4552433732313a20746f6b656e20616c7265616479206d696e746564000000006044820152606401610431565b6000818152600260205260409020546001600160a01b031615610d0d5760405162461bcd60e51b815260206004820152601c60248201527f4552433732313a20746f6b656e20616c7265616479206d696e746564000000006044820152606401610431565b6001600160a01b038216600081815260036020908152604080832080546001019055848352600290915280822080546001600160a01b0319168417905551839291907fddf252ad1be2c89b69c2b068fc378daa952ba7f163c4a11628f55a4df523b3ef908290a45050565b6000828152600260205260409020546001600160a01b0316610df35760405162461bcd60e51b815260206004820152602e60248201527f45524337323155524953746f726167653a2055524920736574206f66206e6f6e60448201526d32bc34b9ba32b73a103a37b5b2b760911b6064820152608401610431565b6000828152600660205260409020610e0b8282611a11565b506040518281527ff8e1a15aba9398e019f0b49df1a4fde98ee17ae345cb5f6b5e2c27f5033e8ce79060200160405180910390a15050565b600080610e4f83610681565b9050806001600160a01b0316846001600160a01b03161480610e765750610e768185610a9f565b80610a975750836001600160a01b0316610e8f84610396565b6001600160a01b031614949350505050565b826001600160a01b0316610eb482610681565b6001600160a01b031614610eda5760405162461bcd60e51b815260040161043190611cd4565b6001600160a01b038216610f3c5760405162461bcd60e51b8152602060048201526024808201527f4552433732313a207472616e7366657220746f20746865207a65726f206164646044820152637265737360e01b6064820152608401610431565b826001600160a01b0316610f4f82610681565b6001600160a01b031614610f755760405162461bcd60e51b815260040161043190611cd4565b600081815260046020908152604080832080546001600160a01b03199081169091556001600160a01b0387811680865260038552838620805460001901905590871680865283862080546001019055868652600290945282852080549092168417909155905184937fddf252ad1be2c89b69c2b068fc378daa952ba7f163c4a11628f55a4df523b3ef91a4505050565b6060815160000361102457505060408051602081019091526000815290565b6000604051806060016040528060408152602001611dff604091399050600060038451600261105391906119b0565b61105d9190611d19565b611068906004611d3b565b67ffffffffffffffff81111561108057611080611649565b6040519080825280601f01601f1916602001820160405280156110aa576020820181803683370190505b509050600182016020820185865187015b80821015611116576003820191508151603f8160121c168501518453600184019350603f81600c1c168501518453600184019350603f8160061c168501518453600184019350603f81168501518453506001830192506110bb565b505060038651066001811461113257600281146111455761114d565b603d6001830353603d600283035361114d565b603d60018303535b509195945050505050565b816001600160a01b0316836001600160a01b0316036111b95760405162461bcd60e51b815260206004820152601960248201527f4552433732313a20617070726f766520746f2063616c6c6572000000000000006044820152606401610431565b6001600160a01b03838116600081815260056020908152604080832094871680845294825291829020805460ff191686151590811790915591519182527f17307eab39ab6107e8899845ad3d59bd9653f200f220920489ca2b5937696c31910160405180910390a3505050565b611231848484610ea1565b61123d848484846112cd565b6109895760405162461bcd60e51b815260040161043190611d52565b606061126482610b1d565b600061127b60408051602081019091526000815290565b9050600081511161129b57604051806020016040528060008152506112c6565b806112a5846113ce565b6040516020016112b6929190611ca5565b6040516020818303038152906040525b9392505050565b60006001600160a01b0384163b156113c357604051630a85bd0160e11b81526001600160a01b0385169063150b7a0290611311903390899088908890600401611da4565b6020604051808303816000875af192505050801561134c575060408051601f3d908101601f1916820190925261134991810190611de1565b60015b6113a9573d80801561137a576040519150601f19603f3d011682016040523d82523d6000602084013e61137f565b606091505b5080516000036113a15760405162461bcd60e51b815260040161043190611d52565b805181602001fd5b6001600160e01b031916630a85bd0160e11b149050610a97565b506001949350505050565b606060006113db83611461565b600101905060008167ffffffffffffffff8111156113fb576113fb611649565b6040519080825280601f01601f191660200182016040528015611425576020820181803683370190505b5090508181016020015b600019016f181899199a1a9b1b9c1cb0b131b232b360811b600a86061a8153600a850494508461142f57509392505050565b60008072184f03e93ff9f4daa797ed6e38ed64bf6a1f0160401b83106114a05772184f03e93ff9f4daa797ed6e38ed64bf6a1f0160401b830492506040015b6d04ee2d6d415b85acef810000000083106114cc576d04ee2d6d415b85acef8100000000830492506020015b662386f26fc1000083106114ea57662386f26fc10000830492506010015b6305f5e1008310611502576305f5e100830492506008015b612710831061151657612710830492506004015b60648310611528576064830492506002015b600a83106102fe5760010192915050565b6001600160e01b031981168114610b7c57600080fd5b60006020828403121561156157600080fd5b81356112c681611539565b60005b8381101561158757818101518382015260200161156f565b50506000910152565b600081518084526115a881602086016020860161156c565b601f01601f19169290920160200192915050565b6020815260006112c66020830184611590565b6000602082840312156115e157600080fd5b5035919050565b80356001600160a01b03811681146115ff57600080fd5b919050565b6000806040838503121561161757600080fd5b611620836115e8565b946020939093013593505050565b60006020828403121561164057600080fd5b6112c6826115e8565b634e487b7160e01b600052604160045260246000fd5b600067ffffffffffffffff8084111561167a5761167a611649565b604051601f8501601f19908116603f011681019082821181831017156116a2576116a2611649565b816040528093508581528686860111156116bb57600080fd5b858560208301376000602087830101525050509392505050565b600082601f8301126116e657600080fd5b6112c68383356020850161165f565b6000806000806080858703121561170b57600080fd5b611714856115e8565b9350602085013567ffffffffffffffff8082111561173157600080fd5b61173d888389016116d5565b9450604087013591508082111561175357600080fd5b61175f888389016116d5565b9350606087013591508082111561177557600080fd5b50611782878288016116d5565b91505092959194509250565b6000806000606084860312156117a357600080fd5b6117ac846115e8565b92506117ba602085016115e8565b9150604084013590509250925092565b6000806000606084860312156117df57600080fd5b6117e8846115e8565b9250602084013567ffffffffffffffff8082111561180557600080fd5b611811878388016116d5565b9350604086013591508082111561182757600080fd5b50611834868287016116d5565b9150509250925092565b6000806040838503121561185157600080fd5b61185a836115e8565b91506020830135801515811461186f57600080fd5b809150509250929050565b6000806000806080858703121561189057600080fd5b611899856115e8565b93506118a7602086016115e8565b925060408501359150606085013567ffffffffffffffff8111156118ca57600080fd5b8501601f810187136118db57600080fd5b6117828782356020840161165f565b600080604083850312156118fd57600080fd5b611906836115e8565b9150611914602084016115e8565b90509250929050565b600181811c9082168061193157607f821691505b60208210810361195157634e487b7160e01b600052602260045260246000fd5b50919050565b60208082526023908201527f4f6e6c7920666163746f72792063616e2063616c6c20746869732066756e637460408201526234b7b760e91b606082015260800190565b634e487b7160e01b600052601160045260246000fd5b808201808211156102fe576102fe61199a565b601f8211156104d257600081815260208120601f850160051c810160208610156119ea5750805b601f850160051c820191505b81811015611a09578281556001016119f6565b505050505050565b815167ffffffffffffffff811115611a2b57611a2b611649565b611a3f81611a39845461191d565b846119c3565b602080601f831160018114611a745760008415611a5c5750858301515b600019600386901b1c1916600185901b178555611a09565b600085815260208120601f198616915b82811015611aa357888601518255948401946001909101908401611a84565b5085821015611ac15787850151600019600388901b60f8161c191681555b5050505050600190811b01905550565b6020808252602d908201527f4552433732313a2063616c6c6572206973206e6f7420746f6b656e206f776e6560408201526c1c881bdc88185c1c1c9bdd9959609a1b606082015260800190565b60008151611b3081856020860161156c565b9290920192915050565b6803d913730b6b2911d160bd1b8152601160f91b600982018190528551600091906020611b6d82600a8701838c0161156c565b8185019150710111610113232b9b1b934b83a34b7b7111d160751b600a83015282601c830152601d925060008854611ba48161191d565b60018281168015611bbc5760018114611bd557611c05565b60ff198416878901528215158302870188019450611c05565b8c6000528560002060005b84811015611bfb5781548982018b0152908301908701611be0565b5050878388010194505b50505050611c7b611c6d611c67611c37611c4a611c44611c37876b01116101134b6b0b3b2911d160a51b8152600c0190565b601160f91b815260010190565b8d611b1e565b7001116101130ba3a3934b13aba32b9911d1607d1b815260110190565b89611b1e565b61227d60f01b815260020190565b9a9950505050505050505050565b60008251611c9b81846020870161156c565b9190910192915050565b60008351611cb781846020880161156c565b835190830190611ccb81836020880161156c565b01949350505050565b60208082526025908201527f4552433732313a207472616e736665722066726f6d20696e636f72726563742060408201526437bbb732b960d91b606082015260800190565b600082611d3657634e487b7160e01b600052601260045260246000fd5b500490565b80820281158282048414176102fe576102fe61199a565b60208082526032908201527f4552433732313a207472616e7366657220746f206e6f6e20455243373231526560408201527131b2b4bb32b91034b6b83632b6b2b73a32b960711b606082015260800190565b6001600160a01b0385811682528416602082015260408101839052608060608201819052600090611dd790830184611590565b9695505050505050565b600060208284031215611df357600080fd5b81516112c68161153956fe4142434445464748494a4b4c4d4e4f505152535455565758595a6162636465666768696a6b6c6d6e6f707172737475767778797a303132333435363738392b2fa2646970667358221220225093bcee2189e771b930f121eea2d1a8f0399cf8d35f473da5a5cc32fd112564736f6c63430008140033",
  "linkReferences": {},
  "deployedLinkReferences": {}
}