{
  "_format": "hh-sol-artifact-1",
  "contractName": "Avatar",
  "sourceName": "src/avatar/Avatar.sol",
  "abi": [
    {
      "inputs": [
        {
          "internalType": "address",
          "name": "coreController_",
          "type": "address"
        },
        {
          "internalType": "string",
          "name": "name_",
          "type": "string"
        },
        {
          "internalType": "string",
          "name": "symbol_",
          "type": "string"
        }
      ],
      "stateMutability": "nonpayable",
      "type": "constructor"
    },
    {
      "anonymous": false,
      "inputs": [
        {
          "indexed": true,
          "internalType": "address",
          "name": "owner",
          "type": "address"
        },
        {
          "indexed": true,
          "internalType": "address",
          "name": "approved",
          "type": "address"
        },
        {
          "indexed": true,
          "internalType": "uint256",
          "name": "tokenId",
          "type": "uint256"
        }
      ],
      "name": "Approval",
      "type": "event"
    },
    {
      "anonymous": false,
      "inputs": [
        {
          "indexed": true,
          "internalType": "address",
          "name": "owner",
          "type": "address"
        },
        {
          "indexed": true,
          "internalType": "address",
          "name": "operator",
          "type": "address"
        },
        {
          "indexed": false,
          "internalType": "bool",
          "name": "approved",
          "type": "bool"
        }
      ],
      "name": "ApprovalForAll",
      "type": "event"
    },
    {
      "anonymous": false,
      "inputs": [
        {
          "indexed": false,
          "internalType": "uint256",
          "name": "_fromTokenId",
          "type": "uint256"
        },
        {
          "indexed": false,
          "internalType": "uint256",
          "name": "_toTokenId",
          "type": "uint256"
        }
      ],
      "name": "BatchMetadataUpdate",
      "type": "event"
    },
    {
      "anonymous": false,
      "inputs": [
        {
          "indexed": false,
          "internalType": "uint256",
          "name": "_tokenId",
          "type": "uint256"
        }
      ],
      "name": "MetadataUpdate",
      "type": "event"
    },
    {
      "anonymous": false,
      "inputs": [
        {
          "indexed": true,
          "internalType": "address",
          "name": "from",
          "type": "address"
        },
        {
          "indexed": true,
          "internalType": "address",
          "name": "to",
          "type": "address"
        },
        {
          "indexed": true,
          "internalType": "uint256",
          "name": "tokenId",
          "type": "uint256"
        }
      ],
      "name": "Transfer",
      "type": "event"
    },
    {
      "inputs": [
        {
          "internalType": "address",
          "name": "to",
          "type": "address"
        },
        {
          "internalType": "uint256",
          "name": "tokenId",
          "type": "uint256"
        }
      ],
      "name": "approve",
      "outputs": [],
      "stateMutability": "nonpayable",
      "type": "function"
    },
    {
      "inputs": [
        {
          "internalType": "address",
          "name": "",
          "type": "address"
        }
      ],
      "name": "avatarAttributes",
      "outputs": [
        {
          "internalType": "string",
          "name": "",
          "type": "string"
        }
      ],
      "stateMutability": "view",
      "type": "function"
    },
    {
      "inputs": [
        {
          "internalType": "address",
          "name": "owner",
          "type": "address"
        }
      ],
      "name": "balanceOf",
      "outputs": [
        {
          "internalType": "uint256",
          "name": "",
          "type": "uint256"
        }
      ],
      "stateMutability": "view",
      "type": "function"
    },
    {
      "inputs": [
        {
          "internalType": "address",
          "name": "owner_",
          "type": "address"
        },
        {
          "internalType": "string",
          "name": "tokenURI_",
          "type": "string"
        },
        {
          "internalType": "string",
          "name": "description_",
          "type": "string"
        },
        {
          "internalType": "string",
          "name": "userAttributes_",
          "type": "string"
        }
      ],
      "name": "createAvatar",
      "outputs": [],
      "stateMutability": "nonpayable",
      "type": "function"
    },
    {
      "inputs": [],
      "name": "description",
      "outputs": [
        {
          "internalType": "string",
          "name": "",
          "type": "string"
        }
      ],
      "stateMutability": "view",
      "type": "function"
    },
    {
      "inputs": [
        {
          "internalType": "address",
          "name": "user_",
          "type": "address"
        }
      ],
      "name": "fetchUserAvatar",
      "outputs": [
        {
          "internalType": "string",
          "name": "itemMetadata",
          "type": "string"
        }
      ],
      "stateMutability": "view",
      "type": "function"
    },
    {
      "inputs": [
        {
          "internalType": "uint256",
          "name": "tokenId",
          "type": "uint256"
        }
      ],
      "name": "getApproved",
      "outputs": [
        {
          "internalType": "address",
          "name": "",
          "type": "address"
        }
      ],
      "stateMutability": "view",
      "type": "function"
    },
    {
      "inputs": [
        {
          "internalType": "address",
          "name": "owner",
          "type": "address"
        },
        {
          "internalType": "address",
          "name": "operator",
          "type": "address"
        }
      ],
      "name": "isApprovedForAll",
      "outputs": [
        {
          "internalType": "bool",
          "name": "",
          "type": "bool"
        }
      ],
      "stateMutability": "view",
      "type": "function"
    },
    {
      "inputs": [],
      "name": "name",
      "outputs": [
        {
          "internalType": "string",
          "name": "",
          "type": "string"
        }
      ],
      "stateMutability": "view",
      "type": "function"
    },
    {
      "inputs": [
        {
          "internalType": "uint256",
          "name": "tokenId",
          "type": "uint256"
        }
      ],
      "name": "ownerOf",
      "outputs": [
        {
          "internalType": "address",
          "name": "",
          "type": "address"
        }
      ],
      "stateMutability": "view",
      "type": "function"
    },
    {
      "inputs": [
        {
          "internalType": "address",
          "name": "from",
          "type": "address"
        },
        {
          "internalType": "address",
          "name": "to",
          "type": "address"
        },
        {
          "internalType": "uint256",
          "name": "tokenId",
          "type": "uint256"
        }
      ],
      "name": "safeTransferFrom",
      "outputs": [],
      "stateMutability": "nonpayable",
      "type": "function"
    },
    {
      "inputs": [
        {
          "internalType": "address",
          "name": "from",
          "type": "address"
        },
        {
          "internalType": "address",
          "name": "to",
          "type": "address"
        },
        {
          "internalType": "uint256",
          "name": "tokenId",
          "type": "uint256"
        },
        {
          "internalType": "bytes",
          "name": "data",
          "type": "bytes"
        }
      ],
      "name": "safeTransferFrom",
      "outputs": [],
      "stateMutability": "nonpayable",
      "type": "function"
    },
    {
      "inputs": [
        {
          "internalType": "address",
          "name": "operator",
          "type": "address"
        },
        {
          "internalType": "bool",
          "name": "approved",
          "type": "bool"
        }
      ],
      "name": "setApprovalForAll",
      "outputs": [],
      "stateMutability": "nonpayable",
      "type": "function"
    },
    {
      "inputs": [
        {
          "internalType": "bytes4",
          "name": "interfaceId",
          "type": "bytes4"
        }
      ],
      "name": "supportsInterface",
      "outputs": [
        {
          "internalType": "bool",
          "name": "",
          "type": "bool"
        }
      ],
      "stateMutability": "view",
      "type": "function"
    },
    {
      "inputs": [],
      "name": "symbol",
      "outputs": [
        {
          "internalType": "string",
          "name": "",
          "type": "string"
        }
      ],
      "stateMutability": "view",
      "type": "function"
    },
    {
      "inputs": [],
      "name": "tokenId",
      "outputs": [
        {
          "internalType": "uint256",
          "name": "",
          "type": "uint256"
        }
      ],
      "stateMutability": "view",
      "type": "function"
    },
    {
      "inputs": [
        {
          "internalType": "uint256",
          "name": "tokenId",
          "type": "uint256"
        }
      ],
      "name": "tokenURI",
      "outputs": [
        {
          "internalType": "string",
          "name": "",
          "type": "string"
        }
      ],
      "stateMutability": "view",
      "type": "function"
    },
    {
      "inputs": [
        {
          "internalType": "address",
          "name": "from",
          "type": "address"
        },
        {
          "internalType": "address",
          "name": "to",
          "type": "address"
        },
        {
          "internalType": "uint256",
          "name": "tokenId",
          "type": "uint256"
        }
      ],
      "name": "transferFrom",
      "outputs": [],
      "stateMutability": "nonpayable",
      "type": "function"
    },
    {
      "inputs": [
        {
          "internalType": "address",
          "name": "user_",
          "type": "address"
        },
        {
          "internalType": "string",
          "name": "tokenURI_",
          "type": "string"
        },
        {
          "internalType": "string",
          "name": "avatarAttribute_",
          "type": "string"
        }
      ],
      "name": "updateUserAvatarImage",
      "outputs": [],
      "stateMutability": "nonpayable",
      "type": "function"
    },
    {
      "inputs": [
        {
          "internalType": "address",
          "name": "",
          "type": "address"
        }
      ],
      "name": "userMintedToekn",
      "outputs": [
        {
          "internalType": "uint256",
          "name": "",
          "type": "uint256"
        }
      ],
      "stateMutability": "view",
      "type": "function"
    }
  ],
  "bytecode": "0x60a06040523480156200001157600080fd5b50604051620021e6380380620021e683398101604081905262000034916200013a565b8181600062000044838262000253565b50600162000053828262000253565b5050506001600160a01b03909216608052506200031f9050565b634e487b7160e01b600052604160045260246000fd5b600082601f8301126200009557600080fd5b81516001600160401b0380821115620000b257620000b26200006d565b604051601f8301601f19908116603f01168101908282118183101715620000dd57620000dd6200006d565b81604052838152602092508683858801011115620000fa57600080fd5b600091505b838210156200011e5785820183015181830184015290820190620000ff565b83821115620001305760008385830101525b9695505050505050565b6000806000606084860312156200015057600080fd5b83516001600160a01b03811681146200016857600080fd5b60208501519093506001600160401b03808211156200018657600080fd5b620001948783880162000083565b93506040860151915080821115620001ab57600080fd5b50620001ba8682870162000083565b9150509250925092565b600181811c90821680620001d957607f821691505b602082108103620001fa57634e487b7160e01b600052602260045260246000fd5b50919050565b601f8211156200024e57600081815260208120601f850160051c81016020861015620002295750805b601f850160051c820191505b818110156200024a5782815560010162000235565b5050505b505050565b81516001600160401b038111156200026f576200026f6200006d565b6200028781620002808454620001c4565b8462000200565b602080601f831160018114620002bf5760008415620002a65750858301515b600019600386901b1c1916600185901b1785556200024a565b600085815260208120601f198616915b82811015620002f057888601518255948401946001909101908401620002cf565b50858210156200030f5787850151600019600388901b60f8161c191681555b5050505050600190811b01905550565b608051611ea462000342600039600081816105a501526107a80152611ea46000f3fe608060405234801561001057600080fd5b506004361061012c5760003560e01c80636352211e116100ad5780639c6f3ead116100715780639c6f3ead1461027a578063a22cb4651461028d578063b88d4fde146102a0578063c87b56dd146102b3578063e985e9c5146102c657600080fd5b80636352211e1461023157806370a08231146102445780637284e416146102575780638f9a61781461025f57806395d89b411461027257600080fd5b80630f397c46116100f45780630f397c46146101c157806317d70f7c146101d457806323b872dd146101eb5780633d3d3c33146101fe57806342842e0e1461021e57600080fd5b806301ffc9a71461013157806306fdde0314610159578063081812fc1461016e578063095ea7b3146101995780630d620078146101ae575b600080fd5b61014461013f36600461156a565b610302565b60405190151581526020015b60405180910390f35b61016161032d565b60405161015091906115df565b61018161017c3660046115f2565b6103bf565b6040516001600160a01b039091168152602001610150565b6101ac6101a7366004611627565b6103e6565b005b6101616101bc366004611651565b610500565b6101ac6101cf366004611718565b61059a565b6101dd60075481565b604051908152602001610150565b6101ac6101f93660046117b1565b61065e565b6101dd61020c366004611651565b600a6020526000908152604090205481565b6101ac61022c3660046117b1565b61068f565b61018161023f3660046115f2565b6106aa565b6101dd610252366004611651565b61070a565b610161610790565b6101ac61026d3660046117ed565b61079d565b61016161082a565b610161610288366004611651565b610839565b6101ac61029b366004611861565b610971565b6101ac6102ae36600461189d565b610980565b6101616102c13660046115f2565b6109b8565b6101446102d436600461190d565b6001600160a01b03918216600090815260056020908152604080832093909416825291909152205460ff1690565b60006001600160e01b03198216632483248360e11b1480610327575061032782610ac8565b92915050565b60606000805461033c90611940565b80601f016020809104026020016040519081016040528092919081815260200182805461036890611940565b80156103b55780601f1061038a576101008083540402835291602001916103b5565b820191906000526020600020905b81548152906001019060200180831161039857829003601f168201915b5050505050905090565b60006103ca82610b18565b506000908152600460205260409020546001600160a01b031690565b60006103f1826106aa565b9050806001600160a01b0316836001600160a01b0316036104635760405162461bcd60e51b815260206004820152602160248201527f4552433732313a20617070726f76616c20746f2063757272656e74206f776e656044820152603960f91b60648201526084015b60405180910390fd5b336001600160a01b038216148061047f575061047f81336102d4565b6104f15760405162461bcd60e51b815260206004820152603d60248201527f4552433732313a20617070726f76652063616c6c6572206973206e6f7420746f60448201527f6b656e206f776e6572206f7220617070726f76656420666f7220616c6c000000606482015260840161045a565b6104fb8383610b7a565b505050565b6009602052600090815260409020805461051990611940565b80601f016020809104026020016040519081016040528092919081815260200182805461054590611940565b80156105925780601f1061056757610100808354040283529160200191610592565b820191906000526020600020905b81548152906001019060200180831161057557829003601f168201915b505050505081565b336001600160a01b037f000000000000000000000000000000000000000000000000000000000000000016146105e25760405162461bcd60e51b815260040161045a9061197a565b6007546105f09060016119d3565b6007556001600160a01b03841660009081526009602052604090206106158282611a39565b506007546001600160a01b0385166000908152600a6020526040902081905561063f908590610be8565b61064b60075484610d73565b60086106578382611a39565b5050505050565b6106683382610e3e565b6106845760405162461bcd60e51b815260040161045a90611af9565b6104fb838383610ebc565b6104fb83838360405180602001604052806000815250610980565b6000818152600260205260408120546001600160a01b0316806103275760405162461bcd60e51b8152602060048201526018602482015277115490cdcc8c4e881a5b9d985b1a59081d1bdad95b88125160421b604482015260640161045a565b60006001600160a01b0382166107745760405162461bcd60e51b815260206004820152602960248201527f4552433732313a2061646472657373207a65726f206973206e6f7420612076616044820152683634b21037bbb732b960b91b606482015260840161045a565b506001600160a01b031660009081526003602052604090205490565b6008805461051990611940565b336001600160a01b037f000000000000000000000000000000000000000000000000000000000000000016146107e55760405162461bcd60e51b815260040161045a9061197a565b6001600160a01b0383166000908152600a60205260409020546108088184610d73565b6001600160a01b03841660009081526009602052604090206106578382611a39565b60606001805461033c90611940565b6001600160a01b0381166000908152600a602052604081205460609161085e826109b8565b6001600160a01b03851660009081526009602052604081208054929350909161088690611940565b80601f01602080910402602001604051908101604052809291908181526020018280546108b290611940565b80156108ff5780601f106108d4576101008083540402835291602001916108ff565b820191906000526020600020905b8154815290600101906020018083116108e257829003601f168201915b50505050509050600061091061032d565b90506000610943826008868660405160200161092f9493929190611b62565b604051602081830303815290604052611020565b9050806040516020016109569190611cb1565b60405160208183030381529060405295505050505050919050565b61097c338383611173565b5050565b61098a3383610e3e565b6109a65760405162461bcd60e51b815260040161045a90611af9565b6109b284848484611241565b50505050565b60606109c382610b18565b600082815260066020526040812080546109dc90611940565b80601f0160208091040260200160405190810160405280929190818152602001828054610a0890611940565b8015610a555780601f10610a2a57610100808354040283529160200191610a55565b820191906000526020600020905b815481529060010190602001808311610a3857829003601f168201915b505050505090506000610a7360408051602081019091526000815290565b90508051600003610a85575092915050565b815115610ab7578082604051602001610a9f929190611ccd565b60405160208183030381529060405292505050919050565b610ac084611274565b949350505050565b60006001600160e01b031982166380ac58cd60e01b1480610af957506001600160e01b03198216635b5e139f60e01b145b8061032757506301ffc9a760e01b6001600160e01b0319831614610327565b6000818152600260205260409020546001600160a01b0316610b775760405162461bcd60e51b8152602060048201526018602482015277115490cdcc8c4e881a5b9d985b1a59081d1bdad95b88125160421b604482015260640161045a565b50565b600081815260046020526040902080546001600160a01b0319166001600160a01b0384169081179091558190610baf826106aa565b6001600160a01b03167f8c5be1e5ebec7d5bd14f71427d1e84f3dd0314c0f7b2291e5b200ac8c7c3b92560405160405180910390a45050565b6001600160a01b038216610c3e5760405162461bcd60e51b815260206004820181905260248201527f4552433732313a206d696e7420746f20746865207a65726f2061646472657373604482015260640161045a565b6000818152600260205260409020546001600160a01b031615610ca35760405162461bcd60e51b815260206004820152601c60248201527f4552433732313a20746f6b656e20616c7265616479206d696e74656400000000604482015260640161045a565b6000818152600260205260409020546001600160a01b031615610d085760405162461bcd60e51b815260206004820152601c60248201527f4552433732313a20746f6b656e20616c7265616479206d696e74656400000000604482015260640161045a565b6001600160a01b038216600081815260036020908152604080832080546001019055848352600290915280822080546001600160a01b0319168417905551839291907fddf252ad1be2c89b69c2b068fc378daa952ba7f163c4a11628f55a4df523b3ef908290a45050565b6000828152600260205260409020546001600160a01b0316610dee5760405162461bcd60e51b815260206004820152602e60248201527f45524337323155524953746f726167653a2055524920736574206f66206e6f6e60448201526d32bc34b9ba32b73a103a37b5b2b760911b606482015260840161045a565b6000828152600660205260409020610e068282611a39565b506040518281527ff8e1a15aba9398e019f0b49df1a4fde98ee17ae345cb5f6b5e2c27f5033e8ce79060200160405180910390a15050565b600080610e4a836106aa565b9050806001600160a01b0316846001600160a01b03161480610e9157506001600160a01b0380821660009081526005602090815260408083209388168352929052205460ff165b80610ac05750836001600160a01b0316610eaa846103bf565b6001600160a01b031614949350505050565b826001600160a01b0316610ecf826106aa565b6001600160a01b031614610ef55760405162461bcd60e51b815260040161045a90611cfc565b6001600160a01b038216610f575760405162461bcd60e51b8152602060048201526024808201527f4552433732313a207472616e7366657220746f20746865207a65726f206164646044820152637265737360e01b606482015260840161045a565b826001600160a01b0316610f6a826106aa565b6001600160a01b031614610f905760405162461bcd60e51b815260040161045a90611cfc565b600081815260046020908152604080832080546001600160a01b03199081169091556001600160a01b0387811680865260038552838620805460001901905590871680865283862080546001019055868652600290945282852080549092168417909155905184937fddf252ad1be2c89b69c2b068fc378daa952ba7f163c4a11628f55a4df523b3ef91a4505050565b6060815160000361103f57505060408051602081019091526000815290565b6000604051806060016040528060408152602001611e2f604091399050600060038451600261106e91906119d3565b6110789190611d41565b611083906004611d63565b67ffffffffffffffff81111561109b5761109b61166c565b6040519080825280601f01601f1916602001820160405280156110c5576020820181803683370190505b509050600182016020820185865187015b80821015611131576003820191508151603f8160121c168501518453600184019350603f81600c1c168501518453600184019350603f8160061c168501518453600184019350603f81168501518453506001830192506110d6565b505060038651066001811461114d576002811461116057611168565b603d6001830353603d6002830353611168565b603d60018303535b509195945050505050565b816001600160a01b0316836001600160a01b0316036111d45760405162461bcd60e51b815260206004820152601960248201527f4552433732313a20617070726f766520746f2063616c6c657200000000000000604482015260640161045a565b6001600160a01b03838116600081815260056020908152604080832094871680845294825291829020805460ff191686151590811790915591519182527f17307eab39ab6107e8899845ad3d59bd9653f200f220920489ca2b5937696c31910160405180910390a3505050565b61124c848484610ebc565b611258848484846112e8565b6109b25760405162461bcd60e51b815260040161045a90611d82565b606061127f82610b18565b600061129660408051602081019091526000815290565b905060008151116112b657604051806020016040528060008152506112e1565b806112c0846113e9565b6040516020016112d1929190611ccd565b6040516020818303038152906040525b9392505050565b60006001600160a01b0384163b156113de57604051630a85bd0160e11b81526001600160a01b0385169063150b7a029061132c903390899088908890600401611dd4565b6020604051808303816000875af1925050508015611367575060408051601f3d908101601f1916820190925261136491810190611e11565b60015b6113c4573d808015611395576040519150601f19603f3d011682016040523d82523d6000602084013e61139a565b606091505b5080516000036113bc5760405162461bcd60e51b815260040161045a90611d82565b805181602001fd5b6001600160e01b031916630a85bd0160e11b149050610ac0565b506001949350505050565b606060006113f68361147c565b600101905060008167ffffffffffffffff8111156114165761141661166c565b6040519080825280601f01601f191660200182016040528015611440576020820181803683370190505b5090508181016020015b600019016f181899199a1a9b1b9c1cb0b131b232b360811b600a86061a8153600a850494508461144a57509392505050565b60008072184f03e93ff9f4daa797ed6e38ed64bf6a1f0160401b83106114bb5772184f03e93ff9f4daa797ed6e38ed64bf6a1f0160401b830492506040015b6d04ee2d6d415b85acef810000000083106114e7576d04ee2d6d415b85acef8100000000830492506020015b662386f26fc10000831061150557662386f26fc10000830492506010015b6305f5e100831061151d576305f5e100830492506008015b612710831061153157612710830492506004015b60648310611543576064830492506002015b600a83106103275760010192915050565b6001600160e01b031981168114610b7757600080fd5b60006020828403121561157c57600080fd5b81356112e181611554565b60005b838110156115a257818101518382015260200161158a565b838111156109b25750506000910152565b600081518084526115cb816020860160208601611587565b601f01601f19169290920160200192915050565b6020815260006112e160208301846115b3565b60006020828403121561160457600080fd5b5035919050565b80356001600160a01b038116811461162257600080fd5b919050565b6000806040838503121561163a57600080fd5b6116438361160b565b946020939093013593505050565b60006020828403121561166357600080fd5b6112e18261160b565b634e487b7160e01b600052604160045260246000fd5b600067ffffffffffffffff8084111561169d5761169d61166c565b604051601f8501601f19908116603f011681019082821181831017156116c5576116c561166c565b816040528093508581528686860111156116de57600080fd5b858560208301376000602087830101525050509392505050565b600082601f83011261170957600080fd5b6112e183833560208501611682565b6000806000806080858703121561172e57600080fd5b6117378561160b565b9350602085013567ffffffffffffffff8082111561175457600080fd5b611760888389016116f8565b9450604087013591508082111561177657600080fd5b611782888389016116f8565b9350606087013591508082111561179857600080fd5b506117a5878288016116f8565b91505092959194509250565b6000806000606084860312156117c657600080fd5b6117cf8461160b565b92506117dd6020850161160b565b9150604084013590509250925092565b60008060006060848603121561180257600080fd5b61180b8461160b565b9250602084013567ffffffffffffffff8082111561182857600080fd5b611834878388016116f8565b9350604086013591508082111561184a57600080fd5b50611857868287016116f8565b9150509250925092565b6000806040838503121561187457600080fd5b61187d8361160b565b91506020830135801515811461189257600080fd5b809150509250929050565b600080600080608085870312156118b357600080fd5b6118bc8561160b565b93506118ca6020860161160b565b925060408501359150606085013567ffffffffffffffff8111156118ed57600080fd5b8501601f810187136118fe57600080fd5b6117a587823560208401611682565b6000806040838503121561192057600080fd5b6119298361160b565b91506119376020840161160b565b90509250929050565b600181811c9082168061195457607f821691505b60208210810361197457634e487b7160e01b600052602260045260246000fd5b50919050565b60208082526023908201527f4f6e6c7920666163746f72792063616e2063616c6c20746869732066756e637460408201526234b7b760e91b606082015260800190565b634e487b7160e01b600052601160045260246000fd5b600082198211156119e6576119e66119bd565b500190565b601f8211156104fb57600081815260208120601f850160051c81016020861015611a125750805b601f850160051c820191505b81811015611a3157828155600101611a1e565b505050505050565b815167ffffffffffffffff811115611a5357611a5361166c565b611a6781611a618454611940565b846119eb565b602080601f831160018114611a9c5760008415611a845750858301515b600019600386901b1c1916600185901b178555611a31565b600085815260208120601f198616915b82811015611acb57888601518255948401946001909101908401611aac565b5085821015611ae95787850151600019600388901b60f8161c191681555b5050505050600190811b01905550565b6020808252602d908201527f4552433732313a2063616c6c6572206973206e6f7420746f6b656e206f776e6560408201526c1c881bdc88185c1c1c9bdd9959609a1b606082015260800190565b60008151611b58818560208601611587565b9290920192915050565b6803d913730b6b2911d160bd1b8152601160f91b600982018190528551600091906020611b9582600a8701838c01611587565b8185019150710111610113232b9b1b934b83a34b7b7111d160751b600a83015282601c830152601d925060008854611bcc81611940565b60018281168015611be45760018114611bfd57611c2d565b60ff198416878901528215158302870188019450611c2d565b8c6000528560002060005b84811015611c235781548982018b0152908301908701611c08565b5050878388010194505b50505050611ca3611c95611c8f611c5f611c72611c6c611c5f876b01116101134b6b0b3b2911d160a51b8152600c0190565b601160f91b815260010190565b8d611b46565b7001116101130ba3a3934b13aba32b9911d1607d1b815260110190565b89611b46565b61227d60f01b815260020190565b9a9950505050505050505050565b60008251611cc3818460208701611587565b9190910192915050565b60008351611cdf818460208801611587565b835190830190611cf3818360208801611587565b01949350505050565b60208082526025908201527f4552433732313a207472616e736665722066726f6d20696e636f72726563742060408201526437bbb732b960d91b606082015260800190565b600082611d5e57634e487b7160e01b600052601260045260246000fd5b500490565b6000816000190483118215151615611d7d57611d7d6119bd565b500290565b60208082526032908201527f4552433732313a207472616e7366657220746f206e6f6e20455243373231526560408201527131b2b4bb32b91034b6b83632b6b2b73a32b960711b606082015260800190565b6001600160a01b0385811682528416602082015260408101839052608060608201819052600090611e07908301846115b3565b9695505050505050565b600060208284031215611e2357600080fd5b81516112e18161155456fe4142434445464748494a4b4c4d4e4f505152535455565758595a6162636465666768696a6b6c6d6e6f707172737475767778797a303132333435363738392b2fa2646970667358221220649aa803893b114f411e41b21a4317326e15721a18c5f4adaf6c29c09d56705c64736f6c634300080f0033",
  "linkReferences": {},
  "deployedLinkReferences": {}
}