{
  "_format": "hh-sol-artifact-1",
  "contractName": "Item",
  "sourceName": "src/marketplace/Items.sol",
  "abi": [
    {
      "inputs": [
        {
          "internalType": "string",
          "name": "name_",
          "type": "string"
        },
        {
          "internalType": "string",
          "name": "symbol_",
          "type": "string"
        },
        {
          "internalType": "address",
          "name": "coreController_",
          "type": "address"
        }
      ],
      "stateMutability": "nonpayable",
      "type": "constructor"
    },
    {
      "inputs": [],
      "name": "OnlyFactory",
      "type": "error"
    },
    {
      "anonymous": false,
      "inputs": [
        {
          "indexed": true,
          "internalType": "address",
          "name": "owner",
          "type": "address"
        },
        {
          "indexed": true,
          "internalType": "address",
          "name": "approved",
          "type": "address"
        },
        {
          "indexed": true,
          "internalType": "uint256",
          "name": "tokenId",
          "type": "uint256"
        }
      ],
      "name": "Approval",
      "type": "event"
    },
    {
      "anonymous": false,
      "inputs": [
        {
          "indexed": true,
          "internalType": "address",
          "name": "owner",
          "type": "address"
        },
        {
          "indexed": true,
          "internalType": "address",
          "name": "operator",
          "type": "address"
        },
        {
          "indexed": false,
          "internalType": "bool",
          "name": "approved",
          "type": "bool"
        }
      ],
      "name": "ApprovalForAll",
      "type": "event"
    },
    {
      "anonymous": false,
      "inputs": [
        {
          "indexed": false,
          "internalType": "uint256",
          "name": "_fromTokenId",
          "type": "uint256"
        },
        {
          "indexed": false,
          "internalType": "uint256",
          "name": "_toTokenId",
          "type": "uint256"
        }
      ],
      "name": "BatchMetadataUpdate",
      "type": "event"
    },
    {
      "anonymous": false,
      "inputs": [
        {
          "indexed": false,
          "internalType": "uint256",
          "name": "_tokenId",
          "type": "uint256"
        }
      ],
      "name": "MetadataUpdate",
      "type": "event"
    },
    {
      "anonymous": false,
      "inputs": [
        {
          "indexed": true,
          "internalType": "address",
          "name": "from",
          "type": "address"
        },
        {
          "indexed": true,
          "internalType": "address",
          "name": "to",
          "type": "address"
        },
        {
          "indexed": true,
          "internalType": "uint256",
          "name": "tokenId",
          "type": "uint256"
        }
      ],
      "name": "Transfer",
      "type": "event"
    },
    {
      "inputs": [
        {
          "internalType": "address",
          "name": "to",
          "type": "address"
        },
        {
          "internalType": "uint256",
          "name": "tokenId",
          "type": "uint256"
        }
      ],
      "name": "approve",
      "outputs": [],
      "stateMutability": "nonpayable",
      "type": "function"
    },
    {
      "inputs": [
        {
          "internalType": "address",
          "name": "owner",
          "type": "address"
        }
      ],
      "name": "balanceOf",
      "outputs": [
        {
          "internalType": "uint256",
          "name": "",
          "type": "uint256"
        }
      ],
      "stateMutability": "view",
      "type": "function"
    },
    {
      "inputs": [
        {
          "internalType": "address",
          "name": "user_",
          "type": "address"
        },
        {
          "internalType": "uint256",
          "name": "totalSupply_",
          "type": "uint256"
        },
        {
          "internalType": "string",
          "name": "tokenURI_",
          "type": "string"
        },
        {
          "internalType": "string",
          "name": "description_",
          "type": "string"
        }
      ],
      "name": "batchMint",
      "outputs": [],
      "stateMutability": "nonpayable",
      "type": "function"
    },
    {
      "inputs": [],
      "name": "description",
      "outputs": [
        {
          "internalType": "string",
          "name": "",
          "type": "string"
        }
      ],
      "stateMutability": "view",
      "type": "function"
    },
    {
      "inputs": [
        {
          "internalType": "uint256",
          "name": "tokenId_",
          "type": "uint256"
        }
      ],
      "name": "fetchUserItems",
      "outputs": [
        {
          "internalType": "string",
          "name": "itemMetadata",
          "type": "string"
        }
      ],
      "stateMutability": "view",
      "type": "function"
    },
    {
      "inputs": [
        {
          "internalType": "uint256",
          "name": "tokenId",
          "type": "uint256"
        }
      ],
      "name": "getApproved",
      "outputs": [
        {
          "internalType": "address",
          "name": "",
          "type": "address"
        }
      ],
      "stateMutability": "view",
      "type": "function"
    },
    {
      "inputs": [
        {
          "internalType": "address",
          "name": "owner",
          "type": "address"
        },
        {
          "internalType": "address",
          "name": "operator",
          "type": "address"
        }
      ],
      "name": "isApprovedForAll",
      "outputs": [
        {
          "internalType": "bool",
          "name": "",
          "type": "bool"
        }
      ],
      "stateMutability": "view",
      "type": "function"
    },
    {
      "inputs": [],
      "name": "name",
      "outputs": [
        {
          "internalType": "string",
          "name": "",
          "type": "string"
        }
      ],
      "stateMutability": "view",
      "type": "function"
    },
    {
      "inputs": [
        {
          "internalType": "uint256",
          "name": "tokenId",
          "type": "uint256"
        }
      ],
      "name": "ownerOf",
      "outputs": [
        {
          "internalType": "address",
          "name": "",
          "type": "address"
        }
      ],
      "stateMutability": "view",
      "type": "function"
    },
    {
      "inputs": [
        {
          "internalType": "address",
          "name": "from",
          "type": "address"
        },
        {
          "internalType": "address",
          "name": "to",
          "type": "address"
        },
        {
          "internalType": "uint256",
          "name": "tokenId",
          "type": "uint256"
        }
      ],
      "name": "safeTransferFrom",
      "outputs": [],
      "stateMutability": "nonpayable",
      "type": "function"
    },
    {
      "inputs": [
        {
          "internalType": "address",
          "name": "from",
          "type": "address"
        },
        {
          "internalType": "address",
          "name": "to",
          "type": "address"
        },
        {
          "internalType": "uint256",
          "name": "tokenId",
          "type": "uint256"
        },
        {
          "internalType": "bytes",
          "name": "data",
          "type": "bytes"
        }
      ],
      "name": "safeTransferFrom",
      "outputs": [],
      "stateMutability": "nonpayable",
      "type": "function"
    },
    {
      "inputs": [
        {
          "internalType": "address",
          "name": "operator",
          "type": "address"
        },
        {
          "internalType": "bool",
          "name": "approved",
          "type": "bool"
        }
      ],
      "name": "setApprovalForAll",
      "outputs": [],
      "stateMutability": "nonpayable",
      "type": "function"
    },
    {
      "inputs": [
        {
          "internalType": "bytes4",
          "name": "interfaceId",
          "type": "bytes4"
        }
      ],
      "name": "supportsInterface",
      "outputs": [
        {
          "internalType": "bool",
          "name": "",
          "type": "bool"
        }
      ],
      "stateMutability": "view",
      "type": "function"
    },
    {
      "inputs": [],
      "name": "symbol",
      "outputs": [
        {
          "internalType": "string",
          "name": "",
          "type": "string"
        }
      ],
      "stateMutability": "view",
      "type": "function"
    },
    {
      "inputs": [
        {
          "internalType": "uint256",
          "name": "tokenId",
          "type": "uint256"
        }
      ],
      "name": "tokenURI",
      "outputs": [
        {
          "internalType": "string",
          "name": "",
          "type": "string"
        }
      ],
      "stateMutability": "view",
      "type": "function"
    },
    {
      "inputs": [
        {
          "internalType": "address",
          "name": "from",
          "type": "address"
        },
        {
          "internalType": "address",
          "name": "to",
          "type": "address"
        },
        {
          "internalType": "uint256",
          "name": "tokenId",
          "type": "uint256"
        }
      ],
      "name": "transferFrom",
      "outputs": [],
      "stateMutability": "nonpayable",
      "type": "function"
    },
    {
      "inputs": [
        {
          "internalType": "uint256",
          "name": "tokenId_",
          "type": "uint256"
        },
        {
          "internalType": "string",
          "name": "tokenURI_",
          "type": "string"
        }
      ],
      "name": "updateTokenURI",
      "outputs": [],
      "stateMutability": "nonpayable",
      "type": "function"
    }
  ],
  "bytecode": "0x60a06040523480156200001157600080fd5b5060405162001feb38038062001feb833981016040819052620000349162000138565b8282600062000044838262000254565b50600162000053828262000254565b5050506001600160a01b031660805250620003209050565b634e487b7160e01b600052604160045260246000fd5b600082601f8301126200009357600080fd5b81516001600160401b0380821115620000b057620000b06200006b565b604051601f8301601f19908116603f01168101908282118183101715620000db57620000db6200006b565b81604052838152602092508683858801011115620000f857600080fd5b600091505b838210156200011c5785820183015181830184015290820190620000fd565b838211156200012e5760008385830101525b9695505050505050565b6000806000606084860312156200014e57600080fd5b83516001600160401b03808211156200016657600080fd5b620001748783880162000081565b945060208601519150808211156200018b57600080fd5b506200019a8682870162000081565b604086015190935090506001600160a01b0381168114620001ba57600080fd5b809150509250925092565b600181811c90821680620001da57607f821691505b602082108103620001fb57634e487b7160e01b600052602260045260246000fd5b50919050565b601f8211156200024f57600081815260208120601f850160051c810160208610156200022a5750805b601f850160051c820191505b818110156200024b5782815560010162000236565b5050505b505050565b81516001600160401b038111156200027057620002706200006b565b6200028881620002818454620001c5565b8462000201565b602080601f831160018114620002c05760008415620002a75750858301515b600019600386901b1c1916600185901b1785556200024b565b600085815260208120601f198616915b82811015620002f157888601518255948401946001909101908401620002d0565b5085821015620003105787850151600019600388901b60f8161c191681555b5050505050600190811b01905550565b608051611ca862000343600039600081816104ae015261089c0152611ca86000f3fe608060405234801561001057600080fd5b506004361061010b5760003560e01c806370a08231116100a2578063b88d4fde11610071578063b88d4fde1461021d578063c87b56dd14610230578063e0a4528f14610243578063e985e9c514610256578063fb70c5db1461029257600080fd5b806370a08231146101d95780637284e416146101fa57806395d89b4114610202578063a22cb4651461020a57600080fd5b806318e97fd1116100de57806318e97fd11461018d57806323b872dd146101a057806342842e0e146101b35780636352211e146101c657600080fd5b806301ffc9a71461011057806306fdde0314610138578063081812fc1461014d578063095ea7b314610178575b600080fd5b61012361011e3660046113bf565b6102a5565b60405190151581526020015b60405180910390f35b6101406102d0565b60405161012f9190611434565b61016061015b366004611447565b610362565b6040516001600160a01b03909116815260200161012f565b61018b61018636600461147c565b610389565b005b61018b61019b366004611552565b6104a3565b61018b6101ae366004611599565b6104f9565b61018b6101c1366004611599565b61052a565b6101606101d4366004611447565b610545565b6101ec6101e73660046115d5565b6105a5565b60405190815260200161012f565b61014061062b565b6101406106b9565b61018b6102183660046115f0565b6106c8565b61018b61022b36600461162c565b6106d3565b61014061023e366004611447565b61070b565b610140610251366004611447565b61081b565b6101236102643660046116a8565b6001600160a01b03918216600090815260056020908152604080832093909416825291909152205460ff1690565b61018b6102a03660046116db565b610891565b60006001600160e01b03198216632483248360e11b14806102ca57506102ca8261091d565b92915050565b6060600080546102df9061174d565b80601f016020809104026020016040519081016040528092919081815260200182805461030b9061174d565b80156103585780601f1061032d57610100808354040283529160200191610358565b820191906000526020600020905b81548152906001019060200180831161033b57829003601f168201915b5050505050905090565b600061036d8261096d565b506000908152600460205260409020546001600160a01b031690565b600061039482610545565b9050806001600160a01b0316836001600160a01b0316036104065760405162461bcd60e51b815260206004820152602160248201527f4552433732313a20617070726f76616c20746f2063757272656e74206f776e656044820152603960f91b60648201526084015b60405180910390fd5b336001600160a01b038216148061042257506104228133610264565b6104945760405162461bcd60e51b815260206004820152603d60248201527f4552433732313a20617070726f76652063616c6c6572206973206e6f7420746f60448201527f6b656e206f776e6572206f7220617070726f76656420666f7220616c6c00000060648201526084016103fd565b61049e83836109cf565b505050565b336001600160a01b037f000000000000000000000000000000000000000000000000000000000000000016146104eb5760405162461bcd60e51b81526004016103fd90611787565b6104f58282610a3d565b5050565b6105033382610b08565b61051f5760405162461bcd60e51b81526004016103fd906117d5565b61049e838383610b86565b61049e838383604051806020016040528060008152506106d3565b6000818152600260205260408120546001600160a01b0316806102ca5760405162461bcd60e51b8152602060048201526018602482015277115490cdcc8c4e881a5b9d985b1a59081d1bdad95b88125160421b60448201526064016103fd565b60006001600160a01b03821661060f5760405162461bcd60e51b815260206004820152602960248201527f4552433732313a2061646472657373207a65726f206973206e6f7420612076616044820152683634b21037bbb732b960b91b60648201526084016103fd565b506001600160a01b031660009081526003602052604090205490565b600780546106389061174d565b80601f01602080910402602001604051908101604052809291908181526020018280546106649061174d565b80156106b15780601f10610686576101008083540402835291602001916106b1565b820191906000526020600020905b81548152906001019060200180831161069457829003601f168201915b505050505081565b6060600180546102df9061174d565b6104f5338383610cea565b6106dd3383610b08565b6106f95760405162461bcd60e51b81526004016103fd906117d5565b61070584848484610db8565b50505050565b60606107168261096d565b6000828152600660205260408120805461072f9061174d565b80601f016020809104026020016040519081016040528092919081815260200182805461075b9061174d565b80156107a85780601f1061077d576101008083540402835291602001916107a8565b820191906000526020600020905b81548152906001019060200180831161078b57829003601f168201915b5050505050905060006107c660408051602081019091526000815290565b905080516000036107d8575092915050565b81511561080a5780826040516020016107f292919061183e565b60405160208183030381529060405292505050919050565b61081384610deb565b949350505050565b606060006108288361070b565b905060006108346102d0565b90506000610865826007856040516020016108519392919061186d565b604051602081830303815290604052610e5f565b905080604051602001610878919061198f565b6040516020818303038152906040529350505050919050565b336001600160a01b037f000000000000000000000000000000000000000000000000000000000000000016146108d95760405162461bcd60e51b81526004016103fd90611787565b60076108e582826119f9565b5060015b838111610916576108fa8582610fb2565b6109048184610a3d565b8061090e81611acf565b9150506108e9565b5050505050565b60006001600160e01b031982166380ac58cd60e01b148061094e57506001600160e01b03198216635b5e139f60e01b145b806102ca57506301ffc9a760e01b6001600160e01b03198316146102ca565b6000818152600260205260409020546001600160a01b03166109cc5760405162461bcd60e51b8152602060048201526018602482015277115490cdcc8c4e881a5b9d985b1a59081d1bdad95b88125160421b60448201526064016103fd565b50565b600081815260046020526040902080546001600160a01b0319166001600160a01b0384169081179091558190610a0482610545565b6001600160a01b03167f8c5be1e5ebec7d5bd14f71427d1e84f3dd0314c0f7b2291e5b200ac8c7c3b92560405160405180910390a45050565b6000828152600260205260409020546001600160a01b0316610ab85760405162461bcd60e51b815260206004820152602e60248201527f45524337323155524953746f726167653a2055524920736574206f66206e6f6e60448201526d32bc34b9ba32b73a103a37b5b2b760911b60648201526084016103fd565b6000828152600660205260409020610ad082826119f9565b506040518281527ff8e1a15aba9398e019f0b49df1a4fde98ee17ae345cb5f6b5e2c27f5033e8ce79060200160405180910390a15050565b600080610b1483610545565b9050806001600160a01b0316846001600160a01b03161480610b5b57506001600160a01b0380821660009081526005602090815260408083209388168352929052205460ff165b806108135750836001600160a01b0316610b7484610362565b6001600160a01b031614949350505050565b826001600160a01b0316610b9982610545565b6001600160a01b031614610bbf5760405162461bcd60e51b81526004016103fd90611ae8565b6001600160a01b038216610c215760405162461bcd60e51b8152602060048201526024808201527f4552433732313a207472616e7366657220746f20746865207a65726f206164646044820152637265737360e01b60648201526084016103fd565b826001600160a01b0316610c3482610545565b6001600160a01b031614610c5a5760405162461bcd60e51b81526004016103fd90611ae8565b600081815260046020908152604080832080546001600160a01b03199081169091556001600160a01b0387811680865260038552838620805460001901905590871680865283862080546001019055868652600290945282852080549092168417909155905184937fddf252ad1be2c89b69c2b068fc378daa952ba7f163c4a11628f55a4df523b3ef91a4505050565b816001600160a01b0316836001600160a01b031603610d4b5760405162461bcd60e51b815260206004820152601960248201527f4552433732313a20617070726f766520746f2063616c6c65720000000000000060448201526064016103fd565b6001600160a01b03838116600081815260056020908152604080832094871680845294825291829020805460ff191686151590811790915591519182527f17307eab39ab6107e8899845ad3d59bd9653f200f220920489ca2b5937696c31910160405180910390a3505050565b610dc3848484610b86565b610dcf8484848461113d565b6107055760405162461bcd60e51b81526004016103fd90611b2d565b6060610df68261096d565b6000610e0d60408051602081019091526000815290565b90506000815111610e2d5760405180602001604052806000815250610e58565b80610e378461123e565b604051602001610e4892919061183e565b6040516020818303038152906040525b9392505050565b60608151600003610e7e57505060408051602081019091526000815290565b6000604051806060016040528060408152602001611c336040913990506000600384516002610ead9190611b7f565b610eb79190611b97565b610ec2906004611bb9565b67ffffffffffffffff811115610eda57610eda6114a6565b6040519080825280601f01601f191660200182016040528015610f04576020820181803683370190505b509050600182016020820185865187015b80821015610f70576003820191508151603f8160121c168501518453600184019350603f81600c1c168501518453600184019350603f8160061c168501518453600184019350603f8116850151845350600183019250610f15565b5050600386510660018114610f8c5760028114610f9f57610fa7565b603d6001830353603d6002830353610fa7565b603d60018303535b509195945050505050565b6001600160a01b0382166110085760405162461bcd60e51b815260206004820181905260248201527f4552433732313a206d696e7420746f20746865207a65726f206164647265737360448201526064016103fd565b6000818152600260205260409020546001600160a01b03161561106d5760405162461bcd60e51b815260206004820152601c60248201527f4552433732313a20746f6b656e20616c7265616479206d696e7465640000000060448201526064016103fd565b6000818152600260205260409020546001600160a01b0316156110d25760405162461bcd60e51b815260206004820152601c60248201527f4552433732313a20746f6b656e20616c7265616479206d696e7465640000000060448201526064016103fd565b6001600160a01b038216600081815260036020908152604080832080546001019055848352600290915280822080546001600160a01b0319168417905551839291907fddf252ad1be2c89b69c2b068fc378daa952ba7f163c4a11628f55a4df523b3ef908290a45050565b60006001600160a01b0384163b1561123357604051630a85bd0160e11b81526001600160a01b0385169063150b7a0290611181903390899088908890600401611bd8565b6020604051808303816000875af19250505080156111bc575060408051601f3d908101601f191682019092526111b991810190611c15565b60015b611219573d8080156111ea576040519150601f19603f3d011682016040523d82523d6000602084013e6111ef565b606091505b5080516000036112115760405162461bcd60e51b81526004016103fd90611b2d565b805181602001fd5b6001600160e01b031916630a85bd0160e11b149050610813565b506001949350505050565b6060600061124b836112d1565b600101905060008167ffffffffffffffff81111561126b5761126b6114a6565b6040519080825280601f01601f191660200182016040528015611295576020820181803683370190505b5090508181016020015b600019016f181899199a1a9b1b9c1cb0b131b232b360811b600a86061a8153600a850494508461129f57509392505050565b60008072184f03e93ff9f4daa797ed6e38ed64bf6a1f0160401b83106113105772184f03e93ff9f4daa797ed6e38ed64bf6a1f0160401b830492506040015b6d04ee2d6d415b85acef8100000000831061133c576d04ee2d6d415b85acef8100000000830492506020015b662386f26fc10000831061135a57662386f26fc10000830492506010015b6305f5e1008310611372576305f5e100830492506008015b612710831061138657612710830492506004015b60648310611398576064830492506002015b600a83106102ca5760010192915050565b6001600160e01b0319811681146109cc57600080fd5b6000602082840312156113d157600080fd5b8135610e58816113a9565b60005b838110156113f75781810151838201526020016113df565b838111156107055750506000910152565b600081518084526114208160208601602086016113dc565b601f01601f19169290920160200192915050565b602081526000610e586020830184611408565b60006020828403121561145957600080fd5b5035919050565b80356001600160a01b038116811461147757600080fd5b919050565b6000806040838503121561148f57600080fd5b61149883611460565b946020939093013593505050565b634e487b7160e01b600052604160045260246000fd5b600067ffffffffffffffff808411156114d7576114d76114a6565b604051601f8501601f19908116603f011681019082821181831017156114ff576114ff6114a6565b8160405280935085815286868601111561151857600080fd5b858560208301376000602087830101525050509392505050565b600082601f83011261154357600080fd5b610e58838335602085016114bc565b6000806040838503121561156557600080fd5b82359150602083013567ffffffffffffffff81111561158357600080fd5b61158f85828601611532565b9150509250929050565b6000806000606084860312156115ae57600080fd5b6115b784611460565b92506115c560208501611460565b9150604084013590509250925092565b6000602082840312156115e757600080fd5b610e5882611460565b6000806040838503121561160357600080fd5b61160c83611460565b91506020830135801515811461162157600080fd5b809150509250929050565b6000806000806080858703121561164257600080fd5b61164b85611460565b935061165960208601611460565b925060408501359150606085013567ffffffffffffffff81111561167c57600080fd5b8501601f8101871361168d57600080fd5b61169c878235602084016114bc565b91505092959194509250565b600080604083850312156116bb57600080fd5b6116c483611460565b91506116d260208401611460565b90509250929050565b600080600080608085870312156116f157600080fd5b6116fa85611460565b935060208501359250604085013567ffffffffffffffff8082111561171e57600080fd5b61172a88838901611532565b9350606087013591508082111561174057600080fd5b5061169c87828801611532565b600181811c9082168061176157607f821691505b60208210810361178157634e487b7160e01b600052602260045260246000fd5b50919050565b6020808252602e908201527f4f6e6c79466163746f72793a2043616c6c6572206973206e6f7420746865206360408201526d37b9329031b7b73a3937b63632b960911b606082015260800190565b6020808252602d908201527f4552433732313a2063616c6c6572206973206e6f7420746f6b656e206f776e6560408201526c1c881bdc88185c1c1c9bdd9959609a1b606082015260800190565b600081516118348185602086016113dc565b9290920192915050565b600083516118508184602088016113dc565b8351908301906118648183602088016113dc565b01949350505050565b6803d913730b6b2911d160bd1b8152601160f91b6009820181905284516000919060206118a082600a8701838b016113dc565b8185019150710111610113232b9b1b934b83a34b7b7111d160751b600a83015282601c830152601d9250600087546118d78161174d565b600182811680156118ef576001811461190857611938565b60ff198416878901528215158302870188019450611938565b8b6000528560002060005b8481101561192e5781548982018b0152908301908701611913565b5050878388010194505b5050505061198261197461196e611961846b01116101134b6b0b3b2911d160a51b8152600c0190565b601160f91b815260010190565b89611822565b61227d60f01b815260020190565b9998505050505050505050565b600082516119a18184602087016113dc565b9190910192915050565b601f82111561049e57600081815260208120601f850160051c810160208610156119d25750805b601f850160051c820191505b818110156119f1578281556001016119de565b505050505050565b815167ffffffffffffffff811115611a1357611a136114a6565b611a2781611a21845461174d565b846119ab565b602080601f831160018114611a5c5760008415611a445750858301515b600019600386901b1c1916600185901b1785556119f1565b600085815260208120601f198616915b82811015611a8b57888601518255948401946001909101908401611a6c565b5085821015611aa95787850151600019600388901b60f8161c191681555b5050505050600190811b01905550565b634e487b7160e01b600052601160045260246000fd5b600060018201611ae157611ae1611ab9565b5060010190565b60208082526025908201527f4552433732313a207472616e736665722066726f6d20696e636f72726563742060408201526437bbb732b960d91b606082015260800190565b60208082526032908201527f4552433732313a207472616e7366657220746f206e6f6e20455243373231526560408201527131b2b4bb32b91034b6b83632b6b2b73a32b960711b606082015260800190565b60008219821115611b9257611b92611ab9565b500190565b600082611bb457634e487b7160e01b600052601260045260246000fd5b500490565b6000816000190483118215151615611bd357611bd3611ab9565b500290565b6001600160a01b0385811682528416602082015260408101839052608060608201819052600090611c0b90830184611408565b9695505050505050565b600060208284031215611c2757600080fd5b8151610e58816113a956fe4142434445464748494a4b4c4d4e4f505152535455565758595a6162636465666768696a6b6c6d6e6f707172737475767778797a303132333435363738392b2fa264697066735822122041e8d5566b48e1519e44a92895e8246d0e2c267daaf07dadd3679b88a6ae8df864736f6c634300080f0033",
  "linkReferences": {},
  "deployedLinkReferences": {}
}