{
  "_format": "hh-sol-artifact-1",
  "contractName": "Item",
  "sourceName": "src/marketplace/Items.sol",
  "abi": [
    {
      "inputs": [
        {
          "internalType": "string",
          "name": "name_",
          "type": "string"
        },
        {
          "internalType": "string",
          "name": "symbol_",
          "type": "string"
        },
        {
          "internalType": "address",
          "name": "coreController_",
          "type": "address"
        }
      ],
      "stateMutability": "nonpayable",
      "type": "constructor"
    },
    {
      "inputs": [],
      "name": "OnlyFactory",
      "type": "error"
    },
    {
      "anonymous": false,
      "inputs": [
        {
          "indexed": true,
          "internalType": "address",
          "name": "owner",
          "type": "address"
        },
        {
          "indexed": true,
          "internalType": "address",
          "name": "approved",
          "type": "address"
        },
        {
          "indexed": true,
          "internalType": "uint256",
          "name": "tokenId",
          "type": "uint256"
        }
      ],
      "name": "Approval",
      "type": "event"
    },
    {
      "anonymous": false,
      "inputs": [
        {
          "indexed": true,
          "internalType": "address",
          "name": "owner",
          "type": "address"
        },
        {
          "indexed": true,
          "internalType": "address",
          "name": "operator",
          "type": "address"
        },
        {
          "indexed": false,
          "internalType": "bool",
          "name": "approved",
          "type": "bool"
        }
      ],
      "name": "ApprovalForAll",
      "type": "event"
    },
    {
      "anonymous": false,
      "inputs": [
        {
          "indexed": false,
          "internalType": "uint256",
          "name": "_fromTokenId",
          "type": "uint256"
        },
        {
          "indexed": false,
          "internalType": "uint256",
          "name": "_toTokenId",
          "type": "uint256"
        }
      ],
      "name": "BatchMetadataUpdate",
      "type": "event"
    },
    {
      "anonymous": false,
      "inputs": [
        {
          "indexed": false,
          "internalType": "uint256",
          "name": "_tokenId",
          "type": "uint256"
        }
      ],
      "name": "MetadataUpdate",
      "type": "event"
    },
    {
      "anonymous": false,
      "inputs": [
        {
          "indexed": true,
          "internalType": "address",
          "name": "from",
          "type": "address"
        },
        {
          "indexed": true,
          "internalType": "address",
          "name": "to",
          "type": "address"
        },
        {
          "indexed": true,
          "internalType": "uint256",
          "name": "tokenId",
          "type": "uint256"
        }
      ],
      "name": "Transfer",
      "type": "event"
    },
    {
      "inputs": [
        {
          "internalType": "address",
          "name": "to",
          "type": "address"
        },
        {
          "internalType": "uint256",
          "name": "tokenId",
          "type": "uint256"
        }
      ],
      "name": "approve",
      "outputs": [],
      "stateMutability": "nonpayable",
      "type": "function"
    },
    {
      "inputs": [
        {
          "internalType": "address",
          "name": "owner",
          "type": "address"
        }
      ],
      "name": "balanceOf",
      "outputs": [
        {
          "internalType": "uint256",
          "name": "",
          "type": "uint256"
        }
      ],
      "stateMutability": "view",
      "type": "function"
    },
    {
      "inputs": [
        {
          "internalType": "address",
          "name": "user_",
          "type": "address"
        },
        {
          "internalType": "uint256",
          "name": "totalSupply_",
          "type": "uint256"
        },
        {
          "internalType": "string",
          "name": "tokenURI_",
          "type": "string"
        },
        {
          "internalType": "string",
          "name": "description_",
          "type": "string"
        }
      ],
      "name": "batchMint",
      "outputs": [],
      "stateMutability": "nonpayable",
      "type": "function"
    },
    {
      "inputs": [],
      "name": "description",
      "outputs": [
        {
          "internalType": "string",
          "name": "",
          "type": "string"
        }
      ],
      "stateMutability": "view",
      "type": "function"
    },
    {
      "inputs": [
        {
          "internalType": "uint256",
          "name": "tokenId_",
          "type": "uint256"
        }
      ],
      "name": "fetchUserItems",
      "outputs": [
        {
          "internalType": "string",
          "name": "itemMetadata",
          "type": "string"
        }
      ],
      "stateMutability": "view",
      "type": "function"
    },
    {
      "inputs": [
        {
          "internalType": "uint256",
          "name": "tokenId",
          "type": "uint256"
        }
      ],
      "name": "getApproved",
      "outputs": [
        {
          "internalType": "address",
          "name": "",
          "type": "address"
        }
      ],
      "stateMutability": "view",
      "type": "function"
    },
    {
      "inputs": [
        {
          "internalType": "address",
          "name": "owner",
          "type": "address"
        },
        {
          "internalType": "address",
          "name": "operator",
          "type": "address"
        }
      ],
      "name": "isApprovedForAll",
      "outputs": [
        {
          "internalType": "bool",
          "name": "",
          "type": "bool"
        }
      ],
      "stateMutability": "view",
      "type": "function"
    },
    {
      "inputs": [],
      "name": "name",
      "outputs": [
        {
          "internalType": "string",
          "name": "",
          "type": "string"
        }
      ],
      "stateMutability": "view",
      "type": "function"
    },
    {
      "inputs": [
        {
          "internalType": "uint256",
          "name": "tokenId",
          "type": "uint256"
        }
      ],
      "name": "ownerOf",
      "outputs": [
        {
          "internalType": "address",
          "name": "",
          "type": "address"
        }
      ],
      "stateMutability": "view",
      "type": "function"
    },
    {
      "inputs": [
        {
          "internalType": "address",
          "name": "from",
          "type": "address"
        },
        {
          "internalType": "address",
          "name": "to",
          "type": "address"
        },
        {
          "internalType": "uint256",
          "name": "tokenId",
          "type": "uint256"
        }
      ],
      "name": "safeTransferFrom",
      "outputs": [],
      "stateMutability": "nonpayable",
      "type": "function"
    },
    {
      "inputs": [
        {
          "internalType": "address",
          "name": "from",
          "type": "address"
        },
        {
          "internalType": "address",
          "name": "to",
          "type": "address"
        },
        {
          "internalType": "uint256",
          "name": "tokenId",
          "type": "uint256"
        },
        {
          "internalType": "bytes",
          "name": "data",
          "type": "bytes"
        }
      ],
      "name": "safeTransferFrom",
      "outputs": [],
      "stateMutability": "nonpayable",
      "type": "function"
    },
    {
      "inputs": [
        {
          "internalType": "address",
          "name": "operator",
          "type": "address"
        },
        {
          "internalType": "bool",
          "name": "approved",
          "type": "bool"
        }
      ],
      "name": "setApprovalForAll",
      "outputs": [],
      "stateMutability": "nonpayable",
      "type": "function"
    },
    {
      "inputs": [
        {
          "internalType": "bytes4",
          "name": "interfaceId",
          "type": "bytes4"
        }
      ],
      "name": "supportsInterface",
      "outputs": [
        {
          "internalType": "bool",
          "name": "",
          "type": "bool"
        }
      ],
      "stateMutability": "view",
      "type": "function"
    },
    {
      "inputs": [],
      "name": "symbol",
      "outputs": [
        {
          "internalType": "string",
          "name": "",
          "type": "string"
        }
      ],
      "stateMutability": "view",
      "type": "function"
    },
    {
      "inputs": [
        {
          "internalType": "uint256",
          "name": "tokenId",
          "type": "uint256"
        }
      ],
      "name": "tokenURI",
      "outputs": [
        {
          "internalType": "string",
          "name": "",
          "type": "string"
        }
      ],
      "stateMutability": "view",
      "type": "function"
    },
    {
      "inputs": [
        {
          "internalType": "address",
          "name": "from",
          "type": "address"
        },
        {
          "internalType": "address",
          "name": "to",
          "type": "address"
        },
        {
          "internalType": "uint256",
          "name": "tokenId",
          "type": "uint256"
        }
      ],
      "name": "transferFrom",
      "outputs": [],
      "stateMutability": "nonpayable",
      "type": "function"
    },
    {
      "inputs": [
        {
          "internalType": "uint256",
          "name": "tokenId_",
          "type": "uint256"
        },
        {
          "internalType": "string",
          "name": "tokenURI_",
          "type": "string"
        }
      ],
      "name": "updateTokenURI",
      "outputs": [],
      "stateMutability": "nonpayable",
      "type": "function"
    }
  ],
  "bytecode": "0x60a06040523480156200001157600080fd5b5060405162001fb338038062001fb3833981016040819052620000349162000130565b828260006200004483826200024c565b5060016200005382826200024c565b5050506001600160a01b031660805250620003189050565b634e487b7160e01b600052604160045260246000fd5b600082601f8301126200009357600080fd5b81516001600160401b0380821115620000b057620000b06200006b565b604051601f8301601f19908116603f01168101908282118183101715620000db57620000db6200006b565b81604052838152602092508683858801011115620000f857600080fd5b600091505b838210156200011c5785820183015181830184015290820190620000fd565b600093810190920192909252949350505050565b6000806000606084860312156200014657600080fd5b83516001600160401b03808211156200015e57600080fd5b6200016c8783880162000081565b945060208601519150808211156200018357600080fd5b50620001928682870162000081565b604086015190935090506001600160a01b0381168114620001b257600080fd5b809150509250925092565b600181811c90821680620001d257607f821691505b602082108103620001f357634e487b7160e01b600052602260045260246000fd5b50919050565b601f8211156200024757600081815260208120601f850160051c81016020861015620002225750805b601f850160051c820191505b8181101562000243578281556001016200022e565b5050505b505050565b81516001600160401b038111156200026857620002686200006b565b6200028081620002798454620001bd565b84620001f9565b602080601f831160018114620002b857600084156200029f5750858301515b600019600386901b1c1916600185901b17855562000243565b600085815260208120601f198616915b82811015620002e957888601518255948401946001909101908401620002c8565b5085821015620003085787850151600019600388901b60f8161c191681555b5050505050600190811b01905550565b608051611c786200033b6000396000818161048501526108a10152611c786000f3fe608060405234801561001057600080fd5b506004361061010b5760003560e01c806370a08231116100a2578063b88d4fde11610071578063b88d4fde1461021d578063c87b56dd14610230578063e0a4528f14610243578063e985e9c514610256578063fb70c5db1461026957600080fd5b806370a08231146101d95780637284e416146101fa57806395d89b4114610202578063a22cb4651461020a57600080fd5b806318e97fd1116100de57806318e97fd11461018d57806323b872dd146101a057806342842e0e146101b35780636352211e146101c657600080fd5b806301ffc9a71461011057806306fdde0314610138578063081812fc1461014d578063095ea7b314610178575b600080fd5b61012361011e3660046113a4565b61027c565b60405190151581526020015b60405180910390f35b6101406102a7565b60405161012f9190611411565b61016061015b366004611424565b610339565b6040516001600160a01b03909116815260200161012f565b61018b610186366004611459565b610360565b005b61018b61019b36600461152f565b61047a565b61018b6101ae366004611576565b6104d0565b61018b6101c1366004611576565b610501565b6101606101d4366004611424565b61051c565b6101ec6101e73660046115b2565b61057c565b60405190815260200161012f565b610140610602565b610140610690565b61018b6102183660046115cd565b61069f565b61018b61022b366004611609565b6106aa565b61014061023e366004611424565b6106e2565b610140610251366004611424565b6107f2565b610123610264366004611685565b610868565b61018b6102773660046116b8565b610896565b60006001600160e01b03198216632483248360e11b14806102a157506102a182610922565b92915050565b6060600080546102b69061172a565b80601f01602080910402602001604051908101604052809291908181526020018280546102e29061172a565b801561032f5780601f106103045761010080835404028352916020019161032f565b820191906000526020600020905b81548152906001019060200180831161031257829003601f168201915b5050505050905090565b600061034482610972565b506000908152600460205260409020546001600160a01b031690565b600061036b8261051c565b9050806001600160a01b0316836001600160a01b0316036103dd5760405162461bcd60e51b815260206004820152602160248201527f4552433732313a20617070726f76616c20746f2063757272656e74206f776e656044820152603960f91b60648201526084015b60405180910390fd5b336001600160a01b03821614806103f957506103f98133610868565b61046b5760405162461bcd60e51b815260206004820152603d60248201527f4552433732313a20617070726f76652063616c6c6572206973206e6f7420746f60448201527f6b656e206f776e6572206f7220617070726f76656420666f7220616c6c00000060648201526084016103d4565b61047583836109d4565b505050565b336001600160a01b037f000000000000000000000000000000000000000000000000000000000000000016146104c25760405162461bcd60e51b81526004016103d490611764565b6104cc8282610a42565b5050565b6104da3382610b0d565b6104f65760405162461bcd60e51b81526004016103d4906117b2565b610475838383610b6b565b610475838383604051806020016040528060008152506106aa565b6000818152600260205260408120546001600160a01b0316806102a15760405162461bcd60e51b8152602060048201526018602482015277115490cdcc8c4e881a5b9d985b1a59081d1bdad95b88125160421b60448201526064016103d4565b60006001600160a01b0382166105e65760405162461bcd60e51b815260206004820152602960248201527f4552433732313a2061646472657373207a65726f206973206e6f7420612076616044820152683634b21037bbb732b960b91b60648201526084016103d4565b506001600160a01b031660009081526003602052604090205490565b6007805461060f9061172a565b80601f016020809104026020016040519081016040528092919081815260200182805461063b9061172a565b80156106885780601f1061065d57610100808354040283529160200191610688565b820191906000526020600020905b81548152906001019060200180831161066b57829003601f168201915b505050505081565b6060600180546102b69061172a565b6104cc338383610ccf565b6106b43383610b0d565b6106d05760405162461bcd60e51b81526004016103d4906117b2565b6106dc84848484610d9d565b50505050565b60606106ed82610972565b600082815260066020526040812080546107069061172a565b80601f01602080910402602001604051908101604052809291908181526020018280546107329061172a565b801561077f5780601f106107545761010080835404028352916020019161077f565b820191906000526020600020905b81548152906001019060200180831161076257829003601f168201915b50505050509050600061079d60408051602081019091526000815290565b905080516000036107af575092915050565b8151156107e15780826040516020016107c992919061181b565b60405160208183030381529060405292505050919050565b6107ea84610dd0565b949350505050565b606060006107ff836106e2565b9050600061080b6102a7565b9050600061083c826007856040516020016108289392919061184a565b604051602081830303815290604052610e44565b90508060405160200161084f919061196c565b6040516020818303038152906040529350505050919050565b6001600160a01b03918216600090815260056020908152604080832093909416825291909152205460ff1690565b336001600160a01b037f000000000000000000000000000000000000000000000000000000000000000016146108de5760405162461bcd60e51b81526004016103d490611764565b60076108ea82826119d6565b5060015b83811161091b576108ff8582610f97565b6109098184610a42565b8061091381611aac565b9150506108ee565b5050505050565b60006001600160e01b031982166380ac58cd60e01b148061095357506001600160e01b03198216635b5e139f60e01b145b806102a157506301ffc9a760e01b6001600160e01b03198316146102a1565b6000818152600260205260409020546001600160a01b03166109d15760405162461bcd60e51b8152602060048201526018602482015277115490cdcc8c4e881a5b9d985b1a59081d1bdad95b88125160421b60448201526064016103d4565b50565b600081815260046020526040902080546001600160a01b0319166001600160a01b0384169081179091558190610a098261051c565b6001600160a01b03167f8c5be1e5ebec7d5bd14f71427d1e84f3dd0314c0f7b2291e5b200ac8c7c3b92560405160405180910390a45050565b6000828152600260205260409020546001600160a01b0316610abd5760405162461bcd60e51b815260206004820152602e60248201527f45524337323155524953746f726167653a2055524920736574206f66206e6f6e60448201526d32bc34b9ba32b73a103a37b5b2b760911b60648201526084016103d4565b6000828152600660205260409020610ad582826119d6565b506040518281527ff8e1a15aba9398e019f0b49df1a4fde98ee17ae345cb5f6b5e2c27f5033e8ce79060200160405180910390a15050565b600080610b198361051c565b9050806001600160a01b0316846001600160a01b03161480610b405750610b408185610868565b806107ea5750836001600160a01b0316610b5984610339565b6001600160a01b031614949350505050565b826001600160a01b0316610b7e8261051c565b6001600160a01b031614610ba45760405162461bcd60e51b81526004016103d490611ac5565b6001600160a01b038216610c065760405162461bcd60e51b8152602060048201526024808201527f4552433732313a207472616e7366657220746f20746865207a65726f206164646044820152637265737360e01b60648201526084016103d4565b826001600160a01b0316610c198261051c565b6001600160a01b031614610c3f5760405162461bcd60e51b81526004016103d490611ac5565b600081815260046020908152604080832080546001600160a01b03199081169091556001600160a01b0387811680865260038552838620805460001901905590871680865283862080546001019055868652600290945282852080549092168417909155905184937fddf252ad1be2c89b69c2b068fc378daa952ba7f163c4a11628f55a4df523b3ef91a4505050565b816001600160a01b0316836001600160a01b031603610d305760405162461bcd60e51b815260206004820152601960248201527f4552433732313a20617070726f766520746f2063616c6c65720000000000000060448201526064016103d4565b6001600160a01b03838116600081815260056020908152604080832094871680845294825291829020805460ff191686151590811790915591519182527f17307eab39ab6107e8899845ad3d59bd9653f200f220920489ca2b5937696c31910160405180910390a3505050565b610da8848484610b6b565b610db484848484611122565b6106dc5760405162461bcd60e51b81526004016103d490611b0a565b6060610ddb82610972565b6000610df260408051602081019091526000815290565b90506000815111610e125760405180602001604052806000815250610e3d565b80610e1c84611223565b604051602001610e2d92919061181b565b6040516020818303038152906040525b9392505050565b60608151600003610e6357505060408051602081019091526000815290565b6000604051806060016040528060408152602001611c036040913990506000600384516002610e929190611b5c565b610e9c9190611b6f565b610ea7906004611b91565b67ffffffffffffffff811115610ebf57610ebf611483565b6040519080825280601f01601f191660200182016040528015610ee9576020820181803683370190505b509050600182016020820185865187015b80821015610f55576003820191508151603f8160121c168501518453600184019350603f81600c1c168501518453600184019350603f8160061c168501518453600184019350603f8116850151845350600183019250610efa565b5050600386510660018114610f715760028114610f8457610f8c565b603d6001830353603d6002830353610f8c565b603d60018303535b509195945050505050565b6001600160a01b038216610fed5760405162461bcd60e51b815260206004820181905260248201527f4552433732313a206d696e7420746f20746865207a65726f206164647265737360448201526064016103d4565b6000818152600260205260409020546001600160a01b0316156110525760405162461bcd60e51b815260206004820152601c60248201527f4552433732313a20746f6b656e20616c7265616479206d696e7465640000000060448201526064016103d4565b6000818152600260205260409020546001600160a01b0316156110b75760405162461bcd60e51b815260206004820152601c60248201527f4552433732313a20746f6b656e20616c7265616479206d696e7465640000000060448201526064016103d4565b6001600160a01b038216600081815260036020908152604080832080546001019055848352600290915280822080546001600160a01b0319168417905551839291907fddf252ad1be2c89b69c2b068fc378daa952ba7f163c4a11628f55a4df523b3ef908290a45050565b60006001600160a01b0384163b1561121857604051630a85bd0160e11b81526001600160a01b0385169063150b7a0290611166903390899088908890600401611ba8565b6020604051808303816000875af19250505080156111a1575060408051601f3d908101601f1916820190925261119e91810190611be5565b60015b6111fe573d8080156111cf576040519150601f19603f3d011682016040523d82523d6000602084013e6111d4565b606091505b5080516000036111f65760405162461bcd60e51b81526004016103d490611b0a565b805181602001fd5b6001600160e01b031916630a85bd0160e11b1490506107ea565b506001949350505050565b60606000611230836112b6565b600101905060008167ffffffffffffffff81111561125057611250611483565b6040519080825280601f01601f19166020018201604052801561127a576020820181803683370190505b5090508181016020015b600019016f181899199a1a9b1b9c1cb0b131b232b360811b600a86061a8153600a850494508461128457509392505050565b60008072184f03e93ff9f4daa797ed6e38ed64bf6a1f0160401b83106112f55772184f03e93ff9f4daa797ed6e38ed64bf6a1f0160401b830492506040015b6d04ee2d6d415b85acef81000000008310611321576d04ee2d6d415b85acef8100000000830492506020015b662386f26fc10000831061133f57662386f26fc10000830492506010015b6305f5e1008310611357576305f5e100830492506008015b612710831061136b57612710830492506004015b6064831061137d576064830492506002015b600a83106102a15760010192915050565b6001600160e01b0319811681146109d157600080fd5b6000602082840312156113b657600080fd5b8135610e3d8161138e565b60005b838110156113dc5781810151838201526020016113c4565b50506000910152565b600081518084526113fd8160208601602086016113c1565b601f01601f19169290920160200192915050565b602081526000610e3d60208301846113e5565b60006020828403121561143657600080fd5b5035919050565b80356001600160a01b038116811461145457600080fd5b919050565b6000806040838503121561146c57600080fd5b6114758361143d565b946020939093013593505050565b634e487b7160e01b600052604160045260246000fd5b600067ffffffffffffffff808411156114b4576114b4611483565b604051601f8501601f19908116603f011681019082821181831017156114dc576114dc611483565b816040528093508581528686860111156114f557600080fd5b858560208301376000602087830101525050509392505050565b600082601f83011261152057600080fd5b610e3d83833560208501611499565b6000806040838503121561154257600080fd5b82359150602083013567ffffffffffffffff81111561156057600080fd5b61156c8582860161150f565b9150509250929050565b60008060006060848603121561158b57600080fd5b6115948461143d565b92506115a26020850161143d565b9150604084013590509250925092565b6000602082840312156115c457600080fd5b610e3d8261143d565b600080604083850312156115e057600080fd5b6115e98361143d565b9150602083013580151581146115fe57600080fd5b809150509250929050565b6000806000806080858703121561161f57600080fd5b6116288561143d565b93506116366020860161143d565b925060408501359150606085013567ffffffffffffffff81111561165957600080fd5b8501601f8101871361166a57600080fd5b61167987823560208401611499565b91505092959194509250565b6000806040838503121561169857600080fd5b6116a18361143d565b91506116af6020840161143d565b90509250929050565b600080600080608085870312156116ce57600080fd5b6116d78561143d565b935060208501359250604085013567ffffffffffffffff808211156116fb57600080fd5b6117078883890161150f565b9350606087013591508082111561171d57600080fd5b506116798782880161150f565b600181811c9082168061173e57607f821691505b60208210810361175e57634e487b7160e01b600052602260045260246000fd5b50919050565b6020808252602e908201527f4f6e6c79466163746f72793a2043616c6c6572206973206e6f7420746865206360408201526d37b9329031b7b73a3937b63632b960911b606082015260800190565b6020808252602d908201527f4552433732313a2063616c6c6572206973206e6f7420746f6b656e206f776e6560408201526c1c881bdc88185c1c1c9bdd9959609a1b606082015260800190565b600081516118118185602086016113c1565b9290920192915050565b6000835161182d8184602088016113c1565b8351908301906118418183602088016113c1565b01949350505050565b6803d913730b6b2911d160bd1b8152601160f91b60098201819052845160009190602061187d82600a8701838b016113c1565b8185019150710111610113232b9b1b934b83a34b7b7111d160751b600a83015282601c830152601d9250600087546118b48161172a565b600182811680156118cc57600181146118e557611915565b60ff198416878901528215158302870188019450611915565b8b6000528560002060005b8481101561190b5781548982018b01529083019087016118f0565b5050878388010194505b5050505061195f61195161194b61193e846b01116101134b6b0b3b2911d160a51b8152600c0190565b601160f91b815260010190565b896117ff565b61227d60f01b815260020190565b9998505050505050505050565b6000825161197e8184602087016113c1565b9190910192915050565b601f82111561047557600081815260208120601f850160051c810160208610156119af5750805b601f850160051c820191505b818110156119ce578281556001016119bb565b505050505050565b815167ffffffffffffffff8111156119f0576119f0611483565b611a04816119fe845461172a565b84611988565b602080601f831160018114611a395760008415611a215750858301515b600019600386901b1c1916600185901b1785556119ce565b600085815260208120601f198616915b82811015611a6857888601518255948401946001909101908401611a49565b5085821015611a865787850151600019600388901b60f8161c191681555b5050505050600190811b01905550565b634e487b7160e01b600052601160045260246000fd5b600060018201611abe57611abe611a96565b5060010190565b60208082526025908201527f4552433732313a207472616e736665722066726f6d20696e636f72726563742060408201526437bbb732b960d91b606082015260800190565b60208082526032908201527f4552433732313a207472616e7366657220746f206e6f6e20455243373231526560408201527131b2b4bb32b91034b6b83632b6b2b73a32b960711b606082015260800190565b808201808211156102a1576102a1611a96565b600082611b8c57634e487b7160e01b600052601260045260246000fd5b500490565b80820281158282048414176102a1576102a1611a96565b6001600160a01b0385811682528416602082015260408101839052608060608201819052600090611bdb908301846113e5565b9695505050505050565b600060208284031215611bf757600080fd5b8151610e3d8161138e56fe4142434445464748494a4b4c4d4e4f505152535455565758595a6162636465666768696a6b6c6d6e6f707172737475767778797a303132333435363738392b2fa264697066735822122024b7796bfd0d31ea9054fa507ad56114e0ad14fa73a023b1904f29693554315464736f6c63430008140033",
  "linkReferences": {},
  "deployedLinkReferences": {}
}