{
  "_format": "hh-sol-artifact-1",
  "contractName": "CoreController",
  "sourceName": "src/CoreController.sol",
  "abi": [
    {
      "inputs": [],
      "name": "AvatarAlreadyMinted",
      "type": "error"
    },
    {
      "inputs": [],
      "name": "EmptyDescription",
      "type": "error"
    },
    {
      "inputs": [],
      "name": "EmptyName",
      "type": "error"
    },
    {
      "inputs": [],
      "name": "EmptySymbol",
      "type": "error"
    },
    {
      "inputs": [],
      "name": "EmptyTokenURI",
      "type": "error"
    },
    {
      "inputs": [],
      "name": "InvalidOwnerAddress",
      "type": "error"
    },
    {
      "inputs": [],
      "name": "InvalidTotalSupply",
      "type": "error"
    },
    {
      "anonymous": false,
      "inputs": [
        {
          "indexed": true,
          "internalType": "address",
          "name": "owner",
          "type": "address"
        },
        {
          "indexed": false,
          "internalType": "string",
          "name": "tokenURI",
          "type": "string"
        },
        {
          "indexed": false,
          "internalType": "string",
          "name": "description",
          "type": "string"
        }
      ],
      "name": "AvatarCreated",
      "type": "event"
    },
    {
      "anonymous": false,
      "inputs": [
        {
          "indexed": true,
          "internalType": "address",
          "name": "owner",
          "type": "address"
        },
        {
          "indexed": false,
          "internalType": "uint256",
          "name": "totalSupply",
          "type": "uint256"
        },
        {
          "indexed": false,
          "internalType": "string",
          "name": "tokenURI",
          "type": "string"
        },
        {
          "indexed": false,
          "internalType": "string",
          "name": "description",
          "type": "string"
        }
      ],
      "name": "ItemCreated",
      "type": "event"
    },
    {
      "anonymous": false,
      "inputs": [
        {
          "indexed": true,
          "internalType": "uint256",
          "name": "itemNum",
          "type": "uint256"
        },
        {
          "indexed": false,
          "internalType": "uint256",
          "name": "tokenId",
          "type": "uint256"
        }
      ],
      "name": "ItemSold",
      "type": "event"
    },
    {
      "anonymous": false,
      "inputs": [
        {
          "indexed": true,
          "internalType": "address",
          "name": "previousOwner",
          "type": "address"
        },
        {
          "indexed": true,
          "internalType": "address",
          "name": "newOwner",
          "type": "address"
        }
      ],
      "name": "OwnershipTransferred",
      "type": "event"
    },
    {
      "anonymous": false,
      "inputs": [
        {
          "indexed": true,
          "internalType": "address",
          "name": "owner",
          "type": "address"
        },
        {
          "indexed": false,
          "internalType": "uint256",
          "name": "totalSupply",
          "type": "uint256"
        },
        {
          "indexed": false,
          "internalType": "string",
          "name": "name",
          "type": "string"
        },
        {
          "indexed": false,
          "internalType": "string",
          "name": "symbol",
          "type": "string"
        }
      ],
      "name": "TokensBurned",
      "type": "event"
    },
    {
      "anonymous": false,
      "inputs": [
        {
          "indexed": true,
          "internalType": "address",
          "name": "owner",
          "type": "address"
        },
        {
          "indexed": false,
          "internalType": "uint256",
          "name": "totalSupply",
          "type": "uint256"
        },
        {
          "indexed": false,
          "internalType": "string",
          "name": "name",
          "type": "string"
        },
        {
          "indexed": false,
          "internalType": "string",
          "name": "symbol",
          "type": "string"
        }
      ],
      "name": "TokensMinted",
      "type": "event"
    },
    {
      "inputs": [
        {
          "internalType": "address",
          "name": "",
          "type": "address"
        }
      ],
      "name": "alreadyAvatarMinted",
      "outputs": [
        {
          "internalType": "bool",
          "name": "",
          "type": "bool"
        }
      ],
      "stateMutability": "view",
      "type": "function"
    },
    {
      "inputs": [],
      "name": "arcaveTokenContract",
      "outputs": [
        {
          "internalType": "address",
          "name": "",
          "type": "address"
        }
      ],
      "stateMutability": "view",
      "type": "function"
    },
    {
      "inputs": [],
      "name": "avatarContract",
      "outputs": [
        {
          "internalType": "address",
          "name": "",
          "type": "address"
        }
      ],
      "stateMutability": "view",
      "type": "function"
    },
    {
      "inputs": [
        {
          "internalType": "address",
          "name": "owner_",
          "type": "address"
        },
        {
          "internalType": "uint256",
          "name": "amount_",
          "type": "uint256"
        },
        {
          "internalType": "string",
          "name": "name_",
          "type": "string"
        },
        {
          "internalType": "string",
          "name": "symbol_",
          "type": "string"
        }
      ],
      "name": "burn",
      "outputs": [],
      "stateMutability": "nonpayable",
      "type": "function"
    },
    {
      "inputs": [
        {
          "internalType": "address",
          "name": "owner_",
          "type": "address"
        },
        {
          "internalType": "string",
          "name": "avatarURI_",
          "type": "string"
        },
        {
          "internalType": "string",
          "name": "description_",
          "type": "string"
        },
        {
          "internalType": "string",
          "name": "userAttributes_",
          "type": "string"
        }
      ],
      "name": "createAvatar",
      "outputs": [],
      "stateMutability": "nonpayable",
      "type": "function"
    },
    {
      "inputs": [
        {
          "internalType": "address",
          "name": "user_",
          "type": "address"
        },
        {
          "internalType": "uint256",
          "name": "totalSupply_",
          "type": "uint256"
        },
        {
          "internalType": "string",
          "name": "name_",
          "type": "string"
        },
        {
          "internalType": "string",
          "name": "symbol_",
          "type": "string"
        },
        {
          "internalType": "string",
          "name": "itemURI_",
          "type": "string"
        },
        {
          "internalType": "string",
          "name": "description_",
          "type": "string"
        }
      ],
      "name": "createItem",
      "outputs": [],
      "stateMutability": "nonpayable",
      "type": "function"
    },
    {
      "inputs": [
        {
          "internalType": "address",
          "name": "",
          "type": "address"
        },
        {
          "internalType": "uint256",
          "name": "",
          "type": "uint256"
        }
      ],
      "name": "creatorToItemAddresses",
      "outputs": [
        {
          "internalType": "address",
          "name": "",
          "type": "address"
        }
      ],
      "stateMutability": "view",
      "type": "function"
    },
    {
      "inputs": [
        {
          "internalType": "address",
          "name": "user_",
          "type": "address"
        }
      ],
      "name": "fetchUserMetadata",
      "outputs": [
        {
          "internalType": "string",
          "name": "avatarMetadata",
          "type": "string"
        },
        {
          "internalType": "string[]",
          "name": "itemMetadata",
          "type": "string[]"
        },
        {
          "internalType": "uint256",
          "name": "x",
          "type": "uint256"
        },
        {
          "internalType": "uint256",
          "name": "y",
          "type": "uint256"
        },
        {
          "internalType": "uint256",
          "name": "z",
          "type": "uint256"
        },
        {
          "internalType": "uint256",
          "name": "maxUserScore",
          "type": "uint256"
        },
        {
          "internalType": "address[4]",
          "name": "friends",
          "type": "address[4]"
        }
      ],
      "stateMutability": "view",
      "type": "function"
    },
    {
      "inputs": [
        {
          "internalType": "uint256",
          "name": "",
          "type": "uint256"
        }
      ],
      "name": "itemNumToItem",
      "outputs": [
        {
          "internalType": "bool",
          "name": "listing",
          "type": "bool"
        },
        {
          "internalType": "uint256",
          "name": "price",
          "type": "uint256"
        },
        {
          "internalType": "uint256",
          "name": "totalSupply",
          "type": "uint256"
        },
        {
          "internalType": "uint256",
          "name": "totalSold",
          "type": "uint256"
        },
        {
          "internalType": "address",
          "name": "itemAddress",
          "type": "address"
        },
        {
          "internalType": "address",
          "name": "creator",
          "type": "address"
        },
        {
          "internalType": "string",
          "name": "itemURI",
          "type": "string"
        },
        {
          "internalType": "string",
          "name": "itemName",
          "type": "string"
        }
      ],
      "stateMutability": "view",
      "type": "function"
    },
    {
      "inputs": [
        {
          "internalType": "uint256",
          "name": "itemNum_",
          "type": "uint256"
        },
        {
          "internalType": "uint256",
          "name": "price_",
          "type": "uint256"
        }
      ],
      "name": "listOnMarketplace",
      "outputs": [],
      "stateMutability": "nonpayable",
      "type": "function"
    },
    {
      "inputs": [
        {
          "internalType": "address",
          "name": "owner_",
          "type": "address"
        },
        {
          "internalType": "uint256",
          "name": "amount_",
          "type": "uint256"
        },
        {
          "internalType": "string",
          "name": "name_",
          "type": "string"
        },
        {
          "internalType": "string",
          "name": "symbol_",
          "type": "string"
        }
      ],
      "name": "mint",
      "outputs": [],
      "stateMutability": "nonpayable",
      "type": "function"
    },
    {
      "inputs": [],
      "name": "owner",
      "outputs": [
        {
          "internalType": "address",
          "name": "",
          "type": "address"
        }
      ],
      "stateMutability": "view",
      "type": "function"
    },
    {
      "inputs": [
        {
          "internalType": "uint256",
          "name": "itemNum_",
          "type": "uint256"
        }
      ],
      "name": "purchaseItem",
      "outputs": [],
      "stateMutability": "payable",
      "type": "function"
    },
    {
      "inputs": [
        {
          "internalType": "uint256",
          "name": "itemNum_",
          "type": "uint256"
        }
      ],
      "name": "removeFromMarketplace",
      "outputs": [],
      "stateMutability": "nonpayable",
      "type": "function"
    },
    {
      "inputs": [],
      "name": "renounceOwnership",
      "outputs": [],
      "stateMutability": "nonpayable",
      "type": "function"
    },
    {
      "inputs": [
        {
          "internalType": "address",
          "name": "arcaveTokenContract_",
          "type": "address"
        }
      ],
      "name": "setArcaveTokenContract",
      "outputs": [],
      "stateMutability": "nonpayable",
      "type": "function"
    },
    {
      "inputs": [
        {
          "internalType": "address",
          "name": "avatarContract_",
          "type": "address"
        }
      ],
      "name": "setAvatarContract",
      "outputs": [],
      "stateMutability": "nonpayable",
      "type": "function"
    },
    {
      "inputs": [
        {
          "internalType": "address",
          "name": "user_",
          "type": "address"
        },
        {
          "internalType": "address[]",
          "name": "friends",
          "type": "address[]"
        }
      ],
      "name": "setUserFriends",
      "outputs": [],
      "stateMutability": "nonpayable",
      "type": "function"
    },
    {
      "inputs": [
        {
          "internalType": "address",
          "name": "user_",
          "type": "address"
        },
        {
          "internalType": "uint256",
          "name": "x_",
          "type": "uint256"
        },
        {
          "internalType": "uint256",
          "name": "y_",
          "type": "uint256"
        },
        {
          "internalType": "uint256",
          "name": "z_",
          "type": "uint256"
        },
        {
          "internalType": "uint256",
          "name": "userMaxScore_",
          "type": "uint256"
        }
      ],
      "name": "setUserInfo",
      "outputs": [],
      "stateMutability": "nonpayable",
      "type": "function"
    },
    {
      "inputs": [],
      "name": "totalItems",
      "outputs": [
        {
          "internalType": "uint256",
          "name": "",
          "type": "uint256"
        }
      ],
      "stateMutability": "view",
      "type": "function"
    },
    {
      "inputs": [
        {
          "internalType": "address",
          "name": "newOwner",
          "type": "address"
        }
      ],
      "name": "transferOwnership",
      "outputs": [],
      "stateMutability": "nonpayable",
      "type": "function"
    },
    {
      "inputs": [
        {
          "internalType": "string",
          "name": "avatarURI_",
          "type": "string"
        },
        {
          "internalType": "string",
          "name": "avatarAttribute_",
          "type": "string"
        }
      ],
      "name": "updateUserAvatarImage",
      "outputs": [],
      "stateMutability": "nonpayable",
      "type": "function"
    },
    {
      "inputs": [
        {
          "internalType": "address",
          "name": "user_",
          "type": "address"
        },
        {
          "internalType": "address",
          "name": "itemContract_",
          "type": "address"
        },
        {
          "internalType": "uint256",
          "name": "tokenId_",
          "type": "uint256"
        },
        {
          "internalType": "string",
          "name": "itemURI_",
          "type": "string"
        }
      ],
      "name": "updateUserItemtokenURI",
      "outputs": [],
      "stateMutability": "nonpayable",
      "type": "function"
    },
    {
      "inputs": [
        {
          "internalType": "address",
          "name": "",
          "type": "address"
        },
        {
          "internalType": "address",
          "name": "",
          "type": "address"
        }
      ],
      "name": "userItemAddressToItemId",
      "outputs": [
        {
          "internalType": "uint256",
          "name": "",
          "type": "uint256"
        }
      ],
      "stateMutability": "view",
      "type": "function"
    },
    {
      "inputs": [
        {
          "internalType": "address",
          "name": "",
          "type": "address"
        }
      ],
      "name": "userUserInfo",
      "outputs": [
        {
          "internalType": "uint256",
          "name": "x",
          "type": "uint256"
        },
        {
          "internalType": "uint256",
          "name": "y",
          "type": "uint256"
        },
        {
          "internalType": "uint256",
          "name": "z",
          "type": "uint256"
        },
        {
          "internalType": "uint256",
          "name": "userMaxScore",
          "type": "uint256"
        }
      ],
      "stateMutability": "view",
      "type": "function"
    }
  ],
  "bytecode": "0x608060405234801561001057600080fd5b5061001a3361001f565b61006f565b600080546001600160a01b038381166001600160a01b0319831681178455604051919092169283917f8be0079c531659141344cd1fd0a4f28419497f9722a3daafe3b4186f6b6457e09190a35050565b61471d806200007f6000396000f3fe608060405260043610620001845760003560e01c80636a65b9d711620000e25780639af81e731162000095578063bb2bcca8116200006c578063bb2bcca8146200053f578063d38ea5bf1462000564578063f2fde38b146200057b578063ff7c1b6014620005a057600080fd5b80639af81e7314620004d0578063ab38cb5614620004f5578063bac71f2a146200051a57600080fd5b80636a65b9d71462000404578063715018a614620004295780637ee542a314620004415780638826f27114620004665780638c19ebc8146200048b5780638da5cb5b14620004b057600080fd5b806344bbcf83116200013b57806344bbcf8314620002b157806345f0791d14620002d65780634d1d6121146200031157806355f3110c146200033357806359d75e51146200039a57806362d7653214620003bf57600080fd5b80630d60160314620001895780630f397c4614620001d85780632323621d14620001ff5780632799276d146200023a5780632fb102cf1462000252578063331330571462000277575b600080fd5b3480156200019657600080fd5b50620001c5620001a836600462001c66565b600860209081526000928352604080842090915290825290205481565b6040519081526020015b60405180910390f35b348015620001e557600080fd5b50620001fd620001f736600462001d75565b620005c5565b005b3480156200020c57600080fd5b50620002246200021e36600462001e1c565b62000742565b604051620001cf98979695949392919062001e8a565b3480156200024757600080fd5b50620001c560035481565b3480156200025f57600080fd5b50620001fd6200027136600462001efb565b620008b8565b3480156200028457600080fd5b506200029c6200029636600462001f44565b620009f9565b604051620001cf979695949392919062001f99565b348015620002be57600080fd5b50620001fd620002d036600462001efb565b62000d17565b348015620002e357600080fd5b50600154620002f8906001600160a01b031681565b6040516001600160a01b039091168152602001620001cf565b3480156200031e57600080fd5b50600254620002f8906001600160a01b031681565b3480156200034057600080fd5b50620003796200035236600462001f44565b60076020526000908152604090208054600182015460028301546003909301549192909184565b604080519485526020850193909352918301526060820152608001620001cf565b348015620003a757600080fd5b50620001fd620003b936600462002042565b62000e58565b348015620003cc57600080fd5b50620003f3620003de36600462001f44565b60066020526000908152604090205460ff1681565b6040519015158152602001620001cf565b3480156200041157600080fd5b50620001fd6200042336600462002065565b62000eef565b3480156200043657600080fd5b50620001fd62000f85565b3480156200044e57600080fd5b50620001fd6200046036600462001f44565b62000f9d565b3480156200047357600080fd5b50620002f862000485366004620020ac565b62000fc9565b3480156200049857600080fd5b50620001fd620004aa36600462001f44565b62001002565b348015620004bd57600080fd5b506000546001600160a01b0316620002f8565b348015620004dd57600080fd5b50620001fd620004ef366004620020db565b6200102e565b3480156200050257600080fd5b50620001fd6200051436600462001e1c565b62001159565b3480156200052757600080fd5b50620001fd6200053936600462002143565b620011f2565b3480156200054c57600080fd5b50620001fd6200055e36600462002218565b620016b4565b620001fd6200057536600462001e1c565b620017a8565b3480156200058857600080fd5b50620001fd6200059a36600462001f44565b6200198f565b348015620005ad57600080fd5b50620001fd620005bf366004620022ee565b62001a0e565b6001600160a01b038416620005ed57604051633649397d60e21b815260040160405180910390fd5b825160000362000610576040516317314b6160e01b815260040160405180910390fd5b8151600003620006335760405163d937d5df60e01b815260040160405180910390fd5b6001600160a01b03841660009081526006602052604090205460ff16156200066e576040516312cc797360e01b815260040160405180910390fd5b6001600160a01b0380851660009081526006602052604090819020805460ff1916600190811790915554905163079cbe2360e11b8152911690630f397c4690620006c390879087908790879060040162002359565b600060405180830381600087803b158015620006de57600080fd5b505af1158015620006f3573d6000803e3d6000fd5b50505050836001600160a01b03167f06a8b8d388a178c6f8e1f71c328d45523daa3d7b96900d8a85c230ee32649013848460405162000734929190620023b4565b60405180910390a250505050565b6004602081905260009182526040909120805460018201546002830154600384015494840154600585015460068601805460ff90961697949693956001600160a01b039384169492909316926200079990620023e6565b80601f0160208091040260200160405190810160405280929190818152602001828054620007c790620023e6565b8015620008185780601f10620007ec5761010080835404028352916020019162000818565b820191906000526020600020905b815481529060010190602001808311620007fa57829003601f168201915b5050505050908060070180546200082f90620023e6565b80601f01602080910402602001604051908101604052809291908181526020018280546200085d90620023e6565b8015620008ae5780601f106200088257610100808354040283529160200191620008ae565b820191906000526020600020905b8154815290600101906020018083116200089057829003601f168201915b5050505050905088565b620008c262001ad6565b6001600160a01b038416620008ea57604051633649397d60e21b815260040160405180910390fd5b826000036200090c576040516334bbd58560e01b815260040160405180910390fd5b81516000036200092f57604051632ef1310560e01b815260040160405180910390fd5b80516000036200095257604051630cc613fb60e11b815260040160405180910390fd5b6002546040516340c10f1960e01b81526001600160a01b03868116600483015260248201869052909116906340c10f1990604401600060405180830381600087803b158015620009a157600080fd5b505af1158015620009b6573d6000803e3d6000fd5b50505050836001600160a01b03167f441baf84b3df12a08f0646a6bdcb06a4d29f3042b02814d1c2f6e945bbeffdfe848484604051620007349392919062002422565b60608060008060008062000a0c62001b9e565b600154604051639c6f3ead60e01b81526001600160a01b038a8116600483015290911690639c6f3ead90602401600060405180830381865afa15801562000a57573d6000803e3d6000fd5b505050506040513d6000823e601f3d908101601f1916820160405262000a8191908101906200245b565b6001600160a01b03891660009081526005602090815260408083208054825181850281018501909352808352949b50929390929183018282801562000af057602002820191906000526020600020905b81546001600160a01b0316815260019091019060200180831162000ad1575b50508351939450839250505067ffffffffffffffff81111562000b175762000b1762001ca4565b60405190808252806020026020018201604052801562000b4c57816020015b606081526020019060019003908162000b365790505b50975060005b8181101562000c9a57600083828151811062000b725762000b72620024d2565b602002602001015190506000600860008e6001600160a01b03166001600160a01b03168152602001908152602001600020600086858151811062000bba5762000bba620024d2565b60200260200101516001600160a01b03166001600160a01b031681526020019081526020016000205490506000826001600160a01b031663e0a4528f836040518263ffffffff1660e01b815260040162000c1691815260200190565b600060405180830381865afa15801562000c34573d6000803e3d6000fd5b505050506040513d6000823e601f3d908101601f1916820160405262000c5e91908101906200245b565b9050808c858151811062000c765762000c76620024d2565b6020026020010181905250505050808062000c9190620024fe565b91505062000b52565b506001600160a01b038a1660009081526007602052604090819020805460018201546002830154600384015485516080810196879052939c50919a5098509650916004918201919082845b81546001600160a01b0316815260019091019060200180831162000ce557505050505092505050919395979092949650565b62000d2162001ad6565b6001600160a01b03841662000d4957604051633649397d60e21b815260040160405180910390fd5b8260000362000d6b576040516334bbd58560e01b815260040160405180910390fd5b815160000362000d8e57604051632ef1310560e01b815260040160405180910390fd5b805160000362000db157604051630cc613fb60e11b815260040160405180910390fd5b600254604051632770a7eb60e21b81526001600160a01b0386811660048301526024820186905290911690639dc29fac90604401600060405180830381600087803b15801562000e0057600080fd5b505af115801562000e15573d6000803e3d6000fd5b50505050836001600160a01b03167f2a066751a36c75b553499234e316ad38eb2c4501f2d16bf7cb8245bea536fe81848484604051620007349392919062002422565b600082815260046020526040902060058101546001600160a01b0316331462000edd5760405162461bcd60e51b815260206004820152602c60248201527f4f6e6c79206f776e65722063616e206c6973742074686520746f6b656e206f6e60448201526b206d61726b6574706c61636560a01b60648201526084015b60405180910390fd5b805460ff191660019081178255015550565b6040805160a081018252858152602080820186815282840186815260608085018781528651608081810189526000808352828801819052828a0181905293820184905287019081526001600160a01b038d1683526007909552959020845181559151600183015551600282015592516003840155519091829162000f7a906004808401919062001bbc565b505050505050505050565b62000f8f62001ad6565b62000f9b600062001b32565b565b62000fa762001ad6565b600280546001600160a01b0319166001600160a01b0392909216919091179055565b6005602052816000526040600020818154811062000fe657600080fd5b6000918252602090912001546001600160a01b03169150829050565b6200100c62001ad6565b600180546001600160a01b0319166001600160a01b0392909216919091179055565b6040516331a9108f60e11b81526004810183905283906001600160a01b038681169190831690636352211e90602401602060405180830381865afa1580156200107b573d6000803e3d6000fd5b505050506040513d601f19601f82011682018060405250810190620010a191906200251a565b6001600160a01b031614620010f95760405162461bcd60e51b815260206004820152601b60248201527f5573657220646f6573206e6f74206f776e2074686520746f6b656e0000000000604482015260640162000ed4565b6040516318e97fd160e01b81526001600160a01b038216906318e97fd1906200112990869086906004016200253a565b600060405180830381600087803b1580156200114457600080fd5b505af115801562000f7a573d6000803e3d6000fd5b600081815260046020526040902060058101546001600160a01b03163314620011de5760405162461bcd60e51b815260206004820152603060248201527f4f6e6c79206f776e65722063616e2072656d6f76652074686520746f6b656e2060448201526f66726f6d206d61726b6574706c61636560801b606482015260840162000ed4565b805460ff1916815560001960019091015550565b838260015b6003548111620013f45760008181526004602052604090206007018054620012b991906200122590620023e6565b80601f01602080910402602001604051908101604052809291908181526020018280546200125390620023e6565b8015620012a45780601f106200127857610100808354040283529160200191620012a4565b820191906000526020600020905b8154815290600101906020018083116200128657829003601f168201915b50505050508462001b8290919063ffffffff16565b15620012f65760405162461bcd60e51b815260206004820152600b60248201526a4974656d2065786973747360a81b604482015260640162000ed4565b60008181526004602052604090206006018054620013ae91906200131a90620023e6565b80601f01602080910402602001604051908101604052809291908181526020018280546200134890620023e6565b8015620013995780601f106200136d5761010080835404028352916020019162001399565b820191906000526020600020905b8154815290600101906020018083116200137b57829003601f168201915b50505050508362001b8290919063ffffffff16565b15620013eb5760405162461bcd60e51b815260206004820152600b60248201526a4974656d2065786973747360a81b604482015260640162000ed4565b600101620011f7565b506001600360008282546200140a91906200255d565b9091555050600354604051600090889088903090620014299062001c19565b620014379392919062002573565b604051809103906000f08015801562001454573d6000803e3d6000fd5b5060405163fb70c5db60e01b81529091506001600160a01b0382169063fb70c5db906200148c9030908d908b908b90600401620025b5565b600060405180830381600087803b158015620014a757600080fd5b505af1158015620014bc573d6000803e3d6000fd5b50505050600060405180610100016040528060001515815260200160001981526020018b815260200160008152602001836001600160a01b031681526020018c6001600160a01b031681526020018881526020018a815250905060056000336001600160a01b03166001600160a01b03168152602001908152602001600020829080600181540180825580915050600190039060005260206000200160009091909190916101000a8154816001600160a01b0302191690836001600160a01b03160217905550806004600085815260200190815260200160002060008201518160000160006101000a81548160ff02191690831515021790555060208201518160010155604082015181600201556060820151816003015560808201518160040160006101000a8154816001600160a01b0302191690836001600160a01b0316021790555060a08201518160050160006101000a8154816001600160a01b0302191690836001600160a01b0316021790555060c082015181600601908162001645919062002641565b5060e082015160078201906200165c908262002641565b509050508a6001600160a01b03167f64f5ac218d1a7323505b02172ad0e33db53ab2c0cddd2d95f198c7823afb70478b89896040516200169f9392919062002422565b60405180910390a25050505050505050505050565b80516004811115620017095760405162461bcd60e51b815260206004820152601960248201527f4d6178696d756d203420667269656e647320616c6c6f77656400000000000000604482015260640162000ed4565b60005b81811015620017a2578281815181106200172a576200172a620024d2565b602002602001015160076000866001600160a01b03166001600160a01b0316815260200190815260200160002060040182600481106200176e576200176e620024d2565b0180546001600160a01b0319166001600160a01b0392909216919091179055806200179981620024fe565b9150506200170c565b50505050565b6000818152600460205260409020805460ff16620018095760405162461bcd60e51b815260206004820152601760248201527f54686520746f6b656e206973206e6f74206c6973746564000000000000000000604482015260640162000ed4565b806001015434146200185e5760405162461bcd60e51b815260206004820152601860248201527f546865207072696365206973206e6f7420636f72726563740000000000000000604482015260640162000ed4565b6000816003015460016200187391906200255d565b6004838101546040516323b872dd60e01b81523092810192909252336024830152604482018390529192506001600160a01b03909116906323b872dd90606401600060405180830381600087803b158015620018ce57600080fd5b505af1158015620018e3573d6000803e3d6000fd5b505033600090815260086020908152604080832060048801546001600160a01b03168452909152812084905560038501805460019450909250620019299084906200255d565b909155505060028201546003830154036200194f57815460ff1916825560001960018301555b827f49934bdc44c552b328ef963b26b06602ad0b22bb4d8d1a9f19cdde4e3a2539f6826040516200198291815260200190565b60405180910390a2505050565b6200199962001ad6565b6001600160a01b03811662001a005760405162461bcd60e51b815260206004820152602660248201527f4f776e61626c653a206e6577206f776e657220697320746865207a65726f206160448201526564647265737360d01b606482015260840162000ed4565b62001a0b8162001b32565b50565b3360009081526006602052604090205460ff1662001a685760405162461bcd60e51b815260206004820152601660248201527541766174617220646f6573206e6f742065786973747360501b604482015260640162000ed4565b6001546040516311f34c2f60e31b81526001600160a01b0390911690638f9a61789062001a9e903390869086906004016200270e565b600060405180830381600087803b15801562001ab957600080fd5b505af115801562001ace573d6000803e3d6000fd5b505050505050565b6000546001600160a01b0316331462000f9b5760405162461bcd60e51b815260206004820181905260248201527f4f776e61626c653a2063616c6c6572206973206e6f7420746865206f776e6572604482015260640162000ed4565b600080546001600160a01b038381166001600160a01b0319831681178455604051919092169283917f8be0079c531659141344cd1fd0a4f28419497f9722a3daafe3b4186f6b6457e09190a35050565b6000818051906020012083805190602001201490505b92915050565b60405180608001604052806004906020820280368337509192915050565b826004810192821562001c07579160200282015b8281111562001c0757825182546001600160a01b0319166001600160a01b0390911617825560209092019160019091019062001bd0565b5062001c1592915062001c27565b5090565b611fb3806200273583390190565b5b8082111562001c15576000815560010162001c28565b6001600160a01b038116811462001a0b57600080fd5b803562001c618162001c3e565b919050565b6000806040838503121562001c7a57600080fd5b823562001c878162001c3e565b9150602083013562001c998162001c3e565b809150509250929050565b634e487b7160e01b600052604160045260246000fd5b604051601f8201601f1916810167ffffffffffffffff8111828210171562001ce65762001ce662001ca4565b604052919050565b600067ffffffffffffffff82111562001d0b5762001d0b62001ca4565b50601f01601f191660200190565b600082601f83011262001d2b57600080fd5b813562001d4262001d3c8262001cee565b62001cba565b81815284602083860101111562001d5857600080fd5b816020850160208301376000918101602001919091529392505050565b6000806000806080858703121562001d8c57600080fd5b843562001d998162001c3e565b9350602085013567ffffffffffffffff8082111562001db757600080fd5b62001dc58883890162001d19565b9450604087013591508082111562001ddc57600080fd5b62001dea8883890162001d19565b9350606087013591508082111562001e0157600080fd5b5062001e108782880162001d19565b91505092959194509250565b60006020828403121562001e2f57600080fd5b5035919050565b60005b8381101562001e5357818101518382015260200162001e39565b50506000910152565b6000815180845262001e7681602086016020860162001e36565b601f01601f19169290920160200192915050565b88151581526020810188905260408101879052606081018690526001600160a01b038581166080830152841660a082015261010060c0820181905260009062001ed68382018662001e5c565b905082810360e084015262001eec818562001e5c565b9b9a5050505050505050505050565b6000806000806080858703121562001f1257600080fd5b843562001f1f8162001c3e565b935060208501359250604085013567ffffffffffffffff8082111562001ddc57600080fd5b60006020828403121562001f5757600080fd5b813562001f648162001c3e565b9392505050565b8060005b6004811015620017a25781516001600160a01b031684526020938401939091019060010162001f6f565b600061014080835262001faf8184018b62001e5c565b9050602083820381850152818a518084528284019150828160051b850101838d0160005b838110156200200557601f1987840301855262001ff283835162001e5c565b9486019492509085019060010162001fd3565b505080955050505050508660408301528560608301528460808301528360a08301526200203660c083018462001f6b565b98975050505050505050565b600080604083850312156200205657600080fd5b50508035926020909101359150565b600080600080600060a086880312156200207e57600080fd5b85356200208b8162001c3e565b97602087013597506040870135966060810135965060800135945092505050565b60008060408385031215620020c057600080fd5b8235620020cd8162001c3e565b946020939093013593505050565b60008060008060808587031215620020f257600080fd5b8435620020ff8162001c3e565b93506020850135620021118162001c3e565b925060408501359150606085013567ffffffffffffffff8111156200213557600080fd5b62001e108782880162001d19565b60008060008060008060c087890312156200215d57600080fd5b620021688762001c54565b955060208701359450604087013567ffffffffffffffff808211156200218d57600080fd5b6200219b8a838b0162001d19565b95506060890135915080821115620021b257600080fd5b620021c08a838b0162001d19565b94506080890135915080821115620021d757600080fd5b620021e58a838b0162001d19565b935060a0890135915080821115620021fc57600080fd5b506200220b89828a0162001d19565b9150509295509295509295565b600080604083850312156200222c57600080fd5b8235620022398162001c3e565b915060208381013567ffffffffffffffff808211156200225857600080fd5b818601915086601f8301126200226d57600080fd5b81358181111562002282576200228262001ca4565b8060051b91506200229584830162001cba565b8181529183018401918481019089841115620022b057600080fd5b938501935b83851015620022de5784359250620022cd8362001c3e565b8282529385019390850190620022b5565b8096505050505050509250929050565b600080604083850312156200230257600080fd5b823567ffffffffffffffff808211156200231b57600080fd5b620023298683870162001d19565b935060208501359150808211156200234057600080fd5b506200234f8582860162001d19565b9150509250929050565b6001600160a01b03851681526080602082018190526000906200237f9083018662001e5c565b828103604084015262002393818662001e5c565b90508281036060840152620023a9818562001e5c565b979650505050505050565b604081526000620023c9604083018562001e5c565b8281036020840152620023dd818562001e5c565b95945050505050565b600181811c90821680620023fb57607f821691505b6020821081036200241c57634e487b7160e01b600052602260045260246000fd5b50919050565b8381526060602082015260006200243d606083018562001e5c565b828103604084015262002451818562001e5c565b9695505050505050565b6000602082840312156200246e57600080fd5b815167ffffffffffffffff8111156200248657600080fd5b8201601f810184136200249857600080fd5b8051620024a962001d3c8262001cee565b818152856020838501011115620024bf57600080fd5b620023dd82602083016020860162001e36565b634e487b7160e01b600052603260045260246000fd5b634e487b7160e01b600052601160045260246000fd5b600060018201620025135762002513620024e8565b5060010190565b6000602082840312156200252d57600080fd5b815162001f648162001c3e565b82815260406020820152600062002555604083018462001e5c565b949350505050565b8082018082111562001b985762001b98620024e8565b60608152600062002588606083018662001e5c565b82810360208401526200259c818662001e5c565b91505060018060a01b0383166040830152949350505050565b60018060a01b0385168152836020820152608060408201526000620025de608083018562001e5c565b8281036060840152620023a9818562001e5c565b601f8211156200263c57600081815260208120601f850160051c810160208610156200261b5750805b601f850160051c820191505b8181101562001ace5782815560010162002627565b505050565b815167ffffffffffffffff8111156200265e576200265e62001ca4565b62002676816200266f8454620023e6565b84620025f2565b602080601f831160018114620026ae5760008415620026955750858301515b600019600386901b1c1916600185901b17855562001ace565b600085815260208120601f198616915b82811015620026df57888601518255948401946001909101908401620026be565b5085821015620026fe5787850151600019600388901b60f8161c191681555b5050505050600190811b01905550565b6001600160a01b03841681526060602082018190526000906200243d9083018562001e5c56fe60a06040523480156200001157600080fd5b5060405162001fb338038062001fb3833981016040819052620000349162000130565b828260006200004483826200024c565b5060016200005382826200024c565b5050506001600160a01b031660805250620003189050565b634e487b7160e01b600052604160045260246000fd5b600082601f8301126200009357600080fd5b81516001600160401b0380821115620000b057620000b06200006b565b604051601f8301601f19908116603f01168101908282118183101715620000db57620000db6200006b565b81604052838152602092508683858801011115620000f857600080fd5b600091505b838210156200011c5785820183015181830184015290820190620000fd565b600093810190920192909252949350505050565b6000806000606084860312156200014657600080fd5b83516001600160401b03808211156200015e57600080fd5b6200016c8783880162000081565b945060208601519150808211156200018357600080fd5b50620001928682870162000081565b604086015190935090506001600160a01b0381168114620001b257600080fd5b809150509250925092565b600181811c90821680620001d257607f821691505b602082108103620001f357634e487b7160e01b600052602260045260246000fd5b50919050565b601f8211156200024757600081815260208120601f850160051c81016020861015620002225750805b601f850160051c820191505b8181101562000243578281556001016200022e565b5050505b505050565b81516001600160401b038111156200026857620002686200006b565b6200028081620002798454620001bd565b84620001f9565b602080601f831160018114620002b857600084156200029f5750858301515b600019600386901b1c1916600185901b17855562000243565b600085815260208120601f198616915b82811015620002e957888601518255948401946001909101908401620002c8565b5085821015620003085787850151600019600388901b60f8161c191681555b5050505050600190811b01905550565b608051611c786200033b6000396000818161048501526108a10152611c786000f3fe608060405234801561001057600080fd5b506004361061010b5760003560e01c806370a08231116100a2578063b88d4fde11610071578063b88d4fde1461021d578063c87b56dd14610230578063e0a4528f14610243578063e985e9c514610256578063fb70c5db1461026957600080fd5b806370a08231146101d95780637284e416146101fa57806395d89b4114610202578063a22cb4651461020a57600080fd5b806318e97fd1116100de57806318e97fd11461018d57806323b872dd146101a057806342842e0e146101b35780636352211e146101c657600080fd5b806301ffc9a71461011057806306fdde0314610138578063081812fc1461014d578063095ea7b314610178575b600080fd5b61012361011e3660046113a4565b61027c565b60405190151581526020015b60405180910390f35b6101406102a7565b60405161012f9190611411565b61016061015b366004611424565b610339565b6040516001600160a01b03909116815260200161012f565b61018b610186366004611459565b610360565b005b61018b61019b36600461152f565b61047a565b61018b6101ae366004611576565b6104d0565b61018b6101c1366004611576565b610501565b6101606101d4366004611424565b61051c565b6101ec6101e73660046115b2565b61057c565b60405190815260200161012f565b610140610602565b610140610690565b61018b6102183660046115cd565b61069f565b61018b61022b366004611609565b6106aa565b61014061023e366004611424565b6106e2565b610140610251366004611424565b6107f2565b610123610264366004611685565b610868565b61018b6102773660046116b8565b610896565b60006001600160e01b03198216632483248360e11b14806102a157506102a182610922565b92915050565b6060600080546102b69061172a565b80601f01602080910402602001604051908101604052809291908181526020018280546102e29061172a565b801561032f5780601f106103045761010080835404028352916020019161032f565b820191906000526020600020905b81548152906001019060200180831161031257829003601f168201915b5050505050905090565b600061034482610972565b506000908152600460205260409020546001600160a01b031690565b600061036b8261051c565b9050806001600160a01b0316836001600160a01b0316036103dd5760405162461bcd60e51b815260206004820152602160248201527f4552433732313a20617070726f76616c20746f2063757272656e74206f776e656044820152603960f91b60648201526084015b60405180910390fd5b336001600160a01b03821614806103f957506103f98133610868565b61046b5760405162461bcd60e51b815260206004820152603d60248201527f4552433732313a20617070726f76652063616c6c6572206973206e6f7420746f60448201527f6b656e206f776e6572206f7220617070726f76656420666f7220616c6c00000060648201526084016103d4565b61047583836109d4565b505050565b336001600160a01b037f000000000000000000000000000000000000000000000000000000000000000016146104c25760405162461bcd60e51b81526004016103d490611764565b6104cc8282610a42565b5050565b6104da3382610b0d565b6104f65760405162461bcd60e51b81526004016103d4906117b2565b610475838383610b6b565b610475838383604051806020016040528060008152506106aa565b6000818152600260205260408120546001600160a01b0316806102a15760405162461bcd60e51b8152602060048201526018602482015277115490cdcc8c4e881a5b9d985b1a59081d1bdad95b88125160421b60448201526064016103d4565b60006001600160a01b0382166105e65760405162461bcd60e51b815260206004820152602960248201527f4552433732313a2061646472657373207a65726f206973206e6f7420612076616044820152683634b21037bbb732b960b91b60648201526084016103d4565b506001600160a01b031660009081526003602052604090205490565b6007805461060f9061172a565b80601f016020809104026020016040519081016040528092919081815260200182805461063b9061172a565b80156106885780601f1061065d57610100808354040283529160200191610688565b820191906000526020600020905b81548152906001019060200180831161066b57829003601f168201915b505050505081565b6060600180546102b69061172a565b6104cc338383610ccf565b6106b43383610b0d565b6106d05760405162461bcd60e51b81526004016103d4906117b2565b6106dc84848484610d9d565b50505050565b60606106ed82610972565b600082815260066020526040812080546107069061172a565b80601f01602080910402602001604051908101604052809291908181526020018280546107329061172a565b801561077f5780601f106107545761010080835404028352916020019161077f565b820191906000526020600020905b81548152906001019060200180831161076257829003601f168201915b50505050509050600061079d60408051602081019091526000815290565b905080516000036107af575092915050565b8151156107e15780826040516020016107c992919061181b565b60405160208183030381529060405292505050919050565b6107ea84610dd0565b949350505050565b606060006107ff836106e2565b9050600061080b6102a7565b9050600061083c826007856040516020016108289392919061184a565b604051602081830303815290604052610e44565b90508060405160200161084f919061196c565b6040516020818303038152906040529350505050919050565b6001600160a01b03918216600090815260056020908152604080832093909416825291909152205460ff1690565b336001600160a01b037f000000000000000000000000000000000000000000000000000000000000000016146108de5760405162461bcd60e51b81526004016103d490611764565b60076108ea82826119d6565b5060015b83811161091b576108ff8582610f97565b6109098184610a42565b8061091381611aac565b9150506108ee565b5050505050565b60006001600160e01b031982166380ac58cd60e01b148061095357506001600160e01b03198216635b5e139f60e01b145b806102a157506301ffc9a760e01b6001600160e01b03198316146102a1565b6000818152600260205260409020546001600160a01b03166109d15760405162461bcd60e51b8152602060048201526018602482015277115490cdcc8c4e881a5b9d985b1a59081d1bdad95b88125160421b60448201526064016103d4565b50565b600081815260046020526040902080546001600160a01b0319166001600160a01b0384169081179091558190610a098261051c565b6001600160a01b03167f8c5be1e5ebec7d5bd14f71427d1e84f3dd0314c0f7b2291e5b200ac8c7c3b92560405160405180910390a45050565b6000828152600260205260409020546001600160a01b0316610abd5760405162461bcd60e51b815260206004820152602e60248201527f45524337323155524953746f726167653a2055524920736574206f66206e6f6e60448201526d32bc34b9ba32b73a103a37b5b2b760911b60648201526084016103d4565b6000828152600660205260409020610ad582826119d6565b506040518281527ff8e1a15aba9398e019f0b49df1a4fde98ee17ae345cb5f6b5e2c27f5033e8ce79060200160405180910390a15050565b600080610b198361051c565b9050806001600160a01b0316846001600160a01b03161480610b405750610b408185610868565b806107ea5750836001600160a01b0316610b5984610339565b6001600160a01b031614949350505050565b826001600160a01b0316610b7e8261051c565b6001600160a01b031614610ba45760405162461bcd60e51b81526004016103d490611ac5565b6001600160a01b038216610c065760405162461bcd60e51b8152602060048201526024808201527f4552433732313a207472616e7366657220746f20746865207a65726f206164646044820152637265737360e01b60648201526084016103d4565b826001600160a01b0316610c198261051c565b6001600160a01b031614610c3f5760405162461bcd60e51b81526004016103d490611ac5565b600081815260046020908152604080832080546001600160a01b03199081169091556001600160a01b0387811680865260038552838620805460001901905590871680865283862080546001019055868652600290945282852080549092168417909155905184937fddf252ad1be2c89b69c2b068fc378daa952ba7f163c4a11628f55a4df523b3ef91a4505050565b816001600160a01b0316836001600160a01b031603610d305760405162461bcd60e51b815260206004820152601960248201527f4552433732313a20617070726f766520746f2063616c6c65720000000000000060448201526064016103d4565b6001600160a01b03838116600081815260056020908152604080832094871680845294825291829020805460ff191686151590811790915591519182527f17307eab39ab6107e8899845ad3d59bd9653f200f220920489ca2b5937696c31910160405180910390a3505050565b610da8848484610b6b565b610db484848484611122565b6106dc5760405162461bcd60e51b81526004016103d490611b0a565b6060610ddb82610972565b6000610df260408051602081019091526000815290565b90506000815111610e125760405180602001604052806000815250610e3d565b80610e1c84611223565b604051602001610e2d92919061181b565b6040516020818303038152906040525b9392505050565b60608151600003610e6357505060408051602081019091526000815290565b6000604051806060016040528060408152602001611c036040913990506000600384516002610e929190611b5c565b610e9c9190611b6f565b610ea7906004611b91565b67ffffffffffffffff811115610ebf57610ebf611483565b6040519080825280601f01601f191660200182016040528015610ee9576020820181803683370190505b509050600182016020820185865187015b80821015610f55576003820191508151603f8160121c168501518453600184019350603f81600c1c168501518453600184019350603f8160061c168501518453600184019350603f8116850151845350600183019250610efa565b5050600386510660018114610f715760028114610f8457610f8c565b603d6001830353603d6002830353610f8c565b603d60018303535b509195945050505050565b6001600160a01b038216610fed5760405162461bcd60e51b815260206004820181905260248201527f4552433732313a206d696e7420746f20746865207a65726f206164647265737360448201526064016103d4565b6000818152600260205260409020546001600160a01b0316156110525760405162461bcd60e51b815260206004820152601c60248201527f4552433732313a20746f6b656e20616c7265616479206d696e7465640000000060448201526064016103d4565b6000818152600260205260409020546001600160a01b0316156110b75760405162461bcd60e51b815260206004820152601c60248201527f4552433732313a20746f6b656e20616c7265616479206d696e7465640000000060448201526064016103d4565b6001600160a01b038216600081815260036020908152604080832080546001019055848352600290915280822080546001600160a01b0319168417905551839291907fddf252ad1be2c89b69c2b068fc378daa952ba7f163c4a11628f55a4df523b3ef908290a45050565b60006001600160a01b0384163b1561121857604051630a85bd0160e11b81526001600160a01b0385169063150b7a0290611166903390899088908890600401611ba8565b6020604051808303816000875af19250505080156111a1575060408051601f3d908101601f1916820190925261119e91810190611be5565b60015b6111fe573d8080156111cf576040519150601f19603f3d011682016040523d82523d6000602084013e6111d4565b606091505b5080516000036111f65760405162461bcd60e51b81526004016103d490611b0a565b805181602001fd5b6001600160e01b031916630a85bd0160e11b1490506107ea565b506001949350505050565b60606000611230836112b6565b600101905060008167ffffffffffffffff81111561125057611250611483565b6040519080825280601f01601f19166020018201604052801561127a576020820181803683370190505b5090508181016020015b600019016f181899199a1a9b1b9c1cb0b131b232b360811b600a86061a8153600a850494508461128457509392505050565b60008072184f03e93ff9f4daa797ed6e38ed64bf6a1f0160401b83106112f55772184f03e93ff9f4daa797ed6e38ed64bf6a1f0160401b830492506040015b6d04ee2d6d415b85acef81000000008310611321576d04ee2d6d415b85acef8100000000830492506020015b662386f26fc10000831061133f57662386f26fc10000830492506010015b6305f5e1008310611357576305f5e100830492506008015b612710831061136b57612710830492506004015b6064831061137d576064830492506002015b600a83106102a15760010192915050565b6001600160e01b0319811681146109d157600080fd5b6000602082840312156113b657600080fd5b8135610e3d8161138e565b60005b838110156113dc5781810151838201526020016113c4565b50506000910152565b600081518084526113fd8160208601602086016113c1565b601f01601f19169290920160200192915050565b602081526000610e3d60208301846113e5565b60006020828403121561143657600080fd5b5035919050565b80356001600160a01b038116811461145457600080fd5b919050565b6000806040838503121561146c57600080fd5b6114758361143d565b946020939093013593505050565b634e487b7160e01b600052604160045260246000fd5b600067ffffffffffffffff808411156114b4576114b4611483565b604051601f8501601f19908116603f011681019082821181831017156114dc576114dc611483565b816040528093508581528686860111156114f557600080fd5b858560208301376000602087830101525050509392505050565b600082601f83011261152057600080fd5b610e3d83833560208501611499565b6000806040838503121561154257600080fd5b82359150602083013567ffffffffffffffff81111561156057600080fd5b61156c8582860161150f565b9150509250929050565b60008060006060848603121561158b57600080fd5b6115948461143d565b92506115a26020850161143d565b9150604084013590509250925092565b6000602082840312156115c457600080fd5b610e3d8261143d565b600080604083850312156115e057600080fd5b6115e98361143d565b9150602083013580151581146115fe57600080fd5b809150509250929050565b6000806000806080858703121561161f57600080fd5b6116288561143d565b93506116366020860161143d565b925060408501359150606085013567ffffffffffffffff81111561165957600080fd5b8501601f8101871361166a57600080fd5b61167987823560208401611499565b91505092959194509250565b6000806040838503121561169857600080fd5b6116a18361143d565b91506116af6020840161143d565b90509250929050565b600080600080608085870312156116ce57600080fd5b6116d78561143d565b935060208501359250604085013567ffffffffffffffff808211156116fb57600080fd5b6117078883890161150f565b9350606087013591508082111561171d57600080fd5b506116798782880161150f565b600181811c9082168061173e57607f821691505b60208210810361175e57634e487b7160e01b600052602260045260246000fd5b50919050565b6020808252602e908201527f4f6e6c79466163746f72793a2043616c6c6572206973206e6f7420746865206360408201526d37b9329031b7b73a3937b63632b960911b606082015260800190565b6020808252602d908201527f4552433732313a2063616c6c6572206973206e6f7420746f6b656e206f776e6560408201526c1c881bdc88185c1c1c9bdd9959609a1b606082015260800190565b600081516118118185602086016113c1565b9290920192915050565b6000835161182d8184602088016113c1565b8351908301906118418183602088016113c1565b01949350505050565b6803d913730b6b2911d160bd1b8152601160f91b60098201819052845160009190602061187d82600a8701838b016113c1565b8185019150710111610113232b9b1b934b83a34b7b7111d160751b600a83015282601c830152601d9250600087546118b48161172a565b600182811680156118cc57600181146118e557611915565b60ff198416878901528215158302870188019450611915565b8b6000528560002060005b8481101561190b5781548982018b01529083019087016118f0565b5050878388010194505b5050505061195f61195161194b61193e846b01116101134b6b0b3b2911d160a51b8152600c0190565b601160f91b815260010190565b896117ff565b61227d60f01b815260020190565b9998505050505050505050565b6000825161197e8184602087016113c1565b9190910192915050565b601f82111561047557600081815260208120601f850160051c810160208610156119af5750805b601f850160051c820191505b818110156119ce578281556001016119bb565b505050505050565b815167ffffffffffffffff8111156119f0576119f0611483565b611a04816119fe845461172a565b84611988565b602080601f831160018114611a395760008415611a215750858301515b600019600386901b1c1916600185901b1785556119ce565b600085815260208120601f198616915b82811015611a6857888601518255948401946001909101908401611a49565b5085821015611a865787850151600019600388901b60f8161c191681555b5050505050600190811b01905550565b634e487b7160e01b600052601160045260246000fd5b600060018201611abe57611abe611a96565b5060010190565b60208082526025908201527f4552433732313a207472616e736665722066726f6d20696e636f72726563742060408201526437bbb732b960d91b606082015260800190565b60208082526032908201527f4552433732313a207472616e7366657220746f206e6f6e20455243373231526560408201527131b2b4bb32b91034b6b83632b6b2b73a32b960711b606082015260800190565b808201808211156102a1576102a1611a96565b600082611b8c57634e487b7160e01b600052601260045260246000fd5b500490565b80820281158282048414176102a1576102a1611a96565b6001600160a01b0385811682528416602082015260408101839052608060608201819052600090611bdb908301846113e5565b9695505050505050565b600060208284031215611bf757600080fd5b8151610e3d8161138e56fe4142434445464748494a4b4c4d4e4f505152535455565758595a6162636465666768696a6b6c6d6e6f707172737475767778797a303132333435363738392b2fa264697066735822122024b7796bfd0d31ea9054fa507ad56114e0ad14fa73a023b1904f29693554315464736f6c63430008140033a26469706673582212201811335fd2ce1f85a849b7cfeec3bfa2de4508b4cf8fb31fdbd54af07287972b64736f6c63430008140033",
  "linkReferences": {},
  "deployedLinkReferences": {}
}