{
  "_format": "hh-sol-artifact-1",
  "contractName": "CoreController",
  "sourceName": "src/CoreController.sol",
  "abi": [
    {
      "inputs": [],
      "name": "AvatarAlreadyMinted",
      "type": "error"
    },
    {
      "inputs": [],
      "name": "EmptyDescription",
      "type": "error"
    },
    {
      "inputs": [],
      "name": "EmptyName",
      "type": "error"
    },
    {
      "inputs": [],
      "name": "EmptySymbol",
      "type": "error"
    },
    {
      "inputs": [],
      "name": "EmptyTokenURI",
      "type": "error"
    },
    {
      "inputs": [],
      "name": "InvalidOwnerAddress",
      "type": "error"
    },
    {
      "inputs": [],
      "name": "InvalidTotalSupply",
      "type": "error"
    },
    {
      "anonymous": false,
      "inputs": [
        {
          "indexed": true,
          "internalType": "address",
          "name": "owner",
          "type": "address"
        },
        {
          "indexed": false,
          "internalType": "string",
          "name": "tokenURI",
          "type": "string"
        },
        {
          "indexed": false,
          "internalType": "string",
          "name": "description",
          "type": "string"
        }
      ],
      "name": "AvatarCreated",
      "type": "event"
    },
    {
      "anonymous": false,
      "inputs": [
        {
          "indexed": true,
          "internalType": "address",
          "name": "owner",
          "type": "address"
        },
        {
          "indexed": false,
          "internalType": "uint256",
          "name": "totalSupply",
          "type": "uint256"
        },
        {
          "indexed": false,
          "internalType": "string",
          "name": "tokenURI",
          "type": "string"
        },
        {
          "indexed": false,
          "internalType": "string",
          "name": "description",
          "type": "string"
        }
      ],
      "name": "ItemCreated",
      "type": "event"
    },
    {
      "anonymous": false,
      "inputs": [
        {
          "indexed": true,
          "internalType": "uint256",
          "name": "itemNum",
          "type": "uint256"
        },
        {
          "indexed": false,
          "internalType": "uint256",
          "name": "tokenId",
          "type": "uint256"
        }
      ],
      "name": "ItemSold",
      "type": "event"
    },
    {
      "anonymous": false,
      "inputs": [
        {
          "indexed": true,
          "internalType": "address",
          "name": "previousOwner",
          "type": "address"
        },
        {
          "indexed": true,
          "internalType": "address",
          "name": "newOwner",
          "type": "address"
        }
      ],
      "name": "OwnershipTransferred",
      "type": "event"
    },
    {
      "anonymous": false,
      "inputs": [
        {
          "indexed": true,
          "internalType": "address",
          "name": "owner",
          "type": "address"
        },
        {
          "indexed": false,
          "internalType": "uint256",
          "name": "totalSupply",
          "type": "uint256"
        },
        {
          "indexed": false,
          "internalType": "string",
          "name": "name",
          "type": "string"
        },
        {
          "indexed": false,
          "internalType": "string",
          "name": "symbol",
          "type": "string"
        }
      ],
      "name": "TokensBurned",
      "type": "event"
    },
    {
      "anonymous": false,
      "inputs": [
        {
          "indexed": true,
          "internalType": "address",
          "name": "owner",
          "type": "address"
        },
        {
          "indexed": false,
          "internalType": "uint256",
          "name": "totalSupply",
          "type": "uint256"
        },
        {
          "indexed": false,
          "internalType": "string",
          "name": "name",
          "type": "string"
        },
        {
          "indexed": false,
          "internalType": "string",
          "name": "symbol",
          "type": "string"
        }
      ],
      "name": "TokensMinted",
      "type": "event"
    },
    {
      "inputs": [
        {
          "internalType": "address",
          "name": "",
          "type": "address"
        }
      ],
      "name": "alreadyAvatarMinted",
      "outputs": [
        {
          "internalType": "bool",
          "name": "",
          "type": "bool"
        }
      ],
      "stateMutability": "view",
      "type": "function"
    },
    {
      "inputs": [],
      "name": "arcaveTokenContract",
      "outputs": [
        {
          "internalType": "address",
          "name": "",
          "type": "address"
        }
      ],
      "stateMutability": "view",
      "type": "function"
    },
    {
      "inputs": [],
      "name": "avatarContract",
      "outputs": [
        {
          "internalType": "address",
          "name": "",
          "type": "address"
        }
      ],
      "stateMutability": "view",
      "type": "function"
    },
    {
      "inputs": [
        {
          "internalType": "address",
          "name": "owner_",
          "type": "address"
        },
        {
          "internalType": "uint256",
          "name": "amount_",
          "type": "uint256"
        },
        {
          "internalType": "string",
          "name": "name_",
          "type": "string"
        },
        {
          "internalType": "string",
          "name": "symbol_",
          "type": "string"
        }
      ],
      "name": "burn",
      "outputs": [],
      "stateMutability": "nonpayable",
      "type": "function"
    },
    {
      "inputs": [
        {
          "internalType": "address",
          "name": "owner_",
          "type": "address"
        },
        {
          "internalType": "string",
          "name": "avatarURI_",
          "type": "string"
        },
        {
          "internalType": "string",
          "name": "description_",
          "type": "string"
        },
        {
          "internalType": "string",
          "name": "userAttributes_",
          "type": "string"
        }
      ],
      "name": "createAvatar",
      "outputs": [],
      "stateMutability": "nonpayable",
      "type": "function"
    },
    {
      "inputs": [
        {
          "internalType": "address",
          "name": "user_",
          "type": "address"
        },
        {
          "internalType": "uint256",
          "name": "totalSupply_",
          "type": "uint256"
        },
        {
          "internalType": "string",
          "name": "name_",
          "type": "string"
        },
        {
          "internalType": "string",
          "name": "symbol_",
          "type": "string"
        },
        {
          "internalType": "string",
          "name": "itemURI_",
          "type": "string"
        },
        {
          "internalType": "string",
          "name": "description_",
          "type": "string"
        }
      ],
      "name": "createItem",
      "outputs": [],
      "stateMutability": "nonpayable",
      "type": "function"
    },
    {
      "inputs": [
        {
          "internalType": "address",
          "name": "",
          "type": "address"
        },
        {
          "internalType": "uint256",
          "name": "",
          "type": "uint256"
        }
      ],
      "name": "creatorToItemAddresses",
      "outputs": [
        {
          "internalType": "address",
          "name": "",
          "type": "address"
        }
      ],
      "stateMutability": "view",
      "type": "function"
    },
    {
      "inputs": [
        {
          "internalType": "address",
          "name": "user_",
          "type": "address"
        }
      ],
      "name": "fetchUserMetadata",
      "outputs": [
        {
          "internalType": "string",
          "name": "avatarMetadata",
          "type": "string"
        },
        {
          "internalType": "string[]",
          "name": "itemMetadata",
          "type": "string[]"
        },
        {
          "internalType": "uint256",
          "name": "maxScore",
          "type": "uint256"
        },
        {
          "internalType": "address[4]",
          "name": "friends",
          "type": "address[4]"
        },
        {
          "components": [
            {
              "internalType": "uint256",
              "name": "x",
              "type": "uint256"
            },
            {
              "internalType": "uint256",
              "name": "y",
              "type": "uint256"
            },
            {
              "internalType": "uint256",
              "name": "z",
              "type": "uint256"
            },
            {
              "internalType": "uint256",
              "name": "userMaxScore",
              "type": "uint256"
            },
            {
              "internalType": "address[4]",
              "name": "friends",
              "type": "address[4]"
            }
          ],
          "internalType": "struct ICoreController.UserInfo",
          "name": "userInfo",
          "type": "tuple"
        }
      ],
      "stateMutability": "view",
      "type": "function"
    },
    {
      "inputs": [
        {
          "internalType": "uint256",
          "name": "",
          "type": "uint256"
        }
      ],
      "name": "itemNumToItem",
      "outputs": [
        {
          "internalType": "bool",
          "name": "listing",
          "type": "bool"
        },
        {
          "internalType": "uint256",
          "name": "price",
          "type": "uint256"
        },
        {
          "internalType": "uint256",
          "name": "totalSupply",
          "type": "uint256"
        },
        {
          "internalType": "uint256",
          "name": "totalSold",
          "type": "uint256"
        },
        {
          "internalType": "address",
          "name": "itemAddress",
          "type": "address"
        },
        {
          "internalType": "address",
          "name": "creator",
          "type": "address"
        },
        {
          "internalType": "string",
          "name": "itemURI",
          "type": "string"
        },
        {
          "internalType": "string",
          "name": "itemName",
          "type": "string"
        }
      ],
      "stateMutability": "view",
      "type": "function"
    },
    {
      "inputs": [
        {
          "internalType": "uint256",
          "name": "itemNum_",
          "type": "uint256"
        },
        {
          "internalType": "uint256",
          "name": "price_",
          "type": "uint256"
        }
      ],
      "name": "listOnMarketplace",
      "outputs": [],
      "stateMutability": "nonpayable",
      "type": "function"
    },
    {
      "inputs": [
        {
          "internalType": "address",
          "name": "owner_",
          "type": "address"
        },
        {
          "internalType": "uint256",
          "name": "amount_",
          "type": "uint256"
        },
        {
          "internalType": "string",
          "name": "name_",
          "type": "string"
        },
        {
          "internalType": "string",
          "name": "symbol_",
          "type": "string"
        }
      ],
      "name": "mint",
      "outputs": [],
      "stateMutability": "nonpayable",
      "type": "function"
    },
    {
      "inputs": [],
      "name": "owner",
      "outputs": [
        {
          "internalType": "address",
          "name": "",
          "type": "address"
        }
      ],
      "stateMutability": "view",
      "type": "function"
    },
    {
      "inputs": [
        {
          "internalType": "uint256",
          "name": "itemNum_",
          "type": "uint256"
        }
      ],
      "name": "purchaseItem",
      "outputs": [],
      "stateMutability": "payable",
      "type": "function"
    },
    {
      "inputs": [
        {
          "internalType": "uint256",
          "name": "itemNum_",
          "type": "uint256"
        }
      ],
      "name": "removeFromMarketplace",
      "outputs": [],
      "stateMutability": "nonpayable",
      "type": "function"
    },
    {
      "inputs": [],
      "name": "renounceOwnership",
      "outputs": [],
      "stateMutability": "nonpayable",
      "type": "function"
    },
    {
      "inputs": [
        {
          "internalType": "address",
          "name": "arcaveTokenContract_",
          "type": "address"
        }
      ],
      "name": "setArcaveTokenContract",
      "outputs": [],
      "stateMutability": "nonpayable",
      "type": "function"
    },
    {
      "inputs": [
        {
          "internalType": "address",
          "name": "avatarContract_",
          "type": "address"
        }
      ],
      "name": "setAvatarContract",
      "outputs": [],
      "stateMutability": "nonpayable",
      "type": "function"
    },
    {
      "inputs": [
        {
          "internalType": "address",
          "name": "user_",
          "type": "address"
        },
        {
          "internalType": "address[]",
          "name": "friends",
          "type": "address[]"
        }
      ],
      "name": "setUserFriends",
      "outputs": [],
      "stateMutability": "nonpayable",
      "type": "function"
    },
    {
      "inputs": [
        {
          "internalType": "address",
          "name": "user_",
          "type": "address"
        },
        {
          "internalType": "uint256",
          "name": "x_",
          "type": "uint256"
        },
        {
          "internalType": "uint256",
          "name": "y_",
          "type": "uint256"
        },
        {
          "internalType": "uint256",
          "name": "z_",
          "type": "uint256"
        },
        {
          "internalType": "uint256",
          "name": "userMaxScore_",
          "type": "uint256"
        }
      ],
      "name": "setUserInfo",
      "outputs": [],
      "stateMutability": "nonpayable",
      "type": "function"
    },
    {
      "inputs": [],
      "name": "totalItems",
      "outputs": [
        {
          "internalType": "uint256",
          "name": "",
          "type": "uint256"
        }
      ],
      "stateMutability": "view",
      "type": "function"
    },
    {
      "inputs": [
        {
          "internalType": "address",
          "name": "newOwner",
          "type": "address"
        }
      ],
      "name": "transferOwnership",
      "outputs": [],
      "stateMutability": "nonpayable",
      "type": "function"
    },
    {
      "inputs": [
        {
          "internalType": "string",
          "name": "avatarURI_",
          "type": "string"
        },
        {
          "internalType": "string",
          "name": "avatarAttribute_",
          "type": "string"
        }
      ],
      "name": "updateUserAvatarImage",
      "outputs": [],
      "stateMutability": "nonpayable",
      "type": "function"
    },
    {
      "inputs": [
        {
          "internalType": "address",
          "name": "user_",
          "type": "address"
        },
        {
          "internalType": "address",
          "name": "itemContract_",
          "type": "address"
        },
        {
          "internalType": "uint256",
          "name": "tokenId_",
          "type": "uint256"
        },
        {
          "internalType": "string",
          "name": "itemURI_",
          "type": "string"
        }
      ],
      "name": "updateUserItemtokenURI",
      "outputs": [],
      "stateMutability": "nonpayable",
      "type": "function"
    },
    {
      "inputs": [
        {
          "internalType": "address",
          "name": "",
          "type": "address"
        },
        {
          "internalType": "address",
          "name": "",
          "type": "address"
        }
      ],
      "name": "userItemAddressToItemId",
      "outputs": [
        {
          "internalType": "uint256",
          "name": "",
          "type": "uint256"
        }
      ],
      "stateMutability": "view",
      "type": "function"
    },
    {
      "inputs": [
        {
          "internalType": "address",
          "name": "",
          "type": "address"
        }
      ],
      "name": "userUserInfo",
      "outputs": [
        {
          "internalType": "uint256",
          "name": "x",
          "type": "uint256"
        },
        {
          "internalType": "uint256",
          "name": "y",
          "type": "uint256"
        },
        {
          "internalType": "uint256",
          "name": "z",
          "type": "uint256"
        },
        {
          "internalType": "uint256",
          "name": "userMaxScore",
          "type": "uint256"
        }
      ],
      "stateMutability": "view",
      "type": "function"
    }
  ],
  "bytecode": "0x608060405234801561001057600080fd5b5061001a3361001f565b61006f565b600080546001600160a01b038381166001600160a01b0319831681178455604051919092169283917f8be0079c531659141344cd1fd0a4f28419497f9722a3daafe3b4186f6b6457e09190a35050565b6147d8806200007f6000396000f3fe608060405260043610620001845760003560e01c80636a65b9d711620000e25780639af81e731162000095578063bb2bcca8116200006c578063bb2bcca8146200053d578063d38ea5bf1462000562578063f2fde38b1462000579578063ff7c1b60146200059e57600080fd5b80639af81e7314620004ce578063ab38cb5614620004f3578063bac71f2a146200051857600080fd5b80636a65b9d71462000402578063715018a614620004275780637ee542a3146200043f5780638826f27114620004645780638c19ebc814620004895780638da5cb5b14620004ae57600080fd5b806344bbcf83116200013b57806344bbcf8314620002af57806345f0791d14620002d45780634d1d6121146200030f57806355f3110c146200033157806359d75e51146200039857806362d7653214620003bd57600080fd5b80630d60160314620001895780630f397c4614620001d85780632323621d14620001ff5780632799276d146200023a5780632fb102cf1462000252578063331330571462000277575b600080fd5b3480156200019657600080fd5b50620001c5620001a836600462001cb4565b600860209081526000928352604080842090915290825290205481565b6040519081526020015b60405180910390f35b348015620001e557600080fd5b50620001fd620001f736600462001dc3565b620005c3565b005b3480156200020c57600080fd5b50620002246200021e36600462001e6a565b62000740565b604051620001cf98979695949392919062001ee1565b3480156200024757600080fd5b50620001c560035481565b3480156200025f57600080fd5b50620001fd6200027136600462001f52565b620008b6565b3480156200028457600080fd5b506200029c6200029636600462001f9b565b620009f7565b604051620001cf95949392919062001ff0565b348015620002bc57600080fd5b50620001fd620002ce36600462001f52565b62000d35565b348015620002e157600080fd5b50600154620002f6906001600160a01b031681565b6040516001600160a01b039091168152602001620001cf565b3480156200031c57600080fd5b50600254620002f6906001600160a01b031681565b3480156200033e57600080fd5b50620003776200035036600462001f9b565b60076020526000908152604090208054600182015460028301546003909301549192909184565b604080519485526020850193909352918301526060820152608001620001cf565b348015620003a557600080fd5b50620001fd620003b7366004620020c0565b62000e76565b348015620003ca57600080fd5b50620003f1620003dc36600462001f9b565b60066020526000908152604090205460ff1681565b6040519015158152602001620001cf565b3480156200040f57600080fd5b50620001fd62000421366004620020e3565b62000f0d565b3480156200043457600080fd5b50620001fd62000fa3565b3480156200044c57600080fd5b50620001fd6200045e36600462001f9b565b62000fbb565b3480156200047157600080fd5b50620002f6620004833660046200212a565b62000fe7565b3480156200049657600080fd5b50620001fd620004a836600462001f9b565b62001020565b348015620004bb57600080fd5b506000546001600160a01b0316620002f6565b348015620004db57600080fd5b50620001fd620004ed36600462002159565b6200104c565b3480156200050057600080fd5b50620001fd6200051236600462001e6a565b62001177565b3480156200052557600080fd5b50620001fd62000537366004620021c1565b62001210565b3480156200054a57600080fd5b50620001fd6200055c36600462002296565b620016d2565b620001fd6200057336600462001e6a565b620017c6565b3480156200058657600080fd5b50620001fd6200059836600462001f9b565b620019ad565b348015620005ab57600080fd5b50620001fd620005bd3660046200236c565b62001a2c565b6001600160a01b038416620005eb57604051633649397d60e21b815260040160405180910390fd5b82516000036200060e576040516317314b6160e01b815260040160405180910390fd5b8151600003620006315760405163d937d5df60e01b815260040160405180910390fd5b6001600160a01b03841660009081526006602052604090205460ff16156200066c576040516312cc797360e01b815260040160405180910390fd5b6001600160a01b0380851660009081526006602052604090819020805460ff1916600190811790915554905163079cbe2360e11b8152911690630f397c4690620006c1908790879087908790600401620023d7565b600060405180830381600087803b158015620006dc57600080fd5b505af1158015620006f1573d6000803e3d6000fd5b50505050836001600160a01b03167f06a8b8d388a178c6f8e1f71c328d45523daa3d7b96900d8a85c230ee3264901384846040516200073292919062002432565b60405180910390a250505050565b6004602081905260009182526040909120805460018201546002830154600384015494840154600585015460068601805460ff90961697949693956001600160a01b03938416949290931692620007979062002464565b80601f0160208091040260200160405190810160405280929190818152602001828054620007c59062002464565b8015620008165780601f10620007ea5761010080835404028352916020019162000816565b820191906000526020600020905b815481529060010190602001808311620007f857829003601f168201915b5050505050908060070180546200082d9062002464565b80601f01602080910402602001604051908101604052809291908181526020018280546200085b9062002464565b8015620008ac5780601f106200088057610100808354040283529160200191620008ac565b820191906000526020600020905b8154815290600101906020018083116200088e57829003601f168201915b5050505050905088565b620008c062001af4565b6001600160a01b038416620008e857604051633649397d60e21b815260040160405180910390fd5b826000036200090a576040516334bbd58560e01b815260040160405180910390fd5b81516000036200092d57604051632ef1310560e01b815260040160405180910390fd5b80516000036200095057604051630cc613fb60e11b815260040160405180910390fd5b6002546040516340c10f1960e01b81526001600160a01b03868116600483015260248201869052909116906340c10f1990604401600060405180830381600087803b1580156200099f57600080fd5b505af1158015620009b4573d6000803e3d6000fd5b50505050836001600160a01b03167f441baf84b3df12a08f0646a6bdcb06a4d29f3042b02814d1c2f6e945bbeffdfe8484846040516200073293929190620024a0565b606080600062000a0662001bb6565b62000a1062001bd4565b600154604051639c6f3ead60e01b81526001600160a01b03888116600483015290911690639c6f3ead90602401600060405180830381865afa15801562000a5b573d6000803e3d6000fd5b505050506040513d6000823e601f3d908101601f1916820160405262000a859190810190620024d9565b6001600160a01b03871660009081526005602090815260408083208054825181850281018501909352808352949950929390929183018282801562000af457602002820191906000526020600020905b81546001600160a01b0316815260019091019060200180831162000ad5575b50508351939450839250505067ffffffffffffffff81111562000b1b5762000b1b62001cf2565b60405190808252806020026020018201604052801562000b5057816020015b606081526020019060019003908162000b3a5790505b50955060005b8181101562000c9e57600083828151811062000b765762000b7662002550565b602002602001015190506000600860008c6001600160a01b03166001600160a01b03168152602001908152602001600020600086858151811062000bbe5762000bbe62002550565b60200260200101516001600160a01b03166001600160a01b031681526020019081526020016000205490506000826001600160a01b031663e0a4528f836040518263ffffffff1660e01b815260040162000c1a91815260200190565b600060405180830381865afa15801562000c38573d6000803e3d6000fd5b505050506040513d6000823e601f3d908101601f1916820160405262000c629190810190620024d9565b9050808a858151811062000c7a5762000c7a62002550565b6020026020010181905250505050808062000c95906200257c565b91505062000b56565b506001600160a01b038816600090815260076020908152604091829020825160a081018452815481526001820154928101929092526002810154828401526003810154606083015282516080808201948590529293919284019160048085019182845b81546001600160a01b0316815260019091019060200180831162000d01575050505050815250509250505091939590929450565b62000d3f62001af4565b6001600160a01b03841662000d6757604051633649397d60e21b815260040160405180910390fd5b8260000362000d89576040516334bbd58560e01b815260040160405180910390fd5b815160000362000dac57604051632ef1310560e01b815260040160405180910390fd5b805160000362000dcf57604051630cc613fb60e11b815260040160405180910390fd5b600254604051632770a7eb60e21b81526001600160a01b0386811660048301526024820186905290911690639dc29fac90604401600060405180830381600087803b15801562000e1e57600080fd5b505af115801562000e33573d6000803e3d6000fd5b50505050836001600160a01b03167f2a066751a36c75b553499234e316ad38eb2c4501f2d16bf7cb8245bea536fe818484846040516200073293929190620024a0565b600082815260046020526040902060058101546001600160a01b0316331462000efb5760405162461bcd60e51b815260206004820152602c60248201527f4f6e6c79206f776e65722063616e206c6973742074686520746f6b656e206f6e60448201526b206d61726b6574706c61636560a01b60648201526084015b60405180910390fd5b805460ff191660019081178255015550565b6040805160a081018252858152602080820186815282840186815260608085018781528651608081810189526000808352828801819052828a0181905293820184905287019081526001600160a01b038d1683526007909552959020845181559151600183015551600282015592516003840155519091829162000f98906004808401919062001c0a565b505050505050505050565b62000fad62001af4565b62000fb9600062001b50565b565b62000fc562001af4565b600280546001600160a01b0319166001600160a01b0392909216919091179055565b600560205281600052604060002081815481106200100457600080fd5b6000918252602090912001546001600160a01b03169150829050565b6200102a62001af4565b600180546001600160a01b0319166001600160a01b0392909216919091179055565b6040516331a9108f60e11b81526004810183905283906001600160a01b038681169190831690636352211e90602401602060405180830381865afa15801562001099573d6000803e3d6000fd5b505050506040513d601f19601f82011682018060405250810190620010bf919062002598565b6001600160a01b031614620011175760405162461bcd60e51b815260206004820152601b60248201527f5573657220646f6573206e6f74206f776e2074686520746f6b656e0000000000604482015260640162000ef2565b6040516318e97fd160e01b81526001600160a01b038216906318e97fd190620011479086908690600401620025b8565b600060405180830381600087803b1580156200116257600080fd5b505af115801562000f98573d6000803e3d6000fd5b600081815260046020526040902060058101546001600160a01b03163314620011fc5760405162461bcd60e51b815260206004820152603060248201527f4f6e6c79206f776e65722063616e2072656d6f76652074686520746f6b656e2060448201526f66726f6d206d61726b6574706c61636560801b606482015260840162000ef2565b805460ff1916815560001960019091015550565b838260015b6003548111620014125760008181526004602052604090206007018054620012d79190620012439062002464565b80601f0160208091040260200160405190810160405280929190818152602001828054620012719062002464565b8015620012c25780601f106200129657610100808354040283529160200191620012c2565b820191906000526020600020905b815481529060010190602001808311620012a457829003601f168201915b50505050508462001ba090919063ffffffff16565b15620013145760405162461bcd60e51b815260206004820152600b60248201526a4974656d2065786973747360a81b604482015260640162000ef2565b60008181526004602052604090206006018054620013cc9190620013389062002464565b80601f0160208091040260200160405190810160405280929190818152602001828054620013669062002464565b8015620013b75780601f106200138b57610100808354040283529160200191620013b7565b820191906000526020600020905b8154815290600101906020018083116200139957829003601f168201915b50505050508362001ba090919063ffffffff16565b15620014095760405162461bcd60e51b815260206004820152600b60248201526a4974656d2065786973747360a81b604482015260640162000ef2565b60010162001215565b50600160036000828254620014289190620025db565b9091555050600354604051600090889088903090620014479062001c67565b6200145593929190620025f6565b604051809103906000f08015801562001472573d6000803e3d6000fd5b5060405163fb70c5db60e01b81529091506001600160a01b0382169063fb70c5db90620014aa9030908d908b908b9060040162002638565b600060405180830381600087803b158015620014c557600080fd5b505af1158015620014da573d6000803e3d6000fd5b50505050600060405180610100016040528060001515815260200160001981526020018b815260200160008152602001836001600160a01b031681526020018c6001600160a01b031681526020018881526020018a815250905060056000336001600160a01b03166001600160a01b03168152602001908152602001600020829080600181540180825580915050600190039060005260206000200160009091909190916101000a8154816001600160a01b0302191690836001600160a01b03160217905550806004600085815260200190815260200160002060008201518160000160006101000a81548160ff02191690831515021790555060208201518160010155604082015181600201556060820151816003015560808201518160040160006101000a8154816001600160a01b0302191690836001600160a01b0316021790555060a08201518160050160006101000a8154816001600160a01b0302191690836001600160a01b0316021790555060c0820151816006019081620016639190620026c4565b5060e082015160078201906200167a9082620026c4565b509050508a6001600160a01b03167f64f5ac218d1a7323505b02172ad0e33db53ab2c0cddd2d95f198c7823afb70478b8989604051620016bd93929190620024a0565b60405180910390a25050505050505050505050565b80516004811115620017275760405162461bcd60e51b815260206004820152601960248201527f4d6178696d756d203420667269656e647320616c6c6f77656400000000000000604482015260640162000ef2565b60005b81811015620017c05782818151811062001748576200174862002550565b602002602001015160076000866001600160a01b03166001600160a01b0316815260200190815260200160002060040182600481106200178c576200178c62002550565b0180546001600160a01b0319166001600160a01b039290921691909117905580620017b7816200257c565b9150506200172a565b50505050565b6000818152600460205260409020805460ff16620018275760405162461bcd60e51b815260206004820152601760248201527f54686520746f6b656e206973206e6f74206c6973746564000000000000000000604482015260640162000ef2565b806001015434146200187c5760405162461bcd60e51b815260206004820152601860248201527f546865207072696365206973206e6f7420636f72726563740000000000000000604482015260640162000ef2565b600081600301546001620018919190620025db565b6004838101546040516323b872dd60e01b81523092810192909252336024830152604482018390529192506001600160a01b03909116906323b872dd90606401600060405180830381600087803b158015620018ec57600080fd5b505af115801562001901573d6000803e3d6000fd5b505033600090815260086020908152604080832060048801546001600160a01b0316845290915281208490556003850180546001945090925062001947908490620025db565b909155505060028201546003830154036200196d57815460ff1916825560001960018301555b827f49934bdc44c552b328ef963b26b06602ad0b22bb4d8d1a9f19cdde4e3a2539f682604051620019a091815260200190565b60405180910390a2505050565b620019b762001af4565b6001600160a01b03811662001a1e5760405162461bcd60e51b815260206004820152602660248201527f4f776e61626c653a206e6577206f776e657220697320746865207a65726f206160448201526564647265737360d01b606482015260840162000ef2565b62001a298162001b50565b50565b3360009081526006602052604090205460ff1662001a865760405162461bcd60e51b815260206004820152601660248201527541766174617220646f6573206e6f742065786973747360501b604482015260640162000ef2565b6001546040516311f34c2f60e31b81526001600160a01b0390911690638f9a61789062001abc9033908690869060040162002791565b600060405180830381600087803b15801562001ad757600080fd5b505af115801562001aec573d6000803e3d6000fd5b505050505050565b6000546001600160a01b0316331462000fb95760405162461bcd60e51b815260206004820181905260248201527f4f776e61626c653a2063616c6c6572206973206e6f7420746865206f776e6572604482015260640162000ef2565b600080546001600160a01b038381166001600160a01b0319831681178455604051919092169283917f8be0079c531659141344cd1fd0a4f28419497f9722a3daafe3b4186f6b6457e09190a35050565b8051602091820120825192909101919091201490565b60405180608001604052806004906020820280368337509192915050565b6040518060a001604052806000815260200160008152602001600081526020016000815260200162001c0562001bb6565b905290565b826004810192821562001c55579160200282015b8281111562001c5557825182546001600160a01b0319166001600160a01b0390911617825560209092019160019091019062001c1e565b5062001c6392915062001c75565b5090565b611feb80620027b883390190565b5b8082111562001c63576000815560010162001c76565b6001600160a01b038116811462001a2957600080fd5b803562001caf8162001c8c565b919050565b6000806040838503121562001cc857600080fd5b823562001cd58162001c8c565b9150602083013562001ce78162001c8c565b809150509250929050565b634e487b7160e01b600052604160045260246000fd5b604051601f8201601f1916810167ffffffffffffffff8111828210171562001d345762001d3462001cf2565b604052919050565b600067ffffffffffffffff82111562001d595762001d5962001cf2565b50601f01601f191660200190565b600082601f83011262001d7957600080fd5b813562001d9062001d8a8262001d3c565b62001d08565b81815284602083860101111562001da657600080fd5b816020850160208301376000918101602001919091529392505050565b6000806000806080858703121562001dda57600080fd5b843562001de78162001c8c565b9350602085013567ffffffffffffffff8082111562001e0557600080fd5b62001e138883890162001d67565b9450604087013591508082111562001e2a57600080fd5b62001e388883890162001d67565b9350606087013591508082111562001e4f57600080fd5b5062001e5e8782880162001d67565b91505092959194509250565b60006020828403121562001e7d57600080fd5b5035919050565b60005b8381101562001ea157818101518382015260200162001e87565b83811115620017c05750506000910152565b6000815180845262001ecd81602086016020860162001e84565b601f01601f19169290920160200192915050565b88151581526020810188905260408101879052606081018690526001600160a01b038581166080830152841660a082015261010060c0820181905260009062001f2d8382018662001eb3565b905082810360e084015262001f43818562001eb3565b9b9a5050505050505050505050565b6000806000806080858703121562001f6957600080fd5b843562001f768162001c8c565b935060208501359250604085013567ffffffffffffffff8082111562001e2a57600080fd5b60006020828403121562001fae57600080fd5b813562001fbb8162001c8c565b9392505050565b8060005b6004811015620017c05781516001600160a01b031684526020938401939091019060010162001fc6565b60006101e0808352620020068184018962001eb3565b90506020838203818501528188518084528284019150828160051b850101838b0160005b838110156200205c57601f198784030185526200204983835162001eb3565b948601949250908501906001016200202a565b505080955050505086604085015262002079606085018762001fc2565b845160e085015284015161010084015250604083015161012083015260608301516101408301526080830151620020b561016084018262001fc2565b509695505050505050565b60008060408385031215620020d457600080fd5b50508035926020909101359150565b600080600080600060a08688031215620020fc57600080fd5b8535620021098162001c8c565b97602087013597506040870135966060810135965060800135945092505050565b600080604083850312156200213e57600080fd5b82356200214b8162001c8c565b946020939093013593505050565b600080600080608085870312156200217057600080fd5b84356200217d8162001c8c565b935060208501356200218f8162001c8c565b925060408501359150606085013567ffffffffffffffff811115620021b357600080fd5b62001e5e8782880162001d67565b60008060008060008060c08789031215620021db57600080fd5b620021e68762001ca2565b955060208701359450604087013567ffffffffffffffff808211156200220b57600080fd5b620022198a838b0162001d67565b955060608901359150808211156200223057600080fd5b6200223e8a838b0162001d67565b945060808901359150808211156200225557600080fd5b620022638a838b0162001d67565b935060a08901359150808211156200227a57600080fd5b506200228989828a0162001d67565b9150509295509295509295565b60008060408385031215620022aa57600080fd5b8235620022b78162001c8c565b915060208381013567ffffffffffffffff80821115620022d657600080fd5b818601915086601f830112620022eb57600080fd5b81358181111562002300576200230062001cf2565b8060051b91506200231384830162001d08565b81815291830184019184810190898411156200232e57600080fd5b938501935b838510156200235c57843592506200234b8362001c8c565b828252938501939085019062002333565b8096505050505050509250929050565b600080604083850312156200238057600080fd5b823567ffffffffffffffff808211156200239957600080fd5b620023a78683870162001d67565b93506020850135915080821115620023be57600080fd5b50620023cd8582860162001d67565b9150509250929050565b6001600160a01b0385168152608060208201819052600090620023fd9083018662001eb3565b828103604084015262002411818662001eb3565b9050828103606084015262002427818562001eb3565b979650505050505050565b60408152600062002447604083018562001eb3565b82810360208401526200245b818562001eb3565b95945050505050565b600181811c908216806200247957607f821691505b6020821081036200249a57634e487b7160e01b600052602260045260246000fd5b50919050565b838152606060208201526000620024bb606083018562001eb3565b8281036040840152620024cf818562001eb3565b9695505050505050565b600060208284031215620024ec57600080fd5b815167ffffffffffffffff8111156200250457600080fd5b8201601f810184136200251657600080fd5b80516200252762001d8a8262001d3c565b8181528560208385010111156200253d57600080fd5b6200245b82602083016020860162001e84565b634e487b7160e01b600052603260045260246000fd5b634e487b7160e01b600052601160045260246000fd5b60006001820162002591576200259162002566565b5060010190565b600060208284031215620025ab57600080fd5b815162001fbb8162001c8c565b828152604060208201526000620025d3604083018462001eb3565b949350505050565b60008219821115620025f157620025f162002566565b500190565b6060815260006200260b606083018662001eb3565b82810360208401526200261f818662001eb3565b91505060018060a01b0383166040830152949350505050565b60018060a01b038516815283602082015260806040820152600062002661608083018562001eb3565b828103606084015262002427818562001eb3565b601f821115620026bf57600081815260208120601f850160051c810160208610156200269e5750805b601f850160051c820191505b8181101562001aec57828155600101620026aa565b505050565b815167ffffffffffffffff811115620026e157620026e162001cf2565b620026f981620026f2845462002464565b8462002675565b602080601f831160018114620027315760008415620027185750858301515b600019600386901b1c1916600185901b17855562001aec565b600085815260208120601f198616915b82811015620027625788860151825594840194600190910190840162002741565b5085821015620027815787850151600019600388901b60f8161c191681555b5050505050600190811b01905550565b6001600160a01b0384168152606060208201819052600090620024bb9083018562001eb356fe60a06040523480156200001157600080fd5b5060405162001feb38038062001feb833981016040819052620000349162000138565b8282600062000044838262000254565b50600162000053828262000254565b5050506001600160a01b031660805250620003209050565b634e487b7160e01b600052604160045260246000fd5b600082601f8301126200009357600080fd5b81516001600160401b0380821115620000b057620000b06200006b565b604051601f8301601f19908116603f01168101908282118183101715620000db57620000db6200006b565b81604052838152602092508683858801011115620000f857600080fd5b600091505b838210156200011c5785820183015181830184015290820190620000fd565b838211156200012e5760008385830101525b9695505050505050565b6000806000606084860312156200014e57600080fd5b83516001600160401b03808211156200016657600080fd5b620001748783880162000081565b945060208601519150808211156200018b57600080fd5b506200019a8682870162000081565b604086015190935090506001600160a01b0381168114620001ba57600080fd5b809150509250925092565b600181811c90821680620001da57607f821691505b602082108103620001fb57634e487b7160e01b600052602260045260246000fd5b50919050565b601f8211156200024f57600081815260208120601f850160051c810160208610156200022a5750805b601f850160051c820191505b818110156200024b5782815560010162000236565b5050505b505050565b81516001600160401b038111156200027057620002706200006b565b6200028881620002818454620001c5565b8462000201565b602080601f831160018114620002c05760008415620002a75750858301515b600019600386901b1c1916600185901b1785556200024b565b600085815260208120601f198616915b82811015620002f157888601518255948401946001909101908401620002d0565b5085821015620003105787850151600019600388901b60f8161c191681555b5050505050600190811b01905550565b608051611ca862000343600039600081816104ae015261089c0152611ca86000f3fe608060405234801561001057600080fd5b506004361061010b5760003560e01c806370a08231116100a2578063b88d4fde11610071578063b88d4fde1461021d578063c87b56dd14610230578063e0a4528f14610243578063e985e9c514610256578063fb70c5db1461029257600080fd5b806370a08231146101d95780637284e416146101fa57806395d89b4114610202578063a22cb4651461020a57600080fd5b806318e97fd1116100de57806318e97fd11461018d57806323b872dd146101a057806342842e0e146101b35780636352211e146101c657600080fd5b806301ffc9a71461011057806306fdde0314610138578063081812fc1461014d578063095ea7b314610178575b600080fd5b61012361011e3660046113bf565b6102a5565b60405190151581526020015b60405180910390f35b6101406102d0565b60405161012f9190611434565b61016061015b366004611447565b610362565b6040516001600160a01b03909116815260200161012f565b61018b61018636600461147c565b610389565b005b61018b61019b366004611552565b6104a3565b61018b6101ae366004611599565b6104f9565b61018b6101c1366004611599565b61052a565b6101606101d4366004611447565b610545565b6101ec6101e73660046115d5565b6105a5565b60405190815260200161012f565b61014061062b565b6101406106b9565b61018b6102183660046115f0565b6106c8565b61018b61022b36600461162c565b6106d3565b61014061023e366004611447565b61070b565b610140610251366004611447565b61081b565b6101236102643660046116a8565b6001600160a01b03918216600090815260056020908152604080832093909416825291909152205460ff1690565b61018b6102a03660046116db565b610891565b60006001600160e01b03198216632483248360e11b14806102ca57506102ca8261091d565b92915050565b6060600080546102df9061174d565b80601f016020809104026020016040519081016040528092919081815260200182805461030b9061174d565b80156103585780601f1061032d57610100808354040283529160200191610358565b820191906000526020600020905b81548152906001019060200180831161033b57829003601f168201915b5050505050905090565b600061036d8261096d565b506000908152600460205260409020546001600160a01b031690565b600061039482610545565b9050806001600160a01b0316836001600160a01b0316036104065760405162461bcd60e51b815260206004820152602160248201527f4552433732313a20617070726f76616c20746f2063757272656e74206f776e656044820152603960f91b60648201526084015b60405180910390fd5b336001600160a01b038216148061042257506104228133610264565b6104945760405162461bcd60e51b815260206004820152603d60248201527f4552433732313a20617070726f76652063616c6c6572206973206e6f7420746f60448201527f6b656e206f776e6572206f7220617070726f76656420666f7220616c6c00000060648201526084016103fd565b61049e83836109cf565b505050565b336001600160a01b037f000000000000000000000000000000000000000000000000000000000000000016146104eb5760405162461bcd60e51b81526004016103fd90611787565b6104f58282610a3d565b5050565b6105033382610b08565b61051f5760405162461bcd60e51b81526004016103fd906117d5565b61049e838383610b86565b61049e838383604051806020016040528060008152506106d3565b6000818152600260205260408120546001600160a01b0316806102ca5760405162461bcd60e51b8152602060048201526018602482015277115490cdcc8c4e881a5b9d985b1a59081d1bdad95b88125160421b60448201526064016103fd565b60006001600160a01b03821661060f5760405162461bcd60e51b815260206004820152602960248201527f4552433732313a2061646472657373207a65726f206973206e6f7420612076616044820152683634b21037bbb732b960b91b60648201526084016103fd565b506001600160a01b031660009081526003602052604090205490565b600780546106389061174d565b80601f01602080910402602001604051908101604052809291908181526020018280546106649061174d565b80156106b15780601f10610686576101008083540402835291602001916106b1565b820191906000526020600020905b81548152906001019060200180831161069457829003601f168201915b505050505081565b6060600180546102df9061174d565b6104f5338383610cea565b6106dd3383610b08565b6106f95760405162461bcd60e51b81526004016103fd906117d5565b61070584848484610db8565b50505050565b60606107168261096d565b6000828152600660205260408120805461072f9061174d565b80601f016020809104026020016040519081016040528092919081815260200182805461075b9061174d565b80156107a85780601f1061077d576101008083540402835291602001916107a8565b820191906000526020600020905b81548152906001019060200180831161078b57829003601f168201915b5050505050905060006107c660408051602081019091526000815290565b905080516000036107d8575092915050565b81511561080a5780826040516020016107f292919061183e565b60405160208183030381529060405292505050919050565b61081384610deb565b949350505050565b606060006108288361070b565b905060006108346102d0565b90506000610865826007856040516020016108519392919061186d565b604051602081830303815290604052610e5f565b905080604051602001610878919061198f565b6040516020818303038152906040529350505050919050565b336001600160a01b037f000000000000000000000000000000000000000000000000000000000000000016146108d95760405162461bcd60e51b81526004016103fd90611787565b60076108e582826119f9565b5060015b838111610916576108fa8582610fb2565b6109048184610a3d565b8061090e81611acf565b9150506108e9565b5050505050565b60006001600160e01b031982166380ac58cd60e01b148061094e57506001600160e01b03198216635b5e139f60e01b145b806102ca57506301ffc9a760e01b6001600160e01b03198316146102ca565b6000818152600260205260409020546001600160a01b03166109cc5760405162461bcd60e51b8152602060048201526018602482015277115490cdcc8c4e881a5b9d985b1a59081d1bdad95b88125160421b60448201526064016103fd565b50565b600081815260046020526040902080546001600160a01b0319166001600160a01b0384169081179091558190610a0482610545565b6001600160a01b03167f8c5be1e5ebec7d5bd14f71427d1e84f3dd0314c0f7b2291e5b200ac8c7c3b92560405160405180910390a45050565b6000828152600260205260409020546001600160a01b0316610ab85760405162461bcd60e51b815260206004820152602e60248201527f45524337323155524953746f726167653a2055524920736574206f66206e6f6e60448201526d32bc34b9ba32b73a103a37b5b2b760911b60648201526084016103fd565b6000828152600660205260409020610ad082826119f9565b506040518281527ff8e1a15aba9398e019f0b49df1a4fde98ee17ae345cb5f6b5e2c27f5033e8ce79060200160405180910390a15050565b600080610b1483610545565b9050806001600160a01b0316846001600160a01b03161480610b5b57506001600160a01b0380821660009081526005602090815260408083209388168352929052205460ff165b806108135750836001600160a01b0316610b7484610362565b6001600160a01b031614949350505050565b826001600160a01b0316610b9982610545565b6001600160a01b031614610bbf5760405162461bcd60e51b81526004016103fd90611ae8565b6001600160a01b038216610c215760405162461bcd60e51b8152602060048201526024808201527f4552433732313a207472616e7366657220746f20746865207a65726f206164646044820152637265737360e01b60648201526084016103fd565b826001600160a01b0316610c3482610545565b6001600160a01b031614610c5a5760405162461bcd60e51b81526004016103fd90611ae8565b600081815260046020908152604080832080546001600160a01b03199081169091556001600160a01b0387811680865260038552838620805460001901905590871680865283862080546001019055868652600290945282852080549092168417909155905184937fddf252ad1be2c89b69c2b068fc378daa952ba7f163c4a11628f55a4df523b3ef91a4505050565b816001600160a01b0316836001600160a01b031603610d4b5760405162461bcd60e51b815260206004820152601960248201527f4552433732313a20617070726f766520746f2063616c6c65720000000000000060448201526064016103fd565b6001600160a01b03838116600081815260056020908152604080832094871680845294825291829020805460ff191686151590811790915591519182527f17307eab39ab6107e8899845ad3d59bd9653f200f220920489ca2b5937696c31910160405180910390a3505050565b610dc3848484610b86565b610dcf8484848461113d565b6107055760405162461bcd60e51b81526004016103fd90611b2d565b6060610df68261096d565b6000610e0d60408051602081019091526000815290565b90506000815111610e2d5760405180602001604052806000815250610e58565b80610e378461123e565b604051602001610e4892919061183e565b6040516020818303038152906040525b9392505050565b60608151600003610e7e57505060408051602081019091526000815290565b6000604051806060016040528060408152602001611c336040913990506000600384516002610ead9190611b7f565b610eb79190611b97565b610ec2906004611bb9565b67ffffffffffffffff811115610eda57610eda6114a6565b6040519080825280601f01601f191660200182016040528015610f04576020820181803683370190505b509050600182016020820185865187015b80821015610f70576003820191508151603f8160121c168501518453600184019350603f81600c1c168501518453600184019350603f8160061c168501518453600184019350603f8116850151845350600183019250610f15565b5050600386510660018114610f8c5760028114610f9f57610fa7565b603d6001830353603d6002830353610fa7565b603d60018303535b509195945050505050565b6001600160a01b0382166110085760405162461bcd60e51b815260206004820181905260248201527f4552433732313a206d696e7420746f20746865207a65726f206164647265737360448201526064016103fd565b6000818152600260205260409020546001600160a01b03161561106d5760405162461bcd60e51b815260206004820152601c60248201527f4552433732313a20746f6b656e20616c7265616479206d696e7465640000000060448201526064016103fd565b6000818152600260205260409020546001600160a01b0316156110d25760405162461bcd60e51b815260206004820152601c60248201527f4552433732313a20746f6b656e20616c7265616479206d696e7465640000000060448201526064016103fd565b6001600160a01b038216600081815260036020908152604080832080546001019055848352600290915280822080546001600160a01b0319168417905551839291907fddf252ad1be2c89b69c2b068fc378daa952ba7f163c4a11628f55a4df523b3ef908290a45050565b60006001600160a01b0384163b1561123357604051630a85bd0160e11b81526001600160a01b0385169063150b7a0290611181903390899088908890600401611bd8565b6020604051808303816000875af19250505080156111bc575060408051601f3d908101601f191682019092526111b991810190611c15565b60015b611219573d8080156111ea576040519150601f19603f3d011682016040523d82523d6000602084013e6111ef565b606091505b5080516000036112115760405162461bcd60e51b81526004016103fd90611b2d565b805181602001fd5b6001600160e01b031916630a85bd0160e11b149050610813565b506001949350505050565b6060600061124b836112d1565b600101905060008167ffffffffffffffff81111561126b5761126b6114a6565b6040519080825280601f01601f191660200182016040528015611295576020820181803683370190505b5090508181016020015b600019016f181899199a1a9b1b9c1cb0b131b232b360811b600a86061a8153600a850494508461129f57509392505050565b60008072184f03e93ff9f4daa797ed6e38ed64bf6a1f0160401b83106113105772184f03e93ff9f4daa797ed6e38ed64bf6a1f0160401b830492506040015b6d04ee2d6d415b85acef8100000000831061133c576d04ee2d6d415b85acef8100000000830492506020015b662386f26fc10000831061135a57662386f26fc10000830492506010015b6305f5e1008310611372576305f5e100830492506008015b612710831061138657612710830492506004015b60648310611398576064830492506002015b600a83106102ca5760010192915050565b6001600160e01b0319811681146109cc57600080fd5b6000602082840312156113d157600080fd5b8135610e58816113a9565b60005b838110156113f75781810151838201526020016113df565b838111156107055750506000910152565b600081518084526114208160208601602086016113dc565b601f01601f19169290920160200192915050565b602081526000610e586020830184611408565b60006020828403121561145957600080fd5b5035919050565b80356001600160a01b038116811461147757600080fd5b919050565b6000806040838503121561148f57600080fd5b61149883611460565b946020939093013593505050565b634e487b7160e01b600052604160045260246000fd5b600067ffffffffffffffff808411156114d7576114d76114a6565b604051601f8501601f19908116603f011681019082821181831017156114ff576114ff6114a6565b8160405280935085815286868601111561151857600080fd5b858560208301376000602087830101525050509392505050565b600082601f83011261154357600080fd5b610e58838335602085016114bc565b6000806040838503121561156557600080fd5b82359150602083013567ffffffffffffffff81111561158357600080fd5b61158f85828601611532565b9150509250929050565b6000806000606084860312156115ae57600080fd5b6115b784611460565b92506115c560208501611460565b9150604084013590509250925092565b6000602082840312156115e757600080fd5b610e5882611460565b6000806040838503121561160357600080fd5b61160c83611460565b91506020830135801515811461162157600080fd5b809150509250929050565b6000806000806080858703121561164257600080fd5b61164b85611460565b935061165960208601611460565b925060408501359150606085013567ffffffffffffffff81111561167c57600080fd5b8501601f8101871361168d57600080fd5b61169c878235602084016114bc565b91505092959194509250565b600080604083850312156116bb57600080fd5b6116c483611460565b91506116d260208401611460565b90509250929050565b600080600080608085870312156116f157600080fd5b6116fa85611460565b935060208501359250604085013567ffffffffffffffff8082111561171e57600080fd5b61172a88838901611532565b9350606087013591508082111561174057600080fd5b5061169c87828801611532565b600181811c9082168061176157607f821691505b60208210810361178157634e487b7160e01b600052602260045260246000fd5b50919050565b6020808252602e908201527f4f6e6c79466163746f72793a2043616c6c6572206973206e6f7420746865206360408201526d37b9329031b7b73a3937b63632b960911b606082015260800190565b6020808252602d908201527f4552433732313a2063616c6c6572206973206e6f7420746f6b656e206f776e6560408201526c1c881bdc88185c1c1c9bdd9959609a1b606082015260800190565b600081516118348185602086016113dc565b9290920192915050565b600083516118508184602088016113dc565b8351908301906118648183602088016113dc565b01949350505050565b6803d913730b6b2911d160bd1b8152601160f91b6009820181905284516000919060206118a082600a8701838b016113dc565b8185019150710111610113232b9b1b934b83a34b7b7111d160751b600a83015282601c830152601d9250600087546118d78161174d565b600182811680156118ef576001811461190857611938565b60ff198416878901528215158302870188019450611938565b8b6000528560002060005b8481101561192e5781548982018b0152908301908701611913565b5050878388010194505b5050505061198261197461196e611961846b01116101134b6b0b3b2911d160a51b8152600c0190565b601160f91b815260010190565b89611822565b61227d60f01b815260020190565b9998505050505050505050565b600082516119a18184602087016113dc565b9190910192915050565b601f82111561049e57600081815260208120601f850160051c810160208610156119d25750805b601f850160051c820191505b818110156119f1578281556001016119de565b505050505050565b815167ffffffffffffffff811115611a1357611a136114a6565b611a2781611a21845461174d565b846119ab565b602080601f831160018114611a5c5760008415611a445750858301515b600019600386901b1c1916600185901b1785556119f1565b600085815260208120601f198616915b82811015611a8b57888601518255948401946001909101908401611a6c565b5085821015611aa95787850151600019600388901b60f8161c191681555b5050505050600190811b01905550565b634e487b7160e01b600052601160045260246000fd5b600060018201611ae157611ae1611ab9565b5060010190565b60208082526025908201527f4552433732313a207472616e736665722066726f6d20696e636f72726563742060408201526437bbb732b960d91b606082015260800190565b60208082526032908201527f4552433732313a207472616e7366657220746f206e6f6e20455243373231526560408201527131b2b4bb32b91034b6b83632b6b2b73a32b960711b606082015260800190565b60008219821115611b9257611b92611ab9565b500190565b600082611bb457634e487b7160e01b600052601260045260246000fd5b500490565b6000816000190483118215151615611bd357611bd3611ab9565b500290565b6001600160a01b0385811682528416602082015260408101839052608060608201819052600090611c0b90830184611408565b9695505050505050565b600060208284031215611c2757600080fd5b8151610e58816113a956fe4142434445464748494a4b4c4d4e4f505152535455565758595a6162636465666768696a6b6c6d6e6f707172737475767778797a303132333435363738392b2fa264697066735822122041e8d5566b48e1519e44a92895e8246d0e2c267daaf07dadd3679b88a6ae8df864736f6c634300080f0033a26469706673582212206e30c20f5561c93b492fa0a22749a9875f05802b28e1b8efb75a7d1c3932b52d64736f6c634300080f0033",
  "linkReferences": {},
  "deployedLinkReferences": {}
}